{
  "_format": "hh-sol-artifact-1",
  "contractName": "BookManager",
  "sourceName": "contracts/BookManager.sol",
  "abi": [
    {
      "inputs": [
        {
          "internalType": "address",
          "name": "owner_",
          "type": "address"
        },
        {
          "internalType": "address",
          "name": "defaultProvider_",
          "type": "address"
        },
        {
          "internalType": "string",
          "name": "baseURI_",
          "type": "string"
        },
        {
          "internalType": "string",
          "name": "contractURI_",
          "type": "string"
        },
        {
          "internalType": "string",
          "name": "name_",
          "type": "string"
        },
        {
          "internalType": "string",
          "name": "symbol_",
          "type": "string"
        }
      ],
      "stateMutability": "nonpayable",
      "type": "constructor"
    },
    {
      "inputs": [],
      "name": "BookNotOpened",
      "type": "error"
    },
    {
      "inputs": [],
      "name": "CurrencyNotSettled",
      "type": "error"
    },
    {
      "inputs": [],
      "name": "ECDSAInvalidSignature",
      "type": "error"
    },
    {
      "inputs": [
        {
          "internalType": "uint256",
          "name": "length",
          "type": "uint256"
        }
      ],
      "name": "ECDSAInvalidSignatureLength",
      "type": "error"
    },
    {
      "inputs": [
        {
          "internalType": "bytes32",
          "name": "s",
          "type": "bytes32"
        }
      ],
      "name": "ECDSAInvalidSignatureS",
      "type": "error"
    },
    {
      "inputs": [],
      "name": "ERC20TransferFailed",
      "type": "error"
    },
    {
      "inputs": [
        {
          "internalType": "address",
          "name": "sender",
          "type": "address"
        },
        {
          "internalType": "uint256",
          "name": "tokenId",
          "type": "uint256"
        },
        {
          "internalType": "address",
          "name": "owner",
          "type": "address"
        }
      ],
      "name": "ERC721IncorrectOwner",
      "type": "error"
    },
    {
      "inputs": [
        {
          "internalType": "address",
          "name": "operator",
          "type": "address"
        },
        {
          "internalType": "uint256",
          "name": "tokenId",
          "type": "uint256"
        }
      ],
      "name": "ERC721InsufficientApproval",
      "type": "error"
    },
    {
      "inputs": [
        {
          "internalType": "address",
          "name": "approver",
          "type": "address"
        }
      ],
      "name": "ERC721InvalidApprover",
      "type": "error"
    },
    {
      "inputs": [
        {
          "internalType": "address",
          "name": "operator",
          "type": "address"
        }
      ],
      "name": "ERC721InvalidOperator",
      "type": "error"
    },
    {
      "inputs": [
        {
          "internalType": "address",
          "name": "owner",
          "type": "address"
        }
      ],
      "name": "ERC721InvalidOwner",
      "type": "error"
    },
    {
      "inputs": [
        {
          "internalType": "address",
          "name": "receiver",
          "type": "address"
        }
      ],
      "name": "ERC721InvalidReceiver",
      "type": "error"
    },
    {
      "inputs": [
        {
          "internalType": "address",
          "name": "sender",
          "type": "address"
        }
      ],
      "name": "ERC721InvalidSender",
      "type": "error"
    },
    {
      "inputs": [
        {
          "internalType": "uint256",
          "name": "tokenId",
          "type": "uint256"
        }
      ],
      "name": "ERC721NonexistentToken",
      "type": "error"
    },
    {
      "inputs": [],
      "name": "EmptyError",
      "type": "error"
    },
    {
      "inputs": [],
      "name": "FailedHookCall",
      "type": "error"
    },
    {
      "inputs": [
        {
          "internalType": "address",
          "name": "hooks",
          "type": "address"
        }
      ],
      "name": "HookAddressNotValid",
      "type": "error"
    },
    {
      "inputs": [],
      "name": "InvalidFeePolicy",
      "type": "error"
    },
    {
      "inputs": [],
      "name": "InvalidHookResponse",
      "type": "error"
    },
    {
      "inputs": [
        {
          "internalType": "address",
          "name": "provider",
          "type": "address"
        }
      ],
      "name": "InvalidProvider",
      "type": "error"
    },
    {
      "inputs": [],
      "name": "InvalidShortString",
      "type": "error"
    },
    {
      "inputs": [],
      "name": "InvalidSignature",
      "type": "error"
    },
    {
      "inputs": [],
      "name": "InvalidTick",
      "type": "error"
    },
    {
      "inputs": [],
      "name": "InvalidUnitSize",
      "type": "error"
    },
    {
      "inputs": [
        {
          "internalType": "address",
          "name": "locker",
          "type": "address"
        },
        {
          "internalType": "address",
          "name": "hook",
          "type": "address"
        }
      ],
      "name": "LockedBy",
      "type": "error"
    },
    {
      "inputs": [],
      "name": "NativeTransferFailed",
      "type": "error"
    },
    {
      "inputs": [
        {
          "internalType": "address",
          "name": "owner",
          "type": "address"
        }
      ],
      "name": "OwnableInvalidOwner",
      "type": "error"
    },
    {
      "inputs": [
        {
          "internalType": "address",
          "name": "account",
          "type": "address"
        }
      ],
      "name": "OwnableUnauthorizedAccount",
      "type": "error"
    },
    {
      "inputs": [],
      "name": "PermitExpired",
      "type": "error"
    },
    {
      "inputs": [
        {
          "internalType": "int256",
          "name": "value",
          "type": "int256"
        }
      ],
      "name": "SafeCastOverflowedIntToUint",
      "type": "error"
    },
    {
      "inputs": [
        {
          "internalType": "uint256",
          "name": "value",
          "type": "uint256"
        }
      ],
      "name": "SafeCastOverflowedUintToInt",
      "type": "error"
    },
    {
      "inputs": [
        {
          "internalType": "string",
          "name": "str",
          "type": "string"
        }
      ],
      "name": "StringTooLong",
      "type": "error"
    },
    {
      "anonymous": false,
      "inputs": [
        {
          "indexed": true,
          "internalType": "address",
          "name": "owner",
          "type": "address"
        },
        {
          "indexed": true,
          "internalType": "address",
          "name": "approved",
          "type": "address"
        },
        {
          "indexed": true,
          "internalType": "uint256",
          "name": "tokenId",
          "type": "uint256"
        }
      ],
      "name": "Approval",
      "type": "event"
    },
    {
      "anonymous": false,
      "inputs": [
        {
          "indexed": true,
          "internalType": "address",
          "name": "owner",
          "type": "address"
        },
        {
          "indexed": true,
          "internalType": "address",
          "name": "operator",
          "type": "address"
        },
        {
          "indexed": false,
          "internalType": "bool",
          "name": "approved",
          "type": "bool"
        }
      ],
      "name": "ApprovalForAll",
      "type": "event"
    },
    {
      "anonymous": false,
      "inputs": [
        {
          "indexed": true,
          "internalType": "OrderId",
          "name": "orderId",
          "type": "uint256"
        },
        {
          "indexed": false,
          "internalType": "uint64",
          "name": "unit",
          "type": "uint64"
        }
      ],
      "name": "Cancel",
      "type": "event"
    },
    {
      "anonymous": false,
      "inputs": [
        {
          "indexed": true,
          "internalType": "OrderId",
          "name": "orderId",
          "type": "uint256"
        },
        {
          "indexed": false,
          "internalType": "uint64",
          "name": "unit",
          "type": "uint64"
        }
      ],
      "name": "Claim",
      "type": "event"
    },
    {
      "anonymous": false,
      "inputs": [
        {
          "indexed": true,
          "internalType": "address",
          "name": "provider",
          "type": "address"
        },
        {
          "indexed": true,
          "internalType": "address",
          "name": "recipient",
          "type": "address"
        },
        {
          "indexed": true,
          "internalType": "Currency",
          "name": "currency",
          "type": "address"
        },
        {
          "indexed": false,
          "internalType": "uint256",
          "name": "amount",
          "type": "uint256"
        }
      ],
      "name": "Collect",
      "type": "event"
    },
    {
      "anonymous": false,
      "inputs": [
        {
          "indexed": true,
          "internalType": "address",
          "name": "provider",
          "type": "address"
        }
      ],
      "name": "Delist",
      "type": "event"
    },
    {
      "anonymous": false,
      "inputs": [],
      "name": "EIP712DomainChanged",
      "type": "event"
    },
    {
      "anonymous": false,
      "inputs": [
        {
          "indexed": true,
          "internalType": "BookId",
          "name": "bookId",
          "type": "uint192"
        },
        {
          "indexed": true,
          "internalType": "address",
          "name": "user",
          "type": "address"
        },
        {
          "indexed": false,
          "internalType": "Tick",
          "name": "tick",
          "type": "int24"
        },
        {
          "indexed": false,
          "internalType": "uint256",
          "name": "orderIndex",
          "type": "uint256"
        },
        {
          "indexed": false,
          "internalType": "uint64",
          "name": "unit",
          "type": "uint64"
        },
        {
          "indexed": false,
          "internalType": "address",
          "name": "provider",
          "type": "address"
        }
      ],
      "name": "Make",
      "type": "event"
    },
    {
      "anonymous": false,
      "inputs": [
        {
          "indexed": true,
          "internalType": "BookId",
          "name": "id",
          "type": "uint192"
        },
        {
          "indexed": true,
          "internalType": "Currency",
          "name": "base",
          "type": "address"
        },
        {
          "indexed": true,
          "internalType": "Currency",
          "name": "quote",
          "type": "address"
        },
        {
          "indexed": false,
          "internalType": "uint64",
          "name": "unitSize",
          "type": "uint64"
        },
        {
          "indexed": false,
          "internalType": "FeePolicy",
          "name": "makerPolicy",
          "type": "uint24"
        },
        {
          "indexed": false,
          "internalType": "FeePolicy",
          "name": "takerPolicy",
          "type": "uint24"
        },
        {
          "indexed": false,
          "internalType": "contract IHooks",
          "name": "hooks",
          "type": "address"
        }
      ],
      "name": "Open",
      "type": "event"
    },
    {
      "anonymous": false,
      "inputs": [
        {
          "indexed": true,
          "internalType": "address",
          "name": "previousOwner",
          "type": "address"
        },
        {
          "indexed": true,
          "internalType": "address",
          "name": "newOwner",
          "type": "address"
        }
      ],
      "name": "OwnershipTransferStarted",
      "type": "event"
    },
    {
      "anonymous": false,
      "inputs": [
        {
          "indexed": true,
          "internalType": "address",
          "name": "previousOwner",
          "type": "address"
        },
        {
          "indexed": true,
          "internalType": "address",
          "name": "newOwner",
          "type": "address"
        }
      ],
      "name": "OwnershipTransferred",
      "type": "event"
    },
    {
      "anonymous": false,
      "inputs": [
        {
          "indexed": true,
          "internalType": "address",
          "name": "newDefaultProvider",
          "type": "address"
        }
      ],
      "name": "SetDefaultProvider",
      "type": "event"
    },
    {
      "anonymous": false,
      "inputs": [
        {
          "indexed": true,
          "internalType": "BookId",
          "name": "bookId",
          "type": "uint192"
        },
        {
          "indexed": true,
          "internalType": "address",
          "name": "user",
          "type": "address"
        },
        {
          "indexed": false,
          "internalType": "Tick",
          "name": "tick",
          "type": "int24"
        },
        {
          "indexed": false,
          "internalType": "uint64",
          "name": "unit",
          "type": "uint64"
        }
      ],
      "name": "Take",
      "type": "event"
    },
    {
      "anonymous": false,
      "inputs": [
        {
          "indexed": true,
          "internalType": "address",
          "name": "from",
          "type": "address"
        },
        {
          "indexed": true,
          "internalType": "address",
          "name": "to",
          "type": "address"
        },
        {
          "indexed": true,
          "internalType": "uint256",
          "name": "tokenId",
          "type": "uint256"
        }
      ],
      "name": "Transfer",
      "type": "event"
    },
    {
      "anonymous": false,
      "inputs": [
        {
          "indexed": true,
          "internalType": "address",
          "name": "provider",
          "type": "address"
        }
      ],
      "name": "Whitelist",
      "type": "event"
    },
    {
      "inputs": [],
      "name": "DOMAIN_SEPARATOR",
      "outputs": [
        {
          "internalType": "bytes32",
          "name": "",
          "type": "bytes32"
        }
      ],
      "stateMutability": "view",
      "type": "function"
    },
    {
      "inputs": [],
      "name": "PERMIT_TYPEHASH",
      "outputs": [
        {
          "internalType": "bytes32",
          "name": "",
          "type": "bytes32"
        }
      ],
      "stateMutability": "view",
      "type": "function"
    },
    {
      "inputs": [],
      "name": "acceptOwnership",
      "outputs": [],
      "stateMutability": "nonpayable",
      "type": "function"
    },
    {
      "inputs": [
        {
          "internalType": "address",
          "name": "to",
          "type": "address"
        },
        {
          "internalType": "uint256",
          "name": "tokenId",
          "type": "uint256"
        }
      ],
      "name": "approve",
      "outputs": [],
      "stateMutability": "nonpayable",
      "type": "function"
    },
    {
      "inputs": [
        {
          "internalType": "address",
          "name": "owner",
          "type": "address"
        }
      ],
      "name": "balanceOf",
      "outputs": [
        {
          "internalType": "uint256",
          "name": "",
          "type": "uint256"
        }
      ],
      "stateMutability": "view",
      "type": "function"
    },
    {
      "inputs": [],
      "name": "baseURI",
      "outputs": [
        {
          "internalType": "string",
          "name": "",
          "type": "string"
        }
      ],
      "stateMutability": "view",
      "type": "function"
    },
    {
      "inputs": [
        {
          "components": [
            {
              "internalType": "OrderId",
              "name": "id",
              "type": "uint256"
            },
            {
              "internalType": "uint64",
              "name": "toUnit",
              "type": "uint64"
            }
          ],
          "internalType": "struct IBookManager.CancelParams",
          "name": "params",
          "type": "tuple"
        },
        {
          "internalType": "bytes",
          "name": "hookData",
          "type": "bytes"
        }
      ],
      "name": "cancel",
      "outputs": [
        {
          "internalType": "uint256",
          "name": "canceledAmount",
          "type": "uint256"
        }
      ],
      "stateMutability": "nonpayable",
      "type": "function"
    },
    {
      "inputs": [
        {
          "internalType": "address",
          "name": "owner",
          "type": "address"
        },
        {
          "internalType": "address",
          "name": "spender",
          "type": "address"
        },
        {
          "internalType": "uint256",
          "name": "tokenId",
          "type": "uint256"
        }
      ],
      "name": "checkAuthorized",
      "outputs": [],
      "stateMutability": "view",
      "type": "function"
    },
    {
      "inputs": [
        {
          "internalType": "OrderId",
          "name": "id",
          "type": "uint256"
        },
        {
          "internalType": "bytes",
          "name": "hookData",
          "type": "bytes"
        }
      ],
      "name": "claim",
      "outputs": [
        {
          "internalType": "uint256",
          "name": "claimedAmount",
          "type": "uint256"
        }
      ],
      "stateMutability": "nonpayable",
      "type": "function"
    },
    {
      "inputs": [
        {
          "internalType": "address",
          "name": "recipient",
          "type": "address"
        },
        {
          "internalType": "Currency",
          "name": "currency",
          "type": "address"
        }
      ],
      "name": "collect",
      "outputs": [
        {
          "internalType": "uint256",
          "name": "amount",
          "type": "uint256"
        }
      ],
      "stateMutability": "nonpayable",
      "type": "function"
    },
    {
      "inputs": [],
      "name": "contractURI",
      "outputs": [
        {
          "internalType": "string",
          "name": "",
          "type": "string"
        }
      ],
      "stateMutability": "view",
      "type": "function"
    },
    {
      "inputs": [],
      "name": "defaultProvider",
      "outputs": [
        {
          "internalType": "address",
          "name": "",
          "type": "address"
        }
      ],
      "stateMutability": "view",
      "type": "function"
    },
    {
      "inputs": [
        {
          "internalType": "address",
          "name": "provider",
          "type": "address"
        }
      ],
      "name": "delist",
      "outputs": [],
      "stateMutability": "nonpayable",
      "type": "function"
    },
    {
      "inputs": [],
      "name": "eip712Domain",
      "outputs": [
        {
          "internalType": "bytes1",
          "name": "fields",
          "type": "bytes1"
        },
        {
          "internalType": "string",
          "name": "name",
          "type": "string"
        },
        {
          "internalType": "string",
          "name": "version",
          "type": "string"
        },
        {
          "internalType": "uint256",
          "name": "chainId",
          "type": "uint256"
        },
        {
          "internalType": "address",
          "name": "verifyingContract",
          "type": "address"
        },
        {
          "internalType": "bytes32",
          "name": "salt",
          "type": "bytes32"
        },
        {
          "internalType": "uint256[]",
          "name": "extensions",
          "type": "uint256[]"
        }
      ],
      "stateMutability": "view",
      "type": "function"
    },
    {
      "inputs": [
        {
          "components": [
            {
              "internalType": "Currency",
              "name": "base",
              "type": "address"
            },
            {
              "internalType": "uint64",
              "name": "unitSize",
              "type": "uint64"
            },
            {
              "internalType": "Currency",
              "name": "quote",
              "type": "address"
            },
            {
              "internalType": "FeePolicy",
              "name": "makerPolicy",
              "type": "uint24"
            },
            {
              "internalType": "contract IHooks",
              "name": "hooks",
              "type": "address"
            },
            {
              "internalType": "FeePolicy",
              "name": "takerPolicy",
              "type": "uint24"
            }
          ],
          "internalType": "struct IBookManager.BookKey",
          "name": "key",
          "type": "tuple"
        }
      ],
      "name": "encodeBookKey",
      "outputs": [
        {
          "internalType": "BookId",
          "name": "",
          "type": "uint192"
        }
      ],
      "stateMutability": "pure",
      "type": "function"
    },
    {
      "inputs": [
        {
          "internalType": "uint256",
          "name": "tokenId",
          "type": "uint256"
        }
      ],
      "name": "getApproved",
      "outputs": [
        {
          "internalType": "address",
          "name": "",
          "type": "address"
        }
      ],
      "stateMutability": "view",
      "type": "function"
    },
    {
      "inputs": [
        {
          "internalType": "BookId",
          "name": "id",
          "type": "uint192"
        }
      ],
      "name": "getBookKey",
      "outputs": [
        {
          "components": [
            {
              "internalType": "Currency",
              "name": "base",
              "type": "address"
            },
            {
              "internalType": "uint64",
              "name": "unitSize",
              "type": "uint64"
            },
            {
              "internalType": "Currency",
              "name": "quote",
              "type": "address"
            },
            {
              "internalType": "FeePolicy",
              "name": "makerPolicy",
              "type": "uint24"
            },
            {
              "internalType": "contract IHooks",
              "name": "hooks",
              "type": "address"
            },
            {
              "internalType": "FeePolicy",
              "name": "takerPolicy",
              "type": "uint24"
            }
          ],
          "internalType": "struct IBookManager.BookKey",
          "name": "",
          "type": "tuple"
        }
      ],
      "stateMutability": "view",
      "type": "function"
    },
    {
      "inputs": [
        {
          "internalType": "address",
          "name": "locker",
          "type": "address"
        },
        {
          "internalType": "Currency",
          "name": "currency",
          "type": "address"
        }
      ],
      "name": "getCurrencyDelta",
      "outputs": [
        {
          "internalType": "int256",
          "name": "",
          "type": "int256"
        }
      ],
      "stateMutability": "view",
      "type": "function"
    },
    {
      "inputs": [
        {
          "internalType": "BookId",
          "name": "id",
          "type": "uint192"
        },
        {
          "internalType": "Tick",
          "name": "tick",
          "type": "int24"
        }
      ],
      "name": "getDepth",
      "outputs": [
        {
          "internalType": "uint64",
          "name": "",
          "type": "uint64"
        }
      ],
      "stateMutability": "view",
      "type": "function"
    },
    {
      "inputs": [
        {
          "internalType": "BookId",
          "name": "id",
          "type": "uint192"
        }
      ],
      "name": "getHighest",
      "outputs": [
        {
          "internalType": "Tick",
          "name": "",
          "type": "int24"
        }
      ],
      "stateMutability": "view",
      "type": "function"
    },
    {
      "inputs": [
        {
          "internalType": "uint256",
          "name": "i",
          "type": "uint256"
        }
      ],
      "name": "getLock",
      "outputs": [
        {
          "internalType": "address",
          "name": "",
          "type": "address"
        },
        {
          "internalType": "address",
          "name": "",
          "type": "address"
        }
      ],
      "stateMutability": "view",
      "type": "function"
    },
    {
      "inputs": [],
      "name": "getLockData",
      "outputs": [
        {
          "internalType": "uint128",
          "name": "",
          "type": "uint128"
        },
        {
          "internalType": "uint128",
          "name": "",
          "type": "uint128"
        }
      ],
      "stateMutability": "view",
      "type": "function"
    },
    {
      "inputs": [
        {
          "internalType": "OrderId",
          "name": "id",
          "type": "uint256"
        }
      ],
      "name": "getOrder",
      "outputs": [
        {
          "components": [
            {
              "internalType": "address",
              "name": "provider",
              "type": "address"
            },
            {
              "internalType": "uint64",
              "name": "open",
              "type": "uint64"
            },
            {
              "internalType": "uint64",
              "name": "claimable",
              "type": "uint64"
            }
          ],
          "internalType": "struct IBookManager.OrderInfo",
          "name": "",
          "type": "tuple"
        }
      ],
      "stateMutability": "view",
      "type": "function"
    },
    {
      "inputs": [
        {
          "internalType": "address",
          "name": "owner",
          "type": "address"
        },
        {
          "internalType": "address",
          "name": "operator",
          "type": "address"
        }
      ],
      "name": "isApprovedForAll",
      "outputs": [
        {
          "internalType": "bool",
          "name": "",
          "type": "bool"
        }
      ],
      "stateMutability": "view",
      "type": "function"
    },
    {
      "inputs": [
        {
          "internalType": "BookId",
          "name": "id",
          "type": "uint192"
        }
      ],
      "name": "isEmpty",
      "outputs": [
        {
          "internalType": "bool",
          "name": "",
          "type": "bool"
        }
      ],
      "stateMutability": "view",
      "type": "function"
    },
    {
      "inputs": [
        {
          "internalType": "BookId",
          "name": "id",
          "type": "uint192"
        }
      ],
      "name": "isOpened",
      "outputs": [
        {
          "internalType": "bool",
          "name": "",
          "type": "bool"
        }
      ],
      "stateMutability": "view",
      "type": "function"
    },
    {
      "inputs": [
        {
          "internalType": "address",
          "name": "provider",
          "type": "address"
        }
      ],
      "name": "isWhitelisted",
      "outputs": [
        {
          "internalType": "bool",
          "name": "",
          "type": "bool"
        }
      ],
      "stateMutability": "view",
      "type": "function"
    },
    {
      "inputs": [
        {
          "internalType": "bytes32",
          "name": "slot",
          "type": "bytes32"
        }
      ],
      "name": "load",
      "outputs": [
        {
          "internalType": "bytes32",
          "name": "value",
          "type": "bytes32"
        }
      ],
      "stateMutability": "view",
      "type": "function"
    },
    {
      "inputs": [
        {
          "internalType": "bytes32",
          "name": "startSlot",
          "type": "bytes32"
        },
        {
          "internalType": "uint256",
          "name": "nSlot",
          "type": "uint256"
        }
      ],
      "name": "load",
      "outputs": [
        {
          "internalType": "bytes",
          "name": "value",
          "type": "bytes"
        }
      ],
      "stateMutability": "view",
      "type": "function"
    },
    {
      "inputs": [
        {
          "internalType": "address",
          "name": "locker",
          "type": "address"
        },
        {
          "internalType": "bytes",
          "name": "data",
          "type": "bytes"
        }
      ],
      "name": "lock",
      "outputs": [
        {
          "internalType": "bytes",
          "name": "result",
          "type": "bytes"
        }
      ],
      "stateMutability": "nonpayable",
      "type": "function"
    },
    {
      "inputs": [
        {
          "components": [
            {
              "components": [
                {
                  "internalType": "Currency",
                  "name": "base",
                  "type": "address"
                },
                {
                  "internalType": "uint64",
                  "name": "unitSize",
                  "type": "uint64"
                },
                {
                  "internalType": "Currency",
                  "name": "quote",
                  "type": "address"
                },
                {
                  "internalType": "FeePolicy",
                  "name": "makerPolicy",
                  "type": "uint24"
                },
                {
                  "internalType": "contract IHooks",
                  "name": "hooks",
                  "type": "address"
                },
                {
                  "internalType": "FeePolicy",
                  "name": "takerPolicy",
                  "type": "uint24"
                }
              ],
              "internalType": "struct IBookManager.BookKey",
              "name": "key",
              "type": "tuple"
            },
            {
              "internalType": "Tick",
              "name": "tick",
              "type": "int24"
            },
            {
              "internalType": "uint64",
              "name": "unit",
              "type": "uint64"
            },
            {
              "internalType": "address",
              "name": "provider",
              "type": "address"
            }
          ],
          "internalType": "struct IBookManager.MakeParams",
          "name": "params",
          "type": "tuple"
        },
        {
          "internalType": "bytes",
          "name": "hookData",
          "type": "bytes"
        }
      ],
      "name": "make",
      "outputs": [
        {
          "internalType": "OrderId",
          "name": "id",
          "type": "uint256"
        },
        {
          "internalType": "uint256",
          "name": "quoteAmount",
          "type": "uint256"
        }
      ],
      "stateMutability": "nonpayable",
      "type": "function"
    },
    {
      "inputs": [
        {
          "internalType": "BookId",
          "name": "id",
          "type": "uint192"
        },
        {
          "internalType": "Tick",
          "name": "tick",
          "type": "int24"
        }
      ],
      "name": "maxLessThan",
      "outputs": [
        {
          "internalType": "Tick",
          "name": "",
          "type": "int24"
        }
      ],
      "stateMutability": "view",
      "type": "function"
    },
    {
      "inputs": [],
      "name": "name",
      "outputs": [
        {
          "internalType": "string",
          "name": "",
          "type": "string"
        }
      ],
      "stateMutability": "view",
      "type": "function"
    },
    {
      "inputs": [
        {
          "internalType": "uint256",
          "name": "id",
          "type": "uint256"
        }
      ],
      "name": "nonces",
      "outputs": [
        {
          "internalType": "uint256",
          "name": "",
          "type": "uint256"
        }
      ],
      "stateMutability": "view",
      "type": "function"
    },
    {
      "inputs": [
        {
          "components": [
            {
              "internalType": "Currency",
              "name": "base",
              "type": "address"
            },
            {
              "internalType": "uint64",
              "name": "unitSize",
              "type": "uint64"
            },
            {
              "internalType": "Currency",
              "name": "quote",
              "type": "address"
            },
            {
              "internalType": "FeePolicy",
              "name": "makerPolicy",
              "type": "uint24"
            },
            {
              "internalType": "contract IHooks",
              "name": "hooks",
              "type": "address"
            },
            {
              "internalType": "FeePolicy",
              "name": "takerPolicy",
              "type": "uint24"
            }
          ],
          "internalType": "struct IBookManager.BookKey",
          "name": "key",
          "type": "tuple"
        },
        {
          "internalType": "bytes",
          "name": "hookData",
          "type": "bytes"
        }
      ],
      "name": "open",
      "outputs": [],
      "stateMutability": "nonpayable",
      "type": "function"
    },
    {
      "inputs": [],
      "name": "owner",
      "outputs": [
        {
          "internalType": "address",
          "name": "",
          "type": "address"
        }
      ],
      "stateMutability": "view",
      "type": "function"
    },
    {
      "inputs": [
        {
          "internalType": "uint256",
          "name": "tokenId",
          "type": "uint256"
        }
      ],
      "name": "ownerOf",
      "outputs": [
        {
          "internalType": "address",
          "name": "",
          "type": "address"
        }
      ],
      "stateMutability": "view",
      "type": "function"
    },
    {
      "inputs": [],
      "name": "pendingOwner",
      "outputs": [
        {
          "internalType": "address",
          "name": "",
          "type": "address"
        }
      ],
      "stateMutability": "view",
      "type": "function"
    },
    {
      "inputs": [
        {
          "internalType": "address",
          "name": "spender",
          "type": "address"
        },
        {
          "internalType": "uint256",
          "name": "tokenId",
          "type": "uint256"
        },
        {
          "internalType": "uint256",
          "name": "deadline",
          "type": "uint256"
        },
        {
          "internalType": "uint8",
          "name": "v",
          "type": "uint8"
        },
        {
          "internalType": "bytes32",
          "name": "r",
          "type": "bytes32"
        },
        {
          "internalType": "bytes32",
          "name": "s",
          "type": "bytes32"
        }
      ],
      "name": "permit",
      "outputs": [],
      "stateMutability": "nonpayable",
      "type": "function"
    },
    {
      "inputs": [],
      "name": "renounceOwnership",
      "outputs": [],
      "stateMutability": "nonpayable",
      "type": "function"
    },
    {
      "inputs": [
        {
          "internalType": "Currency",
          "name": "currency",
          "type": "address"
        }
      ],
      "name": "reservesOf",
      "outputs": [
        {
          "internalType": "uint256",
          "name": "",
          "type": "uint256"
        }
      ],
      "stateMutability": "view",
      "type": "function"
    },
    {
      "inputs": [
        {
          "internalType": "address",
          "name": "from",
          "type": "address"
        },
        {
          "internalType": "address",
          "name": "to",
          "type": "address"
        },
        {
          "internalType": "uint256",
          "name": "tokenId",
          "type": "uint256"
        }
      ],
      "name": "safeTransferFrom",
      "outputs": [],
      "stateMutability": "nonpayable",
      "type": "function"
    },
    {
      "inputs": [
        {
          "internalType": "address",
          "name": "from",
          "type": "address"
        },
        {
          "internalType": "address",
          "name": "to",
          "type": "address"
        },
        {
          "internalType": "uint256",
          "name": "tokenId",
          "type": "uint256"
        },
        {
          "internalType": "bytes",
          "name": "data",
          "type": "bytes"
        }
      ],
      "name": "safeTransferFrom",
      "outputs": [],
      "stateMutability": "nonpayable",
      "type": "function"
    },
    {
      "inputs": [
        {
          "internalType": "address",
          "name": "operator",
          "type": "address"
        },
        {
          "internalType": "bool",
          "name": "approved",
          "type": "bool"
        }
      ],
      "name": "setApprovalForAll",
      "outputs": [],
      "stateMutability": "nonpayable",
      "type": "function"
    },
    {
      "inputs": [
        {
          "internalType": "address",
          "name": "newDefaultProvider",
          "type": "address"
        }
      ],
      "name": "setDefaultProvider",
      "outputs": [],
      "stateMutability": "nonpayable",
      "type": "function"
    },
    {
      "inputs": [
        {
          "internalType": "Currency",
          "name": "currency",
          "type": "address"
        }
      ],
      "name": "settle",
      "outputs": [
        {
          "internalType": "uint256",
          "name": "paid",
          "type": "uint256"
        }
      ],
      "stateMutability": "payable",
      "type": "function"
    },
    {
      "inputs": [
        {
          "internalType": "bytes4",
          "name": "interfaceId",
          "type": "bytes4"
        }
      ],
      "name": "supportsInterface",
      "outputs": [
        {
          "internalType": "bool",
          "name": "",
          "type": "bool"
        }
      ],
      "stateMutability": "view",
      "type": "function"
    },
    {
      "inputs": [],
      "name": "symbol",
      "outputs": [
        {
          "internalType": "string",
          "name": "",
          "type": "string"
        }
      ],
      "stateMutability": "view",
      "type": "function"
    },
    {
      "inputs": [
        {
          "components": [
            {
              "components": [
                {
                  "internalType": "Currency",
                  "name": "base",
                  "type": "address"
                },
                {
                  "internalType": "uint64",
                  "name": "unitSize",
                  "type": "uint64"
                },
                {
                  "internalType": "Currency",
                  "name": "quote",
                  "type": "address"
                },
                {
                  "internalType": "FeePolicy",
                  "name": "makerPolicy",
                  "type": "uint24"
                },
                {
                  "internalType": "contract IHooks",
                  "name": "hooks",
                  "type": "address"
                },
                {
                  "internalType": "FeePolicy",
                  "name": "takerPolicy",
                  "type": "uint24"
                }
              ],
              "internalType": "struct IBookManager.BookKey",
              "name": "key",
              "type": "tuple"
            },
            {
              "internalType": "Tick",
              "name": "tick",
              "type": "int24"
            },
            {
              "internalType": "uint64",
              "name": "maxUnit",
              "type": "uint64"
            }
          ],
          "internalType": "struct IBookManager.TakeParams",
          "name": "params",
          "type": "tuple"
        },
        {
          "internalType": "bytes",
          "name": "hookData",
          "type": "bytes"
        }
      ],
      "name": "take",
      "outputs": [
        {
          "internalType": "uint256",
          "name": "quoteAmount",
          "type": "uint256"
        },
        {
          "internalType": "uint256",
          "name": "baseAmount",
          "type": "uint256"
        }
      ],
      "stateMutability": "nonpayable",
      "type": "function"
    },
    {
      "inputs": [
        {
          "internalType": "address",
          "name": "provider",
          "type": "address"
        },
        {
          "internalType": "Currency",
          "name": "currency",
          "type": "address"
        }
      ],
      "name": "tokenOwed",
      "outputs": [
        {
          "internalType": "uint256",
          "name": "amount",
          "type": "uint256"
        }
      ],
      "stateMutability": "view",
      "type": "function"
    },
    {
      "inputs": [
        {
          "internalType": "uint256",
          "name": "tokenId",
          "type": "uint256"
        }
      ],
      "name": "tokenURI",
      "outputs": [
        {
          "internalType": "string",
          "name": "",
          "type": "string"
        }
      ],
      "stateMutability": "view",
      "type": "function"
    },
    {
      "inputs": [
        {
          "internalType": "address",
          "name": "from",
          "type": "address"
        },
        {
          "internalType": "address",
          "name": "to",
          "type": "address"
        },
        {
          "internalType": "uint256",
          "name": "tokenId",
          "type": "uint256"
        }
      ],
      "name": "transferFrom",
      "outputs": [],
      "stateMutability": "nonpayable",
      "type": "function"
    },
    {
      "inputs": [
        {
          "internalType": "address",
          "name": "newOwner",
          "type": "address"
        }
      ],
      "name": "transferOwnership",
      "outputs": [],
      "stateMutability": "nonpayable",
      "type": "function"
    },
    {
      "inputs": [
        {
          "internalType": "address",
          "name": "provider",
          "type": "address"
        }
      ],
      "name": "whitelist",
      "outputs": [],
      "stateMutability": "nonpayable",
      "type": "function"
    },
    {
      "inputs": [
        {
          "internalType": "Currency",
          "name": "currency",
          "type": "address"
        },
        {
          "internalType": "address",
          "name": "to",
          "type": "address"
        },
        {
          "internalType": "uint256",
          "name": "amount",
          "type": "uint256"
        }
      ],
      "name": "withdraw",
      "outputs": [],
      "stateMutability": "nonpayable",
      "type": "function"
    },
    {
      "stateMutability": "payable",
      "type": "receive"
    }
  ],
  "bytecode": "0x61016060405234801562000011575f80fd5b5060405162005c3338038062005c338339810160408190526200003491620003b1565b6040805180820190915260018152601960f91b60208201528290829082818a82855f62000062838262000511565b50600162000071828262000511565b5050506001600160a01b038116620000a357604051631e4fbdf760e01b81525f60048201526024015b60405180910390fd5b620000ae816200019d565b50620000bc826007620001bb565b61012052620000cd816008620001bb565b61014052815160208084019190912060e052815190820120610100524660a0526200015a60e05161010051604080517f8b73c3c69bb8fe3d512ecc4cf759cc79239f7b179b0ffacaa9a75d522b39400f60208201529081019290925260608201524660808201523060a08201525f9060c00160405160208183030381529060405280519060200120905090565b60805250503060c05250620001739150869050620001f3565b600a62000181858262000511565b50600b62000190848262000511565b5050505050505062000635565b600680546001600160a01b0319169055620001b8816200023c565b50565b5f602083511015620001da57620001d2836200028d565b9050620001ed565b81620001e7848262000511565b5060ff90505b92915050565b600c80546001600160a01b0319166001600160a01b0383169081179091556040517fef673bbfc2ac7e4d4b810bffda0b15a1f2b48c2aa4d178d3fca87d0d1f337062905f90a250565b600580546001600160a01b038381166001600160a01b0319831681179093556040519116919082907f8be0079c531659141344cd1fd0a4f28419497f9722a3daafe3b4186f6b6457e0905f90a35050565b5f80829050601f81511115620002ba578260405163305a27a960e01b81526004016200009a9190620005dd565b8051620002c78262000611565b179392505050565b80516001600160a01b0381168114620002e6575f80fd5b919050565b634e487b7160e01b5f52604160045260245ffd5b5f5b838110156200031b57818101518382015260200162000301565b50505f910152565b5f82601f83011262000333575f80fd5b81516001600160401b0380821115620003505762000350620002eb565b604051601f8301601f19908116603f011681019082821181831017156200037b576200037b620002eb565b8160405283815286602085880101111562000394575f80fd5b620003a7846020830160208901620002ff565b9695505050505050565b5f805f805f8060c08789031215620003c7575f80fd5b620003d287620002cf565b9550620003e260208801620002cf565b60408801519095506001600160401b0380821115620003ff575f80fd5b6200040d8a838b0162000323565b9550606089015191508082111562000423575f80fd5b620004318a838b0162000323565b9450608089015191508082111562000447575f80fd5b620004558a838b0162000323565b935060a08901519150808211156200046b575f80fd5b506200047a89828a0162000323565b9150509295509295509295565b600181811c908216806200049c57607f821691505b602082108103620004bb57634e487b7160e01b5f52602260045260245ffd5b50919050565b601f8211156200050c57805f5260205f20601f840160051c81016020851015620004e85750805b601f840160051c820191505b8181101562000509575f8155600101620004f4565b50505b505050565b81516001600160401b038111156200052d576200052d620002eb565b62000545816200053e845462000487565b84620004c1565b602080601f8311600181146200057b575f8415620005635750858301515b5f19600386901b1c1916600185901b178555620005d5565b5f85815260208120601f198616915b82811015620005ab578886015182559484019460019091019084016200058a565b5085821015620005c957878501515f19600388901b60f8161c191681555b505060018460011b0185555b505050505050565b602081525f8251806020840152620005fd816040850160208701620002ff565b601f01601f19169190910160400192915050565b80516020808301519190811015620004bb575f1960209190910360031b1b16919050565b60805160a05160c05160e0516101005161012051610140516155ac620006875f395f61330d01525f6132e001525f612e6a01525f612e4201525f612d9d01525f612dc701525f612df101526155ac5ff3fe608060405260043610610344575f3560e01c80637ac2ff7b116101bd578063cdc92f2d116100f2578063e8a3d48511610092578063f2fde38b1161006d578063f2fde38b14610b88578063f86a11b314610ba7578063fcc8fc9b14610bc6578063fefc7c5114610be5575f80fd5b8063e8a3d48514610b37578063e985e9c514610b4b578063f035079914610b6a575f80fd5b8063d83747e8116100cd578063d83747e814610abd578063d9caed1214610adc578063de4478ec14610afb578063e30c397814610b1a575f80fd5b8063cdc92f2d146109cc578063d09ef241146109eb578063d68f4dd114610a46575f80fd5b80639b22917d1161015d578063a179dadc11610138578063a179dadc1461093d578063a22cb4651461096f578063b88d4fde1461098e578063c87b56dd146109ad575f80fd5b80639b22917d146108235780639ca17998146108ff578063a12ef25e1461091e575f80fd5b806393c85a211161019857806393c85a21146107a657806395d89b41146107d15780639611cf6c146107e55780639b19251a14610804575f80fd5b80637ac2ff7b1461074357806384b0196e146107625780638da5cb5b14610789575f80fd5b80633af32abf116102935780636352211e116102335780636c0360eb1161020e5780636c0360eb146106e857806370a08231146106fc578063715018a61461071b57806379ba50971461072f575f80fd5b80636352211e146106975780636a256b29146106b65780636b2cc75c146106c9575f80fd5b806341a8bb881161026e57806341a8bb88146105e957806342842e0e146106205780634c02bf0b1461063f57806355af6a3214610678575f80fd5b80633af32abf146105665780633b9500b0146105945780633e547b06146105b3575f80fd5b80631dbef488116102fe5780632f584a6d116102d95780632f584a6d146104e157806330adf81f146105005780633644e5151461053357806338926b6d14610547575f80fd5b80631dbef488146104575780631ff63f931461048b57806323b872dd146104c2575f80fd5b806301ffc9a71461034f57806306fdde0314610383578063081812fc146103a4578063095ea7b3146103db578063141a468c146103fc57806314d6a9eb14610438575f80fd5b3661034b57005b5f80fd5b34801561035a575f80fd5b5061036e61036936600461453a565b610c04565b60405190151581526020015b60405180910390f35b34801561038e575f80fd5b50610397610c2e565b60405161037a91906145a2565b3480156103af575f80fd5b506103c36103be3660046145b4565b610cbd565b6040516001600160a01b03909116815260200161037a565b3480156103e6575f80fd5b506103fa6103f53660046145df565b610ce4565b005b348015610407575f80fd5b5061042a6104163660046145b4565b5f9081526009602052604090205460a01c90565b60405190815260200161037a565b348015610443575f80fd5b5061042a61045236600461464d565b610cf3565b348015610462575f80fd5b506104766104713660046146a2565b610f2e565b6040805192835260208301919091520161037a565b348015610496575f80fd5b506104aa6104a53660046146f0565b611302565b6040516001600160c01b03909116815260200161037a565b3480156104cd575f80fd5b506103fa6104dc36600461470a565b611315565b3480156104ec575f80fd5b506103fa6104fb36600461470a565b61139e565b34801561050b575f80fd5b5061042a7f49ecf333e5b8c95c40fdafc95c1ad136e8914a8fb55e9dc8bb01eaa83a2df9ad81565b34801561053e575f80fd5b5061042a6113ae565b348015610552575f80fd5b5061042a610561366004614748565b6113bc565b348015610571575f80fd5b5061036e610580366004614776565b600f6020525f908152604090205460ff1681565b34801561059f575f80fd5b506104766105ae366004614791565b611762565b3480156105be575f80fd5b5061042a6105cd3660046147b4565b601060209081525f928352604080842090915290825290205481565b3480156105f4575f80fd5b50610608610603366004614812565b611a28565b6040516001600160401b03909116815260200161037a565b34801561062b575f80fd5b506103fa61063a36600461470a565b611a50565b34801561064a575f80fd5b50604080515f805160206154578339815191525c6001600160801b038116825260801c60208201520161037a565b348015610683575f80fd5b5061036e610692366004614843565b611a6a565b3480156106a2575f80fd5b506103c36106b13660046145b4565b611a99565b61042a6106c4366004614776565b611aa3565b3480156106d4575f80fd5b506103fa6106e3366004614776565b611b09565b3480156106f3575f80fd5b50610397611b59565b348015610707575f80fd5b5061042a610716366004614776565b611be5565b348015610726575f80fd5b506103fa611c2a565b34801561073a575f80fd5b506103fa611c3d565b34801561074e575f80fd5b506103fa61075d36600461485c565b611c81565b34801561076d575f80fd5b50610776611e98565b60405161037a97969594939291906148b9565b348015610794575f80fd5b506005546001600160a01b03166103c3565b3480156107b1575f80fd5b5061042a6107c0366004614776565b600d6020525f908152604090205481565b3480156107dc575f80fd5b50610397611eda565b3480156107f0575f80fd5b5061042a6107ff3660046147b4565b611ee9565b34801561080f575f80fd5b506103fa61081e366004614776565b611efd565b34801561082e575f80fd5b506108f261083d366004614843565b6040805160c0810182525f80825260208201819052918101829052606081018290526080810182905260a0810191909152506001600160c01b03165f908152600e6020908152604091829020825160c08101845281546001600160a01b0380821683526001600160401b03600160a01b92839004169483019490945260018301548085169583019590955262ffffff94819004851660608301526002909201549283166080820152910490911660a082015290565b60405161037a91906149ac565b34801561090a575f80fd5b506103976109193660046149ba565b611f50565b348015610929575f80fd5b5061042a6109383660046147b4565b612032565b348015610948575f80fd5b5061095c610957366004614812565b6120e9565b60405160029190910b815260200161037a565b34801561097a575f80fd5b506103fa6109893660046149f1565b61210a565b348015610999575f80fd5b506103fa6109a8366004614a8b565b612115565b3480156109b8575f80fd5b506103976109c73660046145b4565b61212c565b3480156109d7575f80fd5b5061095c6109e6366004614843565b612190565b3480156109f6575f80fd5b50610a0a610a053660046145b4565b6121b0565b6040805182516001600160a01b031681526020808401516001600160401b0390811691830191909152928201519092169082015260600161037a565b348015610a51575f80fd5b50610a9d610a603660046145b4565b6002025f8051602061543783398151915281015c917f722b431450ce53c44434ec138439e45a0639fe031b803ee019b776fae5cfa2b29091015c90565b604080516001600160a01b0393841681529290911660208301520161037a565b348015610ac8575f80fd5b50600c546103c3906001600160a01b031681565b348015610ae7575f80fd5b506103fa610af636600461470a565b6122d9565b348015610b06575f80fd5b506103fa610b15366004614776565b61233f565b348015610b25575f80fd5b506006546001600160a01b03166103c3565b348015610b42575f80fd5b50610397612350565b348015610b56575f80fd5b5061036e610b653660046147b4565b61235d565b348015610b75575f80fd5b5061042a610b843660046145b4565b5490565b348015610b93575f80fd5b506103fa610ba2366004614776565b61238a565b348015610bb2575f80fd5b50610397610bc1366004614b32565b6123fb565b348015610bd1575f80fd5b5061036e610be0366004614843565b612476565b348015610bf0575f80fd5b506103fa610bff366004614b52565b612496565b5f6001600160e01b03198216636831a4fd60e01b1480610c285750610c28826127c6565b92915050565b60605f8054610c3c90614b88565b80601f0160208091040260200160405190810160405280929190818152602001828054610c6890614b88565b8015610cb35780601f10610c8a57610100808354040283529160200191610cb3565b820191905f5260205f20905b815481529060010190602001808311610c9657829003601f168201915b5050505050905090565b5f610cc782612815565b505f828152600360205260409020546001600160a01b0316610c28565b610cef82823361284d565b5050565b5f610cfd3361285a565b610d1e610d1685355f9081526009602052604090205490565b3386356128d8565b8335604090811c5f908152600e602090815290829020825160c08101845281546001600160a01b0380821683526001600160401b03600160a01b92839004169483019490945260018301548085169583019590955262ffffff9481900485166060830152600283015493841660808301819052930490931660a08401529190610da99087878761293c565b5f8073__$5a2ea6afd4f7634e810a44a1cab25e81c7$__633ac502c1858a35610dd860408d0160208e01614bce565b6040516001600160e01b031960e086901b168152600481019390935260248301919091526001600160401b031660448201526064016040805180830381865af4158015610e27573d5f803e3d5ffd5b505050506040513d601f19601f82011682018060405250810190610e4b9190614be9565b9150915082602001516001600160401b0316826001600160401b0316029450610e7d836060015162ffffff1660171c90565b15610ea15760608301515f90610e9a9062ffffff168760016129ac565b9590950194505b806001600160401b03165f03610ebb57610ebb8835612a2e565b610ec9836040015186612a66565b6040516001600160401b03831681528835907f0c6ba7ef5064094c17cce013aa4c617a23e2582f867774d07a5931de43b85d729060200160405180910390a26080830151610f23906001600160a01b031689848a8a612aad565b505050509392505050565b5f80610f393361285a565b5f610f4c61012087016101008801614776565b6001600160a01b031614158015610f915750600f5f610f7361012088016101008901614776565b6001600160a01b0316815260208101919091526040015f205460ff16155b15610fd257610fa861012086016101008701614776565b604051639627159960e01b81526001600160a01b0390911660048201526024015b60405180910390fd5b610fed610fe560e0870160c08801614c16565b60020b612b26565b5f61100561100036889003880188614ce8565b612b69565b6001600160c01b0381165f908152600e6020526040902090915061102881612ba4565b61105d61103a36899003890189614d02565b878761104c60a08c0160808d01614776565b6001600160a01b0316929190612bd3565b5f73__$5a2ea6afd4f7634e810a44a1cab25e81c7$__63ffa0afb58361108960e08c0160c08d01614c16565b61109a6101008d0160e08e01614bce565b6110ac6101208e016101008f01614776565b6040516001600160e01b031960e087901b168152600481019490945260029290920b60248401526001600160401b031660448301526001600160a01b03166064820152608401602060405180830381865af415801561110d573d5f803e3d5ffd5b505050506040513d601f19601f820116820180604052508101906111319190614d83565b90506111638361114760e08b0160c08c01614c16565b60409190911b60289190911b67ffffff00000000001601820190565b94505f61117660408a0160208b01614bce565b6001600160401b03166111906101008b0160e08c01614bce565b6001600160401b03160294508490506111bd6111b260808b0160608c01614da7565b62ffffff1660171c90565b156111e8576111e3855f6111d760808d0160608e01614da7565b62ffffff1691906129ac565b019350835b6112096111fb60608b0160408c01614776565b61120483614dd4565b612a66565b6112133387612c01565b336001600160c01b0385167f251db4df45fa692f68b4e3f072919384c5b71995c71bf22888385168930fd22a61124f60e08d0160c08e01614c16565b858d60e00160208101906112639190614bce565b8e6101000160208101906112779190614776565b6040805160029590950b855264ffffffffff9390931660208501526001600160401b0391909116838301526001600160a01b03166060830152519081900360800190a36112f66112cc368b90038b018b614d02565b878a8a8d5f0160800160208101906112e49190614776565b6001600160a01b031693929190612c62565b50505050935093915050565b5f610c2861100036849003840184614ce8565b6001600160a01b03821661133e57604051633250574960e11b81525f6004820152602401610fc9565b5f61134a838333612c92565b9050836001600160a01b0316816001600160a01b031614611398576040516364283d7b60e01b81526001600160a01b0380861660048301526024820184905282166044820152606401610fc9565b50505050565b6113a98383836128d8565b505050565b5f6113b7612d91565b905090565b5f6113c63361285a565b5f848152600960205260409020546113df9033866128d8565b604084811c5f908152600e602090815290829020825160c08101845281546001600160a01b0380821683526001600160401b03600160a01b92839004169483019490945260018301548085169583019590955262ffffff94819004851660608301526002830154938416608083018190529304841660a0820152602888901c9093169264ffffffffff88169261147790898989612eba565b60405163c49d262160e01b815260048101839052600285900b602482015264ffffffffff841660448201525f9073__$5a2ea6afd4f7634e810a44a1cab25e81c7$__9063c49d262190606401602060405180830381865af41580156114de573d5f803e3d5ffd5b505050506040513d601f19601f820116820180604052508101906115029190614dee565b60208301519091505f9081906001600160401b0380851691160261152b600289900b8284612ee8565b606086015160a0870151919a509061154862ffffff821660171c90565b156115655761155e62ffffff82168460016129ac565b9450611579565b61157662ffffff82168c60016129ac565b93505b6115888262ffffff1660171c90565b156115af5761159e62ffffff83168460016129ac565b6115a89086614e09565b94506115fb565b5f6115c062ffffff84168d836129ac565b90506115cc8186614e09565b94505f81136115ed576115de81614dd4565b6115e8908d614e30565b6115f7565b6115f7818d614e43565b9b50505b505f915061160c9050868989612f12565b80519091506001600160a01b03811661162d5750600c546001600160a01b03165b5f84131561167e5761163e84612f65565b6001600160a01b038083165f9081526010602090815260408083208b82015190941683529290529081208054909190611678908490614e30565b90915550505b5f8313156116cd5761168f83612f65565b6001600160a01b038083165f9081526010602090815260408083208b51909416835292905290812080549091906116c7908490614e30565b90915550505b81602001516001600160401b03165f036116ea576116ea8d612a2e565b85516116f9906112048c612f8e565b6040516001600160401b03861681528d907ffc7df80a30ee916cc040221cf6fcfb3c6dc994b3fa4c4ab23e8a0f134de5c0c09060200160405180910390a26080860151611752906001600160a01b03168e878f8f612fba565b5050505050505050509392505050565b5f8061176d3361285a565b611780610fe560e0870160c08801614c16565b5f61179361100036889003880188614ce8565b6001600160c01b0381165f908152600e602052604090209091506117b681612ba4565b6117eb6117c836899003890189614e56565b87876117da60a08c0160808d01614776565b6001600160a01b0316929190612fea565b5f73__$5a2ea6afd4f7634e810a44a1cab25e81c7$__63a151a7e18361181760e08c0160c08d01614c16565b6118286101008d0160e08e01614bce565b6040516001600160e01b031960e086901b168152600481019390935260029190910b60248301526001600160401b03166044820152606401602060405180830381865af415801561187b573d5f803e3d5ffd5b505050506040513d601f19601f8201168201806040525081019061189f9190614dee565b90506118b16040890160208a01614bce565b6001600160401b0382811691160294506118e18560016118d760e08c0160c08d01614c16565b60020b9190612ee8565b9350845f6118ee86612f8e565b90506119036111b260c08c0160a08d01614da7565b156119315761191d875f6111d760c08e0160a08f01614da7565b6119279083614ec3565b9150819650611956565b611946865f6111d760c08e0160a08f01614da7565b6119509082614e09565b90508095505b61196f61196960608c0160408d01614776565b83612a66565b61197f6111fb60208c018c614776565b336001600160c01b0386167fc4c20b9c4a5ada3b01b7a391a08dd81a1be01dd8ef63170dd9da44ecee3db11b6119bb60e08e0160c08f01614c16565b6040805160029290920b82526001600160401b03881660208301520160405180910390a3611a1b6119f1368c90038c018c614e56565b848b8b8e5f016080016020810190611a099190614776565b6001600160a01b031693929190613018565b5050505050935093915050565b6001600160c01b0382165f908152600e60205260408120611a499083613048565b9392505050565b6113a983838360405180602001604052805f815250612115565b6001600160c01b0381165f908152600e6020526040812054600160a01b90046001600160401b03161515610c28565b5f610c2882612815565b5f611aad3361285a565b6001600160a01b0382165f818152600d602052604090205490611acf9061307d565b6001600160a01b0384165f908152600d60205260409020819055611af4908290614e43565b9150611b038361120484612f8e565b50919050565b611b116130fe565b6001600160a01b0381165f818152600f6020526040808220805460ff19169055517f88f58aa68e1f754fecfec41a6758d18d4a53fa15d4e206fd54bbdfe7a9e98da79190a250565b600a8054611b6690614b88565b80601f0160208091040260200160405190810160405280929190818152602001828054611b9290614b88565b8015611bdd5780601f10611bb457610100808354040283529160200191611bdd565b820191905f5260205f20905b815481529060010190602001808311611bc057829003601f168201915b505050505081565b5f6001600160a01b038216611c0f576040516322718ad960e21b81525f6004820152602401610fc9565b506001600160a01b03165f9081526002602052604090205490565b611c326130fe565b611c3b5f61312b565b565b60065433906001600160a01b03168114611c755760405163118cdaa760e01b81526001600160a01b0382166004820152602401610fc9565b611c7e8161312b565b50565b83421115611ca25760405163068568f360e21b815260040160405180910390fd5b5f611d1f7f49ecf333e5b8c95c40fdafc95c1ad136e8914a8fb55e9dc8bb01eaa83a2df9ad8888611cd281613144565b6040805160208101959095526001600160a01b03909316928401929092526060830152608082015260a0810187905260c0016040516020818303038152906040528051906020012061317d565b90505f611d2b87611a99565b9050806001600160a01b0316886001600160a01b031603611d5f57604051638baa579f60e01b815260040160405180910390fd5b6001600160a01b0381163b15611e4457604080516020810186905280820185905260f887901b6001600160f81b0319166060820152815160418183030181526061820192839052630b135d3f60e11b9092526001600160a01b03831691631626ba7e91611dd0918691606501614ee2565b602060405180830381865afa158015611deb573d5f803e3d5ffd5b505050506040513d601f19601f82011682018060405250810190611e0f9190614efa565b6001600160e01b031916631626ba7e60e01b14611e3f57604051638baa579f60e01b815260040160405180910390fd5b611e81565b806001600160a01b0316611e5a838787876131a9565b6001600160a01b031614611e8157604051638baa579f60e01b815260040160405180910390fd5b611e8e88888360016131d5565b5050505050505050565b5f6060805f805f6060611ea96132d9565b611eb1613306565b604080515f80825260208201909252600f60f81b9b939a50919850469750309650945092509050565b606060018054610c3c90614b88565b5f611a4983836014525f526028600c205c90565b611f056130fe565b6001600160a01b0381165f818152600f6020526040808220805460ff19166001179055517feb73900b98b6a3e2b8b01708fe544760cf570d21e7fbe5225f24e48b5b2b432e9190a250565b6060611f5c8433613333565b604051630571ebed60e21b81526001600160a01b038516906315c7afb490611f8c90339087908790600401614f3d565b5f604051808303815f875af1158015611fa7573d5f803e3d5ffd5b505050506040513d5f823e601f3d908101601f19168201604052611fce9190810190614f61565b9050611fd8613380565b5f805160206154578339815191525c6001600160801b0381169060801c8115801561200b57506001600160801b03811615155b1561202957604051635212cba160e01b815260040160405180910390fd5b50509392505050565b335f9081526010602090815260408083206001600160a01b03851684528252808320805490849055600d9092528220805491928392612072908490614e43565b9091555061208c90506001600160a01b03831684836133e2565b816001600160a01b0316836001600160a01b0316336001600160a01b03167f1c4f94f28cc9152354d4b98b8614b28c6c828a98d88228fa9577c7b9475e120c846040516120db91815260200190565b60405180910390a492915050565b6001600160c01b0382165f908152600e60205260408120611a499083613474565b610cef338383613482565b612120848484611315565b61139884848484613520565b606061213782612815565b505f61214161363f565b90505f81511161215f5760405180602001604052805f815250611a49565b806121698461364e565b60405160200161217a929190614fc9565b6040516020818303038152906040529392505050565b6001600160c01b0381165f908152600e60205260408120610c28906136dd565b604080516060810182525f808252602080830182905282840182905284841c808352600e909152928120919291602885901c62ffffff169164ffffffffff861691906121fd828585612f12565b60405163329b4a0160e01b815260048101849052600286900b602482015264ffffffffff851660448201529091505f9073__$5a2ea6afd4f7634e810a44a1cab25e81c7$__9063329b4a0190606401602060405180830381865af4158015612267573d5f803e3d5ffd5b505050506040513d601f19601f8201168201806040525081019061228b9190614dee565b90506040518060600160405280835f01516001600160a01b03168152602001828460200151036001600160401b03168152602001826001600160401b03168152509650505050505050919050565b6122e23361285a565b80156113a9576122fe836122f583612f8e565b61120490614dd4565b6001600160a01b0383165f908152600d602052604081208054839290612325908490614e43565b909155506113a990506001600160a01b03841683836133e2565b6123476130fe565b611c7e816136ea565b600b8054611b6690614b88565b6001600160a01b039182165f90815260046020908152604080832093909416825291909152205460ff1690565b6123926130fe565b600680546001600160a01b0383166001600160a01b031990911681179091556123c36005546001600160a01b031690565b6001600160a01b03167f38d16b8cac22d99fc7c124b9cd0de2d3fa1faef420bfe791d8c362d765e2270060405160405180910390a350565b6060612408826020614ff7565b6001600160401b0381111561241f5761241f614a21565b6040519080825280601f01601f191660200182016040528015612449576020820181803683370190505b5090505f5b8281101561246f57808401546020600183010283015260018101905061244e565b5092915050565b6001600160c01b0381165f908152600e60205260408120610c2890613733565b61249f3361285a565b6124af6040840160208501614bce565b6001600160401b03165f036124d75760405163af6c36ab60e01b815260040160405180910390fd5b5f6124e86080850160608601614da7565b90505f6124fb60c0860160a08701614da7565b905061250b8262ffffff16613740565b801561252057506125208162ffffff16613740565b61253d57604051637a34030f60e01b815260040160405180910390fd5b5f61254c8262ffffff1661376f565b61255a8462ffffff1661376f565b0160020b121561257d57604051637a34030f60e01b815260040160405180910390fd5b5f61258c8362ffffff1661376f565b60020b12806125aa57505f6125a58262ffffff1661376f565b60020b125b156125ef576125be8162ffffff1660171c90565b15156125cf8362ffffff1660171c90565b1515146125ef57604051637a34030f60e01b815260040160405180910390fd5b5f61260060a0870160808801614776565b9050612614816001600160a01b031661377d565b61263c57604051630732d7b560e51b81526001600160a01b0382166004820152602401610fc9565b61266061264e36889003880188614ce8565b6001600160a01b0383169087876137a5565b5f61267361100036899003890189614ce8565b6001600160c01b0381165f908152600e602052604090819020905163ab8a7e3f60e01b815291925073__$5a2ea6afd4f7634e810a44a1cab25e81c7$__9163ab8a7e3f916126c5918b9060040161500e565b5f6040518083038186803b1580156126db575f80fd5b505af41580156126ed573d5f803e3d5ffd5b50612702925050506060880160408901614776565b6001600160a01b03166127186020890189614776565b6001600160a01b03166001600160c01b0383167f803427d75ce3214f82dc7aa4910635170a6655e2c1663dc03429dd04100cba5a61275c60408c0160208d01614bce565b604080516001600160401b03909216825262ffffff808b1660208401528916908201526001600160a01b038716606082015260800160405180910390a46127bd6127ab36899003890189614ce8565b6001600160a01b0384169088886137d3565b50505050505050565b5f6001600160e01b031982166380ac58cd60e01b14806127f657506001600160e01b03198216635b5e139f60e01b145b80610c2857506301ffc9a760e01b6001600160e01b0319831614610c28565b5f818152600960205260408120546001600160a01b038116610c2857604051637e27328960e01b815260048101849052602401610fc9565b6113a983838360016131d5565b5f612863613801565b90505f61286e613841565b9050816001600160a01b0316836001600160a01b03160361288e57505050565b806001600160a01b0316836001600160a01b0316036128ac57505050565b6040516374d8636560e01b81526001600160a01b03808416600483015282166024820152604401610fc9565b6128e383838361387c565b6113a9576001600160a01b03831661291157604051637e27328960e01b815260048101829052602401610fc9565b60405163177e802f60e01b81526001600160a01b038316600482015260248101829052604401610fc9565b600160991b8416156113985761139863295b52c560e01b3385858560405160240161296a94939291906150dd565b60408051601f198184030181529190526020810180516001600160e01b03166001600160e01b0319909316929092179091526001600160a01b038616906138dd565b5f806129b78561376f565b90505f808260020b1390505f816129d057825f036129d2565b825b62ffffff1690505f612a0b6129e78389614ff7565b620f4240886129fd578581830615151691040190565b808206151586151691040190565b905082612a2057612a1b81614dd4565b612a22565b805b98975050505050505050565b5f612a3a5f835f612c92565b90506001600160a01b038116610cef57604051637e27328960e01b815260048101839052602401610fc9565b805f03612a71575050565b5f612a7a613801565b90505f612a88828585613921565b9050805f03612a9e57612a9961393f565b611398565b82810361139857611398613965565b600160981b851615612b1f57612b1f635125ce9c60e01b3386868686604051602401612add95949392919061510c565b60408051601f198184030181529190526020810180516001600160e01b03166001600160e01b0319909316929092179091526001600160a01b038716906138dd565b5050505050565b6207ffff600282900b1380612b4b5750612b426207ffff615155565b60020b8160020b125b15611c7e576040516333a3bdff60e21b815260040160405180910390fd5b5f8082604051602001612b7c91906149ac565b60408051601f1981840301815291905280516020909101206001600160c01b03169392505050565b8054600160a01b90046001600160401b0316611c7e57604051630f1b1b7360e11b815260040160405180910390fd5b6001609d1b84161561139857611398633fda46bb60e01b3385858560405160240161296a94939291906151b6565b6001600160a01b038216612c2a57604051633250574960e11b81525f6004820152602401610fc9565b5f612c3683835f612c92565b90506001600160a01b038116156113a9576040516339e3563760e11b81525f6004820152602401610fc9565b6001609c1b851615612b1f57612b1f63eba8155960e01b3386868686604051602401612add9594939291906151e7565b5f828152600960205260408120546001600160a01b03831615612cba57612cba8184866128d8565b6001600160a01b03811615612cf457612cd55f855f806131d5565b6001600160a01b0381165f90815260026020526040902080545f190190555b6001600160a01b03851615612d22576001600160a01b0385165f908152600260205260409020805460010190555b5f84815260096020526040902080546001600160a01b0319166001600160a01b03871617905583856001600160a01b0316826001600160a01b03167fddf252ad1be2c89b69c2b068fc378daa952ba7f163c4a11628f55a4df523b3ef60405160405180910390a4949350505050565b5f306001600160a01b037f000000000000000000000000000000000000000000000000000000000000000016148015612de957507f000000000000000000000000000000000000000000000000000000000000000046145b15612e1357507f000000000000000000000000000000000000000000000000000000000000000090565b6113b7604080517f8b73c3c69bb8fe3d512ecc4cf759cc79239f7b179b0ffacaa9a75d522b39400f60208201527f0000000000000000000000000000000000000000000000000000000000000000918101919091527f000000000000000000000000000000000000000000000000000000000000000060608201524660808201523060a08201525f9060c00160405160208183030381529060405280519060200120905090565b600160971b8416156113985761139863827e0eb260e01b3385858560405160240161296a949392919061521f565b5f612f0a606084901b612efd8660020b61398b565b8082061515851691040190565b949350505050565b604080518082019091525f8082526020820152612f30848484613c35565b6040805180820190915290546001600160a01b0381168252600160a01b90046001600160401b03166020820152949350505050565b5f80821215612f8a57604051635467221960e11b815260048101839052602401610fc9565b5090565b5f6001600160ff1b03821115612f8a5760405163123baf0360e11b815260048101839052602401610fc9565b600160961b851615612b1f57612b1f6348042cf460e01b3386868686604051602401612add959493929190615246565b6001609b1b8416156113985761139863fab3c75660e01b3385858560405160240161296a94939291906152a9565b6001609a1b851615612b1f57612b1f639eb477b260e01b3386868686604051602401612add9594939291906152da565b5f6130566005840183613c76565b600283900b5f908152600385016020526040902061307390613cb7565b611a49919061531b565b5f6001600160a01b038216613093575047919050565b6040516370a0823160e01b81523060048201526001600160a01b038316906370a0823190602401602060405180830381865afa1580156130d5573d5f803e3d5ffd5b505050506040513d601f19601f82011682018060405250810190610c28919061533b565b919050565b6005546001600160a01b03163314611c3b5760405163118cdaa760e01b8152336004820152602401610fc9565b600680546001600160a01b0319169055611c7e81613cf6565b5f8181526009602052604090205460a081901c9061316681600160a01b614e30565b5f9384526009602052604090932092909255919050565b5f610c28613189612d91565b8360405161190160f01b8152600281019290925260228201526042902090565b5f805f806131b988888888613d47565b9250925092506131c98282613e0f565b50909695505050505050565b80806131e957506001600160a01b03821615155b156132aa575f6131f884612815565b90506001600160a01b038316158015906132245750826001600160a01b0316816001600160a01b031614155b80156132375750613235818461235d565b155b156132605760405163a9fbf51f60e01b81526001600160a01b0384166004820152602401610fc9565b81156132a85783856001600160a01b0316826001600160a01b03167f8c5be1e5ebec7d5bd14f71427d1e84f3dd0314c0f7b2291e5b200ac8c7c3b92560405160405180910390a45b505b50505f90815260036020526040902080546001600160a01b0319166001600160a01b0392909216919091179055565b60606113b77f00000000000000000000000000000000000000000000000000000000000000006007613ec7565b60606113b77f00000000000000000000000000000000000000000000000000000000000000006008613ec7565b5f805160206154578339815191525c5f8051602061543783398151915260026001600160801b038316020183815d82600182015d50600181015f805160206154578339815191525d505050565b5f805160206154578339815191525c6001600160801b038116806133ab5763f1c77ed05f526004601cfd5b5f805160206154378339815191525f19909101600202015f815d5f600182015d50600181035f805160206154578339815191525d50565b5f6001600160a01b038416613419575f805f8085875af1905080612a9957604051633d2cec6f60e21b815260040160405180910390fd5b60405163a9059cbb60e01b81526001600160a01b038416600482015282602482015260205f6044835f895af13d15601f3d1160015f51141617169150508061139857604051633c9fd93960e21b815260040160405180910390fd5b5f611a496004840183613f70565b6001600160a01b0382166134b457604051630b61174360e31b81526001600160a01b0383166004820152602401610fc9565b6001600160a01b038381165f81815260046020908152604080832094871680845294825291829020805460ff191686151590811790915591519182527f17307eab39ab6107e8899845ad3d59bd9653f200f220920489ca2b5937696c31910160405180910390a3505050565b6001600160a01b0383163b1561139857604051630a85bd0160e11b81526001600160a01b0384169063150b7a0290613562903390889087908790600401615352565b6020604051808303815f875af192505050801561359c575060408051601f3d908101601f1916820190925261359991810190614efa565b60015b613603573d8080156135c9576040519150601f19603f3d011682016040523d82523d5f602084013e6135ce565b606091505b5080515f036135fb57604051633250574960e11b81526001600160a01b0385166004820152602401610fc9565b805181602001fd5b6001600160e01b03198116630a85bd0160e11b14612b1f57604051633250574960e11b81526001600160a01b0385166004820152602401610fc9565b6060600a8054610c3c90614b88565b60605f61365a8361409e565b60010190505f816001600160401b0381111561367857613678614a21565b6040519080825280601f01601f1916602001820160405280156136a2576020820181803683370190505b5090508181016020015b5f19016f181899199a1a9b1b9c1cb0b131b232b360811b600a86061a8153600a85049450846136ac57509392505050565b5f610c2882600401614175565b600c80546001600160a01b0319166001600160a01b0383169081179091556040517fef673bbfc2ac7e4d4b810bffda0b15a1f2b48c2aa4d178d3fca87d0d1f337062905f90a250565b5f610c2882600401614247565b5f8061374b8361376f565b90506207a1208160020b138061376757506207a11f198160020b125b159392505050565b627fffff166207a11f190190565b5f6001600160a01b0382161580610c28575050600160961b6001600160a01b03909116101590565b6001609f1b84161561139857611398635df4d91860e01b3385858560405160240161296a9493929190615384565b6001609e1b841615611398576113986371ded94360e01b3385858560405160240161296a9493929190615384565b5f8061380b61428c565b6001600160801b031690505f8111613823575f61383b565b60025f198201025f80516020615437833981519152015c5b91505090565b5f6113b761384d61428c565b6001600160801b03167ffcac7593714b88fec0c578a53e9f3f6e4b47eb26c9dcaa7eff23a3ac156be422015c90565b5f6001600160a01b03831615801590612f0a5750826001600160a01b0316846001600160a01b031614806138b557506138b5848461235d565b80612f0a5750505f908152600360205260409020546001600160a01b03908116911614919050565b5f806138e984846142a7565b91509150816001600160e01b031916816001600160e01b0319161461139857604051631e048e1d60e01b815260040160405180910390fd5b5f82601452835f526028600c2082815c01915081815d509392505050565b600160801b5f805160206154578339815191525c035f805160206154578339815191525d565b600160801b5f805160206154578339815191525c015f805160206154578339815191525d565b5f61399582612b26565b815f600282900b81136139a857816139b1565b6139b182615155565b62ffffff81169150600116156139d5576bfff97272373d413259a4699092506139dd565b600160601b92505b60028116156139fc5760606bfff2e50f5f656932ef12357c8402901c92505b6004811615613a1b5760606bffe5caca7e10e4e61c3624ea8402901c92505b6008811615613a3a5760606bffcb9843d60f6159c9db58838402901c92505b6010811615613a595760606bff973b41fa98c081472e68968402901c92505b6020811615613a785760606bff2ea16466c96a3843ec78b38402901c92505b6040811615613a975760606bfe5dee046a99a2a811c461f18402901c92505b6080811615613ab65760606bfcbe86c7900a88aedcffc83b8402901c92505b610100811615613ad65760606bf987a7253ac413176f2b074c8402901c92505b610200811615613af65760606bf3392b0822b70005940c7a398402901c92505b610400811615613b165760606be7159475a2c29b7443b29c7f8402901c92505b610800811615613b365760606bd097f3bdfd2022b8845ad8f78402901c92505b611000811615613b565760606ba9f746462d870fdf8a65dc1f8402901c92505b612000811615613b765760606b70d869a156d2a1b890bb3df68402901c92505b614000811615613b965760606b31be135f97d08fd9812315058402901c92505b618000811615613bb65760606b09aa508b5b7a84e1c677de548402901c92505b62010000811615613bd65760606a5d6af8dedb81196699c3298402901c92505b62020000811615613bf5576060692216e584f5fa1ea926048402901c92505b62040000811615613c1257606067048a170391f7dc428402901c92505b5f8260020b1315613c2e57613c2b83600160c01b6153b4565b92505b5050919050565b600282900b5f9081526003840160205260408120600401805464ffffffffff8416908110613c6557613c656153d3565b905f5260205f200190509392505050565b600281901c623fffff165f818152602084905260408120549091906003841690600685901b60c0161c6001600160401b031680151590035b95945050505050565b60015f90815260208290526040812054613cd390826004614355565b5f80805260208490526040812054613cec916004614355565b610c2891906153e7565b600580546001600160a01b038381166001600160a01b0319831681179093556040519116919082907f8be0079c531659141344cd1fd0a4f28419497f9722a3daafe3b4186f6b6457e0905f90a35050565b5f80807f7fffffffffffffffffffffffffffffff5d576e7357a4501ddfe92f46681b20a0841115613d8057505f91506003905082613e05565b604080515f808252602082018084528a905260ff891692820192909252606081018790526080810186905260019060a0016020604051602081039080840390855afa158015613dd1573d5f803e3d5ffd5b5050604051601f1901519150506001600160a01b038116613dfc57505f925060019150829050613e05565b92505f91508190505b9450945094915050565b5f826003811115613e2257613e22615407565b03613e2b575050565b6001826003811115613e3f57613e3f615407565b03613e5d5760405163f645eedf60e01b815260040160405180910390fd5b6002826003811115613e7157613e71615407565b03613e925760405163fce698f760e01b815260048101829052602401610fc9565b6003826003811115613ea657613ea6615407565b03610cef576040516335e2f38360e21b815260048101829052602401610fc9565b606060ff8314613ee157613eda83614394565b9050610c28565b818054613eed90614b88565b80601f0160208091040260200160405190810160405280929190818152602001828054613f1990614b88565b8015613f645780601f10613f3b57610100808354040283529160200191613f64565b820191905f5260205f20905b815481529060010190602001808311613f4757829003601f168201915b50505050509050610c28565b62800000811901600881901c61ffff165f81815260208590526040812054909260ff1690600119821b1680840361407257600883901c80195f9081526020889052604081205460011960ff87161b1690819003614048575f8881613ff57f7710c0702d438d37259561c892984b894ff622adfa3d98b5dfe5a9763f94b9546001614e30565b81526020019081526020015f205483600119901b169050805f0361402557627fffff199650505050505050610c28565b61402e816143d1565b60ff1680195f90815260208b905260409020549093509150505b614051816143d1565b60ff16600883901b179450875f8681526020019081526020015f2054925050505b61407b816143d1565b60ff16915062ffffff627fffff19600885901b84170119165b9695505050505050565b5f8072184f03e93ff9f4daa797ed6e38ed64bf6a1f0160401b83106140dc5772184f03e93ff9f4daa797ed6e38ed64bf6a1f0160401b830492506040015b6d04ee2d6d415b85acef81000000008310614108576d04ee2d6d415b85acef8100000000830492506020015b662386f26fc10000831061412657662386f26fc10000830492506010015b6305f5e100831061413e576305f5e100830492506008015b612710831061415257612710830492506004015b60648310614164576064830492506002015b600a8310610c285760010192915050565b5f61417f82614247565b1561419d57604051634f3d7def60e01b815260040160405180910390fd5b5f6141e183826141ce7f7710c0702d438d37259561c892984b894ff622adfa3d98b5dfe5a9763f94b9546001614e30565b81526020019081526020015f20546143d1565b60ff1690505f614201845f841981526020019081526020015f20546143d1565b60ff16600883901b1790505f614226855f8481526020019081526020015f20546143d1565b60ff16905062ffffff627fffff19600884901b831701191695945050505050565b5f81816142757f7710c0702d438d37259561c892984b894ff622adfa3d98b5dfe5a9763f94b9546001614e30565b81526020019081526020015f20545f149050919050565b5f805160206154578339815191525c6001600160801b031690565b5f805f6142b385614447565b9050602084015192505f80866001600160a01b0316866040516142d6919061541b565b5f604051808303815f865af19150503d805f811461430f576040519150601f19603f3d011682016040523d82523d5f602084013e614314565b606091505b50915091508161432757614327816144a1565b8080602001905181019061433b9190614efa565b9350821561434b5761434b6144c2565b5050509250929050565b600682901b9290921c915f825b8281101561438957604085901c946001600160401b03168015019190910190600101614362565b509190039003919050565b60605f6143a0836144fe565b6040805160208082528183019092529192505f91906020820181803683375050509182525060208101929092525090565b5f8082116143dd575f80fd5b5f7e818283848586878898a8b8c8d8e8f929395969799a9b9d9e9faaeb6bedeeff600184190184160260f81c9050604051806101200160405280610100815260200161547761010091398181518110614438576144386153d3565b016020015160f81c9392505050565b5f80614451613841565b6001600160a01b0316036130f9575f61446861428c565b6001600160801b0316905082817ffcac7593714b88fec0c578a53e9f3f6e4b47eb26c9dcaa7eff23a3ac156be422015d50600192915050565b80515f036135fb576040516336bc48c560e01b815260040160405180910390fd5b5f6144cb61428c565b6001600160801b031690505f817ffcac7593714b88fec0c578a53e9f3f6e4b47eb26c9dcaa7eff23a3ac156be422015d50565b5f60ff8216601f811115610c2857604051632cd44ac360e21b815260040160405180910390fd5b6001600160e01b031981168114611c7e575f80fd5b5f6020828403121561454a575f80fd5b8135611a4981614525565b5f5b8381101561456f578181015183820152602001614557565b50505f910152565b5f815180845261458e816020860160208601614555565b601f01601f19169290920160200192915050565b602081525f611a496020830184614577565b5f602082840312156145c4575f80fd5b5035919050565b6001600160a01b0381168114611c7e575f80fd5b5f80604083850312156145f0575f80fd5b82356145fb816145cb565b946020939093013593505050565b5f8083601f840112614619575f80fd5b5081356001600160401b0381111561462f575f80fd5b602083019150836020828501011115614646575f80fd5b9250929050565b5f805f8385036060811215614660575f80fd5b604081121561466d575f80fd5b5083925060408401356001600160401b03811115614689575f80fd5b61469586828701614609565b9497909650939450505050565b5f805f8385036101408112156146b6575f80fd5b610120808212156146c5575f80fd5b85945084013590506001600160401b03811115614689575f80fd5b5f60c08284031215611b03575f80fd5b5f60c08284031215614700575f80fd5b611a4983836146e0565b5f805f6060848603121561471c575f80fd5b8335614727816145cb565b92506020840135614737816145cb565b929592945050506040919091013590565b5f805f6040848603121561475a575f80fd5b8335925060208401356001600160401b03811115614689575f80fd5b5f60208284031215614786575f80fd5b8135611a49816145cb565b5f805f8385036101208112156147a5575f80fd5b610100808212156146c5575f80fd5b5f80604083850312156147c5575f80fd5b82356147d0816145cb565b915060208301356147e0816145cb565b809150509250929050565b80356001600160c01b03811681146130f9575f80fd5b8035600281900b81146130f9575f80fd5b5f8060408385031215614823575f80fd5b61482c836147eb565b915061483a60208401614801565b90509250929050565b5f60208284031215614853575f80fd5b611a49826147eb565b5f805f805f8060c08789031215614871575f80fd5b863561487c816145cb565b95506020870135945060408701359350606087013560ff8116811461489f575f80fd5b9598949750929560808101359460a0909101359350915050565b60ff60f81b881681525f602060e060208401526148d960e084018a614577565b83810360408501526148eb818a614577565b606085018990526001600160a01b038816608086015260a0850187905284810360c0860152855180825260208088019350909101905f5b8181101561493e57835183529284019291840191600101614922565b50909c9b505050505050505050505050565b60018060a01b038082511683526001600160401b036020830151166020840152806040830151166040840152606082015162ffffff80821660608601528260808501511660808601528060a08501511660a08601525050505050565b60c08101610c288284614950565b5f805f604084860312156149cc575f80fd5b83356149d7816145cb565b925060208401356001600160401b03811115614689575f80fd5b5f8060408385031215614a02575f80fd5b8235614a0d816145cb565b9150602083013580151581146147e0575f80fd5b634e487b7160e01b5f52604160045260245ffd5b604051601f8201601f191681016001600160401b0381118282101715614a5d57614a5d614a21565b604052919050565b5f6001600160401b03821115614a7d57614a7d614a21565b50601f01601f191660200190565b5f805f8060808587031215614a9e575f80fd5b8435614aa9816145cb565b93506020850135614ab9816145cb565b92506040850135915060608501356001600160401b03811115614ada575f80fd5b8501601f81018713614aea575f80fd5b8035614afd614af882614a65565b614a35565b818152886020838501011115614b11575f80fd5b816020840160208301375f6020838301015280935050505092959194509250565b5f8060408385031215614b43575f80fd5b50508035926020909101359150565b5f805f60e08486031215614b64575f80fd5b614b6e85856146e0565b925060c08401356001600160401b03811115614689575f80fd5b600181811c90821680614b9c57607f821691505b602082108103611b0357634e487b7160e01b5f52602260045260245ffd5b6001600160401b0381168114611c7e575f80fd5b5f60208284031215614bde575f80fd5b8135611a4981614bba565b5f8060408385031215614bfa575f80fd5b8251614c0581614bba565b60208401519092506147e081614bba565b5f60208284031215614c26575f80fd5b611a4982614801565b803562ffffff811681146130f9575f80fd5b5f60c08284031215614c51575f80fd5b60405160c081018181106001600160401b0382111715614c7357614c73614a21565b6040529050808235614c84816145cb565b81526020830135614c9481614bba565b60208201526040830135614ca7816145cb565b6040820152614cb860608401614c2f565b60608201526080830135614ccb816145cb565b6080820152614cdc60a08401614c2f565b60a08201525092915050565b5f60c08284031215614cf8575f80fd5b611a498383614c41565b5f6101208284031215614d13575f80fd5b604051608081018181106001600160401b0382111715614d3557614d35614a21565b604052614d428484614c41565b8152614d5060c08401614801565b602082015260e0830135614d6381614bba565b6040820152610100830135614d77816145cb565b60608201529392505050565b5f60208284031215614d93575f80fd5b815164ffffffffff81168114611a49575f80fd5b5f60208284031215614db7575f80fd5b611a4982614c2f565b634e487b7160e01b5f52601160045260245ffd5b5f600160ff1b8201614de857614de8614dc0565b505f0390565b5f60208284031215614dfe575f80fd5b8151611a4981614bba565b8082018281125f831280158216821582161715614e2857614e28614dc0565b505092915050565b80820180821115610c2857610c28614dc0565b81810381811115610c2857610c28614dc0565b5f6101008284031215614e67575f80fd5b604051606081018181106001600160401b0382111715614e8957614e89614a21565b604052614e968484614c41565b8152614ea460c08401614801565b602082015260e0830135614eb781614bba565b60408201529392505050565b8181035f83128015838313168383128216171561246f5761246f614dc0565b828152604060208201525f612f0a6040830184614577565b5f60208284031215614f0a575f80fd5b8151611a4981614525565b81835281816020850137505f828201602090810191909152601f909101601f19169091010190565b6001600160a01b03841681526040602082018190525f90613cae9083018486614f15565b5f60208284031215614f71575f80fd5b81516001600160401b03811115614f86575f80fd5b8201601f81018413614f96575f80fd5b8051614fa4614af882614a65565b818152856020838501011115614fb8575f80fd5b613cae826020830160208601614555565b5f8351614fda818460208801614555565b835190830190614fee818360208801614555565b01949350505050565b8082028115828204841417610c2857610c28614dc0565b82815260e081018235615020816145cb565b6001600160a01b039081166020848101919091528401359061504182614bba565b6001600160401b038216604085015260408501359150615060826145cb565b808216606085015261507460608601614c2f565b915062ffffff808316608086015260808601359250615092836145cb565b81831660a0860152806150a760a08801614c2f565b1660c08601525050509392505050565b8035825260208101356150c981614bba565b6001600160401b0381166020840152505050565b6001600160a01b03851681526150f660208201856150b7565b608060608201525f614094608083018486614f15565b6001600160a01b038616815261512560208201866150b7565b6001600160401b038416606082015260a060808201525f61514a60a083018486614f15565b979650505050505050565b5f8160020b627fffff19810361516d5761516d614dc0565b5f0392915050565b615180828251614950565b602081015160020b60c083015260408101516001600160401b031660e0830152606001516001600160a01b031661010090910152565b6001600160a01b03851681525f6101606151d36020840187615175565b8061014084015261514a8184018587614f15565b6001600160a01b03861681525f6101806152046020840188615175565b8561014084015280610160840152612a228184018587614f15565b60018060a01b0385168152836020820152606060408201525f614094606083018486614f15565b60018060a01b03861681528460208201526001600160401b0384166040820152608060608201525f61514a608083018486614f15565b615287828251614950565b602081015160020b60c0830152604001516001600160401b031660e090910152565b6001600160a01b03851681525f6101406152c6602084018761527c565b8061012084015261514a8184018587614f15565b6001600160a01b03861681525f6101606152f7602084018861527c565b6001600160401b03861661012084015280610140840152612a228184018587614f15565b6001600160401b0382811682821603908082111561246f5761246f614dc0565b5f6020828403121561534b575f80fd5b5051919050565b6001600160a01b03858116825284166020820152604081018390526080606082018190525f9061409490830184614577565b6001600160a01b03851681525f6101006153a16020840187614950565b8060e084015261514a8184018587614f15565b5f826153ce57634e487b7160e01b5f52601260045260245ffd5b500490565b634e487b7160e01b5f52603260045260245ffd5b6001600160401b0381811683821601908082111561246f5761246f614dc0565b634e487b7160e01b5f52602160045260245ffd5b5f825161542c818460208701614555565b919091019291505056fe722b431450ce53c44434ec138439e45a0639fe031b803ee019b776fae5cfa2b1760a9a962ae3d184e99c0483cf5684fb3170f47116ca4f445c50209da4f4f9070001020903110a19042112290b311a3905412245134d2a550c5d32651b6d3a7506264262237d468514804e8d2b95569d0d495ea533a966b11c886eb93bc176c9071727374353637324837e9b47af86c7155181ad4fd18ed32c9096db57d59ee30e2e4a6a5f92a6be3498aae067ddb2eb1d5989b56fd7baf33ca0c2ee77e5caf7ff0810182028303840444c545c646c7425617c847f8c949c48a4a8b087b8c0c816365272829aaec650acd0d28fdad4e22d6991bd97dfdcea58b4d6f29fede4f6fe0f1f2f3f4b5b6b607b8b93a3a7b7bf357199c5abcfd9e168bcdee9b3f1ecf5fd1e3e5a7a8aa2b670c4ced8bbe8f0f4fc3d79a1c3cde7effb78cce6facbf9f8a264697066735822122066044ac0cd82968f1efa76d9e4a3a71c00f52e7eb03a0aecea98a0ee9c7648b764736f6c63430008180033",
  "linkReferences": {
    "contracts/libraries/Book.sol": {
      "Book": [
        {
          "length": 20,
          "start": 5172
        },
        {
          "length": 20,
          "start": 5863
        },
        {
          "length": 20,
          "start": 6957
        },
        {
          "length": 20,
          "start": 7797
        },
        {
          "length": 20,
          "start": 10422
        },
        {
          "length": 20,
          "start": 11556
        }
      ]
    }
  },
  "deployedLinkReferences": {
    "contracts/libraries/Book.sol": {
      "Book": [
        {
          "length": 20,
          "start": 3501
        },
        {
          "length": 20,
          "start": 4192
        },
        {
          "length": 20,
          "start": 5286
        },
        {
          "length": 20,
          "start": 6126
        },
        {
          "length": 20,
          "start": 8751
        },
        {
          "length": 20,
          "start": 9885
        }
      ]
    }
  }
}