{
  "_format": "hh-sol-artifact-1",
  "contractName": "BookManager",
  "sourceName": "contracts/BookManager.sol",
  "abi": [
    {
      "inputs": [
        {
          "internalType": "address",
          "name": "owner_",
          "type": "address"
        },
        {
          "internalType": "address",
          "name": "defaultProvider_",
          "type": "address"
        },
        {
          "internalType": "string",
          "name": "baseURI_",
          "type": "string"
        },
        {
          "internalType": "string",
          "name": "contractURI_",
          "type": "string"
        },
        {
          "internalType": "string",
          "name": "name_",
          "type": "string"
        },
        {
          "internalType": "string",
          "name": "symbol_",
          "type": "string"
        }
      ],
      "stateMutability": "nonpayable",
      "type": "constructor"
    },
    {
      "inputs": [],
      "name": "BookNotOpened",
      "type": "error"
    },
    {
      "inputs": [],
      "name": "CurrencyNotSettled",
      "type": "error"
    },
    {
      "inputs": [],
      "name": "ECDSAInvalidSignature",
      "type": "error"
    },
    {
      "inputs": [
        {
          "internalType": "uint256",
          "name": "length",
          "type": "uint256"
        }
      ],
      "name": "ECDSAInvalidSignatureLength",
      "type": "error"
    },
    {
      "inputs": [
        {
          "internalType": "bytes32",
          "name": "s",
          "type": "bytes32"
        }
      ],
      "name": "ECDSAInvalidSignatureS",
      "type": "error"
    },
    {
      "inputs": [],
      "name": "ERC20TransferFailed",
      "type": "error"
    },
    {
      "inputs": [
        {
          "internalType": "address",
          "name": "sender",
          "type": "address"
        },
        {
          "internalType": "uint256",
          "name": "tokenId",
          "type": "uint256"
        },
        {
          "internalType": "address",
          "name": "owner",
          "type": "address"
        }
      ],
      "name": "ERC721IncorrectOwner",
      "type": "error"
    },
    {
      "inputs": [
        {
          "internalType": "address",
          "name": "operator",
          "type": "address"
        },
        {
          "internalType": "uint256",
          "name": "tokenId",
          "type": "uint256"
        }
      ],
      "name": "ERC721InsufficientApproval",
      "type": "error"
    },
    {
      "inputs": [
        {
          "internalType": "address",
          "name": "approver",
          "type": "address"
        }
      ],
      "name": "ERC721InvalidApprover",
      "type": "error"
    },
    {
      "inputs": [
        {
          "internalType": "address",
          "name": "operator",
          "type": "address"
        }
      ],
      "name": "ERC721InvalidOperator",
      "type": "error"
    },
    {
      "inputs": [
        {
          "internalType": "address",
          "name": "owner",
          "type": "address"
        }
      ],
      "name": "ERC721InvalidOwner",
      "type": "error"
    },
    {
      "inputs": [
        {
          "internalType": "address",
          "name": "receiver",
          "type": "address"
        }
      ],
      "name": "ERC721InvalidReceiver",
      "type": "error"
    },
    {
      "inputs": [
        {
          "internalType": "address",
          "name": "sender",
          "type": "address"
        }
      ],
      "name": "ERC721InvalidSender",
      "type": "error"
    },
    {
      "inputs": [
        {
          "internalType": "uint256",
          "name": "tokenId",
          "type": "uint256"
        }
      ],
      "name": "ERC721NonexistentToken",
      "type": "error"
    },
    {
      "inputs": [],
      "name": "EmptyError",
      "type": "error"
    },
    {
      "inputs": [],
      "name": "FailedHookCall",
      "type": "error"
    },
    {
      "inputs": [
        {
          "internalType": "address",
          "name": "hooks",
          "type": "address"
        }
      ],
      "name": "HookAddressNotValid",
      "type": "error"
    },
    {
      "inputs": [],
      "name": "InvalidFeePolicy",
      "type": "error"
    },
    {
      "inputs": [],
      "name": "InvalidHookResponse",
      "type": "error"
    },
    {
      "inputs": [
        {
          "internalType": "address",
          "name": "provider",
          "type": "address"
        }
      ],
      "name": "InvalidProvider",
      "type": "error"
    },
    {
      "inputs": [],
      "name": "InvalidShortString",
      "type": "error"
    },
    {
      "inputs": [],
      "name": "InvalidSignature",
      "type": "error"
    },
    {
      "inputs": [],
      "name": "InvalidTick",
      "type": "error"
    },
    {
      "inputs": [],
      "name": "InvalidUnitSize",
      "type": "error"
    },
    {
      "inputs": [
        {
          "internalType": "address",
          "name": "locker",
          "type": "address"
        },
        {
          "internalType": "address",
          "name": "hook",
          "type": "address"
        }
      ],
      "name": "LockedBy",
      "type": "error"
    },
    {
      "inputs": [],
      "name": "NativeTransferFailed",
      "type": "error"
    },
    {
      "inputs": [
        {
          "internalType": "address",
          "name": "owner",
          "type": "address"
        }
      ],
      "name": "OwnableInvalidOwner",
      "type": "error"
    },
    {
      "inputs": [
        {
          "internalType": "address",
          "name": "account",
          "type": "address"
        }
      ],
      "name": "OwnableUnauthorizedAccount",
      "type": "error"
    },
    {
      "inputs": [],
      "name": "PermitExpired",
      "type": "error"
    },
    {
      "inputs": [
        {
          "internalType": "int256",
          "name": "value",
          "type": "int256"
        }
      ],
      "name": "SafeCastOverflowedIntToUint",
      "type": "error"
    },
    {
      "inputs": [
        {
          "internalType": "uint256",
          "name": "value",
          "type": "uint256"
        }
      ],
      "name": "SafeCastOverflowedUintToInt",
      "type": "error"
    },
    {
      "inputs": [
        {
          "internalType": "string",
          "name": "str",
          "type": "string"
        }
      ],
      "name": "StringTooLong",
      "type": "error"
    },
    {
      "anonymous": false,
      "inputs": [
        {
          "indexed": true,
          "internalType": "address",
          "name": "owner",
          "type": "address"
        },
        {
          "indexed": true,
          "internalType": "address",
          "name": "approved",
          "type": "address"
        },
        {
          "indexed": true,
          "internalType": "uint256",
          "name": "tokenId",
          "type": "uint256"
        }
      ],
      "name": "Approval",
      "type": "event"
    },
    {
      "anonymous": false,
      "inputs": [
        {
          "indexed": true,
          "internalType": "address",
          "name": "owner",
          "type": "address"
        },
        {
          "indexed": true,
          "internalType": "address",
          "name": "operator",
          "type": "address"
        },
        {
          "indexed": false,
          "internalType": "bool",
          "name": "approved",
          "type": "bool"
        }
      ],
      "name": "ApprovalForAll",
      "type": "event"
    },
    {
      "anonymous": false,
      "inputs": [
        {
          "indexed": true,
          "internalType": "OrderId",
          "name": "orderId",
          "type": "uint256"
        },
        {
          "indexed": false,
          "internalType": "uint64",
          "name": "unit",
          "type": "uint64"
        }
      ],
      "name": "Cancel",
      "type": "event"
    },
    {
      "anonymous": false,
      "inputs": [
        {
          "indexed": true,
          "internalType": "OrderId",
          "name": "orderId",
          "type": "uint256"
        },
        {
          "indexed": false,
          "internalType": "uint64",
          "name": "unit",
          "type": "uint64"
        }
      ],
      "name": "Claim",
      "type": "event"
    },
    {
      "anonymous": false,
      "inputs": [
        {
          "indexed": true,
          "internalType": "address",
          "name": "provider",
          "type": "address"
        },
        {
          "indexed": true,
          "internalType": "address",
          "name": "recipient",
          "type": "address"
        },
        {
          "indexed": true,
          "internalType": "Currency",
          "name": "currency",
          "type": "address"
        },
        {
          "indexed": false,
          "internalType": "uint256",
          "name": "amount",
          "type": "uint256"
        }
      ],
      "name": "Collect",
      "type": "event"
    },
    {
      "anonymous": false,
      "inputs": [
        {
          "indexed": true,
          "internalType": "address",
          "name": "provider",
          "type": "address"
        }
      ],
      "name": "Delist",
      "type": "event"
    },
    {
      "anonymous": false,
      "inputs": [],
      "name": "EIP712DomainChanged",
      "type": "event"
    },
    {
      "anonymous": false,
      "inputs": [
        {
          "indexed": true,
          "internalType": "BookId",
          "name": "bookId",
          "type": "uint192"
        },
        {
          "indexed": true,
          "internalType": "address",
          "name": "user",
          "type": "address"
        },
        {
          "indexed": false,
          "internalType": "Tick",
          "name": "tick",
          "type": "int24"
        },
        {
          "indexed": false,
          "internalType": "uint256",
          "name": "orderIndex",
          "type": "uint256"
        },
        {
          "indexed": false,
          "internalType": "uint64",
          "name": "unit",
          "type": "uint64"
        },
        {
          "indexed": false,
          "internalType": "address",
          "name": "provider",
          "type": "address"
        }
      ],
      "name": "Make",
      "type": "event"
    },
    {
      "anonymous": false,
      "inputs": [
        {
          "indexed": true,
          "internalType": "BookId",
          "name": "id",
          "type": "uint192"
        },
        {
          "indexed": true,
          "internalType": "Currency",
          "name": "base",
          "type": "address"
        },
        {
          "indexed": true,
          "internalType": "Currency",
          "name": "quote",
          "type": "address"
        },
        {
          "indexed": false,
          "internalType": "uint64",
          "name": "unitSize",
          "type": "uint64"
        },
        {
          "indexed": false,
          "internalType": "FeePolicy",
          "name": "makerPolicy",
          "type": "uint24"
        },
        {
          "indexed": false,
          "internalType": "FeePolicy",
          "name": "takerPolicy",
          "type": "uint24"
        },
        {
          "indexed": false,
          "internalType": "contract IHooks",
          "name": "hooks",
          "type": "address"
        }
      ],
      "name": "Open",
      "type": "event"
    },
    {
      "anonymous": false,
      "inputs": [
        {
          "indexed": true,
          "internalType": "address",
          "name": "previousOwner",
          "type": "address"
        },
        {
          "indexed": true,
          "internalType": "address",
          "name": "newOwner",
          "type": "address"
        }
      ],
      "name": "OwnershipTransferStarted",
      "type": "event"
    },
    {
      "anonymous": false,
      "inputs": [
        {
          "indexed": true,
          "internalType": "address",
          "name": "previousOwner",
          "type": "address"
        },
        {
          "indexed": true,
          "internalType": "address",
          "name": "newOwner",
          "type": "address"
        }
      ],
      "name": "OwnershipTransferred",
      "type": "event"
    },
    {
      "anonymous": false,
      "inputs": [
        {
          "indexed": true,
          "internalType": "address",
          "name": "newDefaultProvider",
          "type": "address"
        }
      ],
      "name": "SetDefaultProvider",
      "type": "event"
    },
    {
      "anonymous": false,
      "inputs": [
        {
          "indexed": true,
          "internalType": "BookId",
          "name": "bookId",
          "type": "uint192"
        },
        {
          "indexed": true,
          "internalType": "address",
          "name": "user",
          "type": "address"
        },
        {
          "indexed": false,
          "internalType": "Tick",
          "name": "tick",
          "type": "int24"
        },
        {
          "indexed": false,
          "internalType": "uint64",
          "name": "unit",
          "type": "uint64"
        }
      ],
      "name": "Take",
      "type": "event"
    },
    {
      "anonymous": false,
      "inputs": [
        {
          "indexed": true,
          "internalType": "address",
          "name": "from",
          "type": "address"
        },
        {
          "indexed": true,
          "internalType": "address",
          "name": "to",
          "type": "address"
        },
        {
          "indexed": true,
          "internalType": "uint256",
          "name": "tokenId",
          "type": "uint256"
        }
      ],
      "name": "Transfer",
      "type": "event"
    },
    {
      "anonymous": false,
      "inputs": [
        {
          "indexed": true,
          "internalType": "address",
          "name": "provider",
          "type": "address"
        }
      ],
      "name": "Whitelist",
      "type": "event"
    },
    {
      "inputs": [],
      "name": "DOMAIN_SEPARATOR",
      "outputs": [
        {
          "internalType": "bytes32",
          "name": "",
          "type": "bytes32"
        }
      ],
      "stateMutability": "view",
      "type": "function"
    },
    {
      "inputs": [],
      "name": "PERMIT_TYPEHASH",
      "outputs": [
        {
          "internalType": "bytes32",
          "name": "",
          "type": "bytes32"
        }
      ],
      "stateMutability": "view",
      "type": "function"
    },
    {
      "inputs": [],
      "name": "acceptOwnership",
      "outputs": [],
      "stateMutability": "nonpayable",
      "type": "function"
    },
    {
      "inputs": [
        {
          "internalType": "address",
          "name": "to",
          "type": "address"
        },
        {
          "internalType": "uint256",
          "name": "tokenId",
          "type": "uint256"
        }
      ],
      "name": "approve",
      "outputs": [],
      "stateMutability": "nonpayable",
      "type": "function"
    },
    {
      "inputs": [
        {
          "internalType": "address",
          "name": "owner",
          "type": "address"
        }
      ],
      "name": "balanceOf",
      "outputs": [
        {
          "internalType": "uint256",
          "name": "",
          "type": "uint256"
        }
      ],
      "stateMutability": "view",
      "type": "function"
    },
    {
      "inputs": [],
      "name": "baseURI",
      "outputs": [
        {
          "internalType": "string",
          "name": "",
          "type": "string"
        }
      ],
      "stateMutability": "view",
      "type": "function"
    },
    {
      "inputs": [
        {
          "components": [
            {
              "internalType": "OrderId",
              "name": "id",
              "type": "uint256"
            },
            {
              "internalType": "uint64",
              "name": "toUnit",
              "type": "uint64"
            }
          ],
          "internalType": "struct IBookManager.CancelParams",
          "name": "params",
          "type": "tuple"
        },
        {
          "internalType": "bytes",
          "name": "hookData",
          "type": "bytes"
        }
      ],
      "name": "cancel",
      "outputs": [
        {
          "internalType": "uint256",
          "name": "canceledAmount",
          "type": "uint256"
        }
      ],
      "stateMutability": "nonpayable",
      "type": "function"
    },
    {
      "inputs": [
        {
          "internalType": "address",
          "name": "owner",
          "type": "address"
        },
        {
          "internalType": "address",
          "name": "spender",
          "type": "address"
        },
        {
          "internalType": "uint256",
          "name": "tokenId",
          "type": "uint256"
        }
      ],
      "name": "checkAuthorized",
      "outputs": [],
      "stateMutability": "view",
      "type": "function"
    },
    {
      "inputs": [
        {
          "internalType": "OrderId",
          "name": "id",
          "type": "uint256"
        },
        {
          "internalType": "bytes",
          "name": "hookData",
          "type": "bytes"
        }
      ],
      "name": "claim",
      "outputs": [
        {
          "internalType": "uint256",
          "name": "claimedAmount",
          "type": "uint256"
        }
      ],
      "stateMutability": "nonpayable",
      "type": "function"
    },
    {
      "inputs": [
        {
          "internalType": "address",
          "name": "recipient",
          "type": "address"
        },
        {
          "internalType": "Currency",
          "name": "currency",
          "type": "address"
        }
      ],
      "name": "collect",
      "outputs": [
        {
          "internalType": "uint256",
          "name": "amount",
          "type": "uint256"
        }
      ],
      "stateMutability": "nonpayable",
      "type": "function"
    },
    {
      "inputs": [],
      "name": "contractURI",
      "outputs": [
        {
          "internalType": "string",
          "name": "",
          "type": "string"
        }
      ],
      "stateMutability": "view",
      "type": "function"
    },
    {
      "inputs": [],
      "name": "defaultProvider",
      "outputs": [
        {
          "internalType": "address",
          "name": "",
          "type": "address"
        }
      ],
      "stateMutability": "view",
      "type": "function"
    },
    {
      "inputs": [
        {
          "internalType": "address",
          "name": "provider",
          "type": "address"
        }
      ],
      "name": "delist",
      "outputs": [],
      "stateMutability": "nonpayable",
      "type": "function"
    },
    {
      "inputs": [],
      "name": "eip712Domain",
      "outputs": [
        {
          "internalType": "bytes1",
          "name": "fields",
          "type": "bytes1"
        },
        {
          "internalType": "string",
          "name": "name",
          "type": "string"
        },
        {
          "internalType": "string",
          "name": "version",
          "type": "string"
        },
        {
          "internalType": "uint256",
          "name": "chainId",
          "type": "uint256"
        },
        {
          "internalType": "address",
          "name": "verifyingContract",
          "type": "address"
        },
        {
          "internalType": "bytes32",
          "name": "salt",
          "type": "bytes32"
        },
        {
          "internalType": "uint256[]",
          "name": "extensions",
          "type": "uint256[]"
        }
      ],
      "stateMutability": "view",
      "type": "function"
    },
    {
      "inputs": [
        {
          "components": [
            {
              "internalType": "Currency",
              "name": "base",
              "type": "address"
            },
            {
              "internalType": "uint64",
              "name": "unitSize",
              "type": "uint64"
            },
            {
              "internalType": "Currency",
              "name": "quote",
              "type": "address"
            },
            {
              "internalType": "FeePolicy",
              "name": "makerPolicy",
              "type": "uint24"
            },
            {
              "internalType": "contract IHooks",
              "name": "hooks",
              "type": "address"
            },
            {
              "internalType": "FeePolicy",
              "name": "takerPolicy",
              "type": "uint24"
            }
          ],
          "internalType": "struct IBookManager.BookKey",
          "name": "key",
          "type": "tuple"
        }
      ],
      "name": "encodeBookKey",
      "outputs": [
        {
          "internalType": "BookId",
          "name": "",
          "type": "uint192"
        }
      ],
      "stateMutability": "pure",
      "type": "function"
    },
    {
      "inputs": [
        {
          "internalType": "uint256",
          "name": "tokenId",
          "type": "uint256"
        }
      ],
      "name": "getApproved",
      "outputs": [
        {
          "internalType": "address",
          "name": "",
          "type": "address"
        }
      ],
      "stateMutability": "view",
      "type": "function"
    },
    {
      "inputs": [
        {
          "internalType": "BookId",
          "name": "id",
          "type": "uint192"
        }
      ],
      "name": "getBookKey",
      "outputs": [
        {
          "components": [
            {
              "internalType": "Currency",
              "name": "base",
              "type": "address"
            },
            {
              "internalType": "uint64",
              "name": "unitSize",
              "type": "uint64"
            },
            {
              "internalType": "Currency",
              "name": "quote",
              "type": "address"
            },
            {
              "internalType": "FeePolicy",
              "name": "makerPolicy",
              "type": "uint24"
            },
            {
              "internalType": "contract IHooks",
              "name": "hooks",
              "type": "address"
            },
            {
              "internalType": "FeePolicy",
              "name": "takerPolicy",
              "type": "uint24"
            }
          ],
          "internalType": "struct IBookManager.BookKey",
          "name": "",
          "type": "tuple"
        }
      ],
      "stateMutability": "view",
      "type": "function"
    },
    {
      "inputs": [
        {
          "internalType": "address",
          "name": "locker",
          "type": "address"
        },
        {
          "internalType": "Currency",
          "name": "currency",
          "type": "address"
        }
      ],
      "name": "getCurrencyDelta",
      "outputs": [
        {
          "internalType": "int256",
          "name": "",
          "type": "int256"
        }
      ],
      "stateMutability": "view",
      "type": "function"
    },
    {
      "inputs": [
        {
          "internalType": "BookId",
          "name": "id",
          "type": "uint192"
        },
        {
          "internalType": "Tick",
          "name": "tick",
          "type": "int24"
        }
      ],
      "name": "getDepth",
      "outputs": [
        {
          "internalType": "uint64",
          "name": "",
          "type": "uint64"
        }
      ],
      "stateMutability": "view",
      "type": "function"
    },
    {
      "inputs": [
        {
          "internalType": "BookId",
          "name": "id",
          "type": "uint192"
        }
      ],
      "name": "getHighest",
      "outputs": [
        {
          "internalType": "Tick",
          "name": "",
          "type": "int24"
        }
      ],
      "stateMutability": "view",
      "type": "function"
    },
    {
      "inputs": [
        {
          "internalType": "uint256",
          "name": "i",
          "type": "uint256"
        }
      ],
      "name": "getLock",
      "outputs": [
        {
          "internalType": "address",
          "name": "",
          "type": "address"
        },
        {
          "internalType": "address",
          "name": "",
          "type": "address"
        }
      ],
      "stateMutability": "view",
      "type": "function"
    },
    {
      "inputs": [],
      "name": "getLockData",
      "outputs": [
        {
          "internalType": "uint128",
          "name": "",
          "type": "uint128"
        },
        {
          "internalType": "uint128",
          "name": "",
          "type": "uint128"
        }
      ],
      "stateMutability": "view",
      "type": "function"
    },
    {
      "inputs": [
        {
          "internalType": "OrderId",
          "name": "id",
          "type": "uint256"
        }
      ],
      "name": "getOrder",
      "outputs": [
        {
          "components": [
            {
              "internalType": "address",
              "name": "provider",
              "type": "address"
            },
            {
              "internalType": "uint64",
              "name": "open",
              "type": "uint64"
            },
            {
              "internalType": "uint64",
              "name": "claimable",
              "type": "uint64"
            }
          ],
          "internalType": "struct IBookManager.OrderInfo",
          "name": "",
          "type": "tuple"
        }
      ],
      "stateMutability": "view",
      "type": "function"
    },
    {
      "inputs": [
        {
          "internalType": "address",
          "name": "owner",
          "type": "address"
        },
        {
          "internalType": "address",
          "name": "operator",
          "type": "address"
        }
      ],
      "name": "isApprovedForAll",
      "outputs": [
        {
          "internalType": "bool",
          "name": "",
          "type": "bool"
        }
      ],
      "stateMutability": "view",
      "type": "function"
    },
    {
      "inputs": [
        {
          "internalType": "BookId",
          "name": "id",
          "type": "uint192"
        }
      ],
      "name": "isEmpty",
      "outputs": [
        {
          "internalType": "bool",
          "name": "",
          "type": "bool"
        }
      ],
      "stateMutability": "view",
      "type": "function"
    },
    {
      "inputs": [
        {
          "internalType": "BookId",
          "name": "id",
          "type": "uint192"
        }
      ],
      "name": "isOpened",
      "outputs": [
        {
          "internalType": "bool",
          "name": "",
          "type": "bool"
        }
      ],
      "stateMutability": "view",
      "type": "function"
    },
    {
      "inputs": [
        {
          "internalType": "address",
          "name": "provider",
          "type": "address"
        }
      ],
      "name": "isWhitelisted",
      "outputs": [
        {
          "internalType": "bool",
          "name": "",
          "type": "bool"
        }
      ],
      "stateMutability": "view",
      "type": "function"
    },
    {
      "inputs": [
        {
          "internalType": "bytes32",
          "name": "slot",
          "type": "bytes32"
        }
      ],
      "name": "load",
      "outputs": [
        {
          "internalType": "bytes32",
          "name": "value",
          "type": "bytes32"
        }
      ],
      "stateMutability": "view",
      "type": "function"
    },
    {
      "inputs": [
        {
          "internalType": "bytes32",
          "name": "startSlot",
          "type": "bytes32"
        },
        {
          "internalType": "uint256",
          "name": "nSlot",
          "type": "uint256"
        }
      ],
      "name": "load",
      "outputs": [
        {
          "internalType": "bytes",
          "name": "value",
          "type": "bytes"
        }
      ],
      "stateMutability": "view",
      "type": "function"
    },
    {
      "inputs": [
        {
          "internalType": "address",
          "name": "locker",
          "type": "address"
        },
        {
          "internalType": "bytes",
          "name": "data",
          "type": "bytes"
        }
      ],
      "name": "lock",
      "outputs": [
        {
          "internalType": "bytes",
          "name": "result",
          "type": "bytes"
        }
      ],
      "stateMutability": "nonpayable",
      "type": "function"
    },
    {
      "inputs": [
        {
          "components": [
            {
              "components": [
                {
                  "internalType": "Currency",
                  "name": "base",
                  "type": "address"
                },
                {
                  "internalType": "uint64",
                  "name": "unitSize",
                  "type": "uint64"
                },
                {
                  "internalType": "Currency",
                  "name": "quote",
                  "type": "address"
                },
                {
                  "internalType": "FeePolicy",
                  "name": "makerPolicy",
                  "type": "uint24"
                },
                {
                  "internalType": "contract IHooks",
                  "name": "hooks",
                  "type": "address"
                },
                {
                  "internalType": "FeePolicy",
                  "name": "takerPolicy",
                  "type": "uint24"
                }
              ],
              "internalType": "struct IBookManager.BookKey",
              "name": "key",
              "type": "tuple"
            },
            {
              "internalType": "Tick",
              "name": "tick",
              "type": "int24"
            },
            {
              "internalType": "uint64",
              "name": "unit",
              "type": "uint64"
            },
            {
              "internalType": "address",
              "name": "provider",
              "type": "address"
            }
          ],
          "internalType": "struct IBookManager.MakeParams",
          "name": "params",
          "type": "tuple"
        },
        {
          "internalType": "bytes",
          "name": "hookData",
          "type": "bytes"
        }
      ],
      "name": "make",
      "outputs": [
        {
          "internalType": "OrderId",
          "name": "id",
          "type": "uint256"
        },
        {
          "internalType": "uint256",
          "name": "quoteAmount",
          "type": "uint256"
        }
      ],
      "stateMutability": "nonpayable",
      "type": "function"
    },
    {
      "inputs": [
        {
          "internalType": "BookId",
          "name": "id",
          "type": "uint192"
        },
        {
          "internalType": "Tick",
          "name": "tick",
          "type": "int24"
        }
      ],
      "name": "maxLessThan",
      "outputs": [
        {
          "internalType": "Tick",
          "name": "",
          "type": "int24"
        }
      ],
      "stateMutability": "view",
      "type": "function"
    },
    {
      "inputs": [],
      "name": "name",
      "outputs": [
        {
          "internalType": "string",
          "name": "",
          "type": "string"
        }
      ],
      "stateMutability": "view",
      "type": "function"
    },
    {
      "inputs": [
        {
          "internalType": "uint256",
          "name": "id",
          "type": "uint256"
        }
      ],
      "name": "nonces",
      "outputs": [
        {
          "internalType": "uint256",
          "name": "",
          "type": "uint256"
        }
      ],
      "stateMutability": "view",
      "type": "function"
    },
    {
      "inputs": [
        {
          "components": [
            {
              "internalType": "Currency",
              "name": "base",
              "type": "address"
            },
            {
              "internalType": "uint64",
              "name": "unitSize",
              "type": "uint64"
            },
            {
              "internalType": "Currency",
              "name": "quote",
              "type": "address"
            },
            {
              "internalType": "FeePolicy",
              "name": "makerPolicy",
              "type": "uint24"
            },
            {
              "internalType": "contract IHooks",
              "name": "hooks",
              "type": "address"
            },
            {
              "internalType": "FeePolicy",
              "name": "takerPolicy",
              "type": "uint24"
            }
          ],
          "internalType": "struct IBookManager.BookKey",
          "name": "key",
          "type": "tuple"
        },
        {
          "internalType": "bytes",
          "name": "hookData",
          "type": "bytes"
        }
      ],
      "name": "open",
      "outputs": [],
      "stateMutability": "nonpayable",
      "type": "function"
    },
    {
      "inputs": [],
      "name": "owner",
      "outputs": [
        {
          "internalType": "address",
          "name": "",
          "type": "address"
        }
      ],
      "stateMutability": "view",
      "type": "function"
    },
    {
      "inputs": [
        {
          "internalType": "uint256",
          "name": "tokenId",
          "type": "uint256"
        }
      ],
      "name": "ownerOf",
      "outputs": [
        {
          "internalType": "address",
          "name": "",
          "type": "address"
        }
      ],
      "stateMutability": "view",
      "type": "function"
    },
    {
      "inputs": [],
      "name": "pendingOwner",
      "outputs": [
        {
          "internalType": "address",
          "name": "",
          "type": "address"
        }
      ],
      "stateMutability": "view",
      "type": "function"
    },
    {
      "inputs": [
        {
          "internalType": "address",
          "name": "spender",
          "type": "address"
        },
        {
          "internalType": "uint256",
          "name": "tokenId",
          "type": "uint256"
        },
        {
          "internalType": "uint256",
          "name": "deadline",
          "type": "uint256"
        },
        {
          "internalType": "uint8",
          "name": "v",
          "type": "uint8"
        },
        {
          "internalType": "bytes32",
          "name": "r",
          "type": "bytes32"
        },
        {
          "internalType": "bytes32",
          "name": "s",
          "type": "bytes32"
        }
      ],
      "name": "permit",
      "outputs": [],
      "stateMutability": "nonpayable",
      "type": "function"
    },
    {
      "inputs": [],
      "name": "renounceOwnership",
      "outputs": [],
      "stateMutability": "nonpayable",
      "type": "function"
    },
    {
      "inputs": [
        {
          "internalType": "Currency",
          "name": "currency",
          "type": "address"
        }
      ],
      "name": "reservesOf",
      "outputs": [
        {
          "internalType": "uint256",
          "name": "",
          "type": "uint256"
        }
      ],
      "stateMutability": "view",
      "type": "function"
    },
    {
      "inputs": [
        {
          "internalType": "address",
          "name": "from",
          "type": "address"
        },
        {
          "internalType": "address",
          "name": "to",
          "type": "address"
        },
        {
          "internalType": "uint256",
          "name": "tokenId",
          "type": "uint256"
        }
      ],
      "name": "safeTransferFrom",
      "outputs": [],
      "stateMutability": "nonpayable",
      "type": "function"
    },
    {
      "inputs": [
        {
          "internalType": "address",
          "name": "from",
          "type": "address"
        },
        {
          "internalType": "address",
          "name": "to",
          "type": "address"
        },
        {
          "internalType": "uint256",
          "name": "tokenId",
          "type": "uint256"
        },
        {
          "internalType": "bytes",
          "name": "data",
          "type": "bytes"
        }
      ],
      "name": "safeTransferFrom",
      "outputs": [],
      "stateMutability": "nonpayable",
      "type": "function"
    },
    {
      "inputs": [
        {
          "internalType": "address",
          "name": "operator",
          "type": "address"
        },
        {
          "internalType": "bool",
          "name": "approved",
          "type": "bool"
        }
      ],
      "name": "setApprovalForAll",
      "outputs": [],
      "stateMutability": "nonpayable",
      "type": "function"
    },
    {
      "inputs": [
        {
          "internalType": "address",
          "name": "newDefaultProvider",
          "type": "address"
        }
      ],
      "name": "setDefaultProvider",
      "outputs": [],
      "stateMutability": "nonpayable",
      "type": "function"
    },
    {
      "inputs": [
        {
          "internalType": "Currency",
          "name": "currency",
          "type": "address"
        }
      ],
      "name": "settle",
      "outputs": [
        {
          "internalType": "uint256",
          "name": "paid",
          "type": "uint256"
        }
      ],
      "stateMutability": "payable",
      "type": "function"
    },
    {
      "inputs": [
        {
          "internalType": "bytes4",
          "name": "interfaceId",
          "type": "bytes4"
        }
      ],
      "name": "supportsInterface",
      "outputs": [
        {
          "internalType": "bool",
          "name": "",
          "type": "bool"
        }
      ],
      "stateMutability": "view",
      "type": "function"
    },
    {
      "inputs": [],
      "name": "symbol",
      "outputs": [
        {
          "internalType": "string",
          "name": "",
          "type": "string"
        }
      ],
      "stateMutability": "view",
      "type": "function"
    },
    {
      "inputs": [
        {
          "components": [
            {
              "components": [
                {
                  "internalType": "Currency",
                  "name": "base",
                  "type": "address"
                },
                {
                  "internalType": "uint64",
                  "name": "unitSize",
                  "type": "uint64"
                },
                {
                  "internalType": "Currency",
                  "name": "quote",
                  "type": "address"
                },
                {
                  "internalType": "FeePolicy",
                  "name": "makerPolicy",
                  "type": "uint24"
                },
                {
                  "internalType": "contract IHooks",
                  "name": "hooks",
                  "type": "address"
                },
                {
                  "internalType": "FeePolicy",
                  "name": "takerPolicy",
                  "type": "uint24"
                }
              ],
              "internalType": "struct IBookManager.BookKey",
              "name": "key",
              "type": "tuple"
            },
            {
              "internalType": "Tick",
              "name": "tick",
              "type": "int24"
            },
            {
              "internalType": "uint64",
              "name": "maxUnit",
              "type": "uint64"
            }
          ],
          "internalType": "struct IBookManager.TakeParams",
          "name": "params",
          "type": "tuple"
        },
        {
          "internalType": "bytes",
          "name": "hookData",
          "type": "bytes"
        }
      ],
      "name": "take",
      "outputs": [
        {
          "internalType": "uint256",
          "name": "quoteAmount",
          "type": "uint256"
        },
        {
          "internalType": "uint256",
          "name": "baseAmount",
          "type": "uint256"
        }
      ],
      "stateMutability": "nonpayable",
      "type": "function"
    },
    {
      "inputs": [
        {
          "internalType": "address",
          "name": "provider",
          "type": "address"
        },
        {
          "internalType": "Currency",
          "name": "currency",
          "type": "address"
        }
      ],
      "name": "tokenOwed",
      "outputs": [
        {
          "internalType": "uint256",
          "name": "amount",
          "type": "uint256"
        }
      ],
      "stateMutability": "view",
      "type": "function"
    },
    {
      "inputs": [
        {
          "internalType": "uint256",
          "name": "tokenId",
          "type": "uint256"
        }
      ],
      "name": "tokenURI",
      "outputs": [
        {
          "internalType": "string",
          "name": "",
          "type": "string"
        }
      ],
      "stateMutability": "view",
      "type": "function"
    },
    {
      "inputs": [
        {
          "internalType": "address",
          "name": "from",
          "type": "address"
        },
        {
          "internalType": "address",
          "name": "to",
          "type": "address"
        },
        {
          "internalType": "uint256",
          "name": "tokenId",
          "type": "uint256"
        }
      ],
      "name": "transferFrom",
      "outputs": [],
      "stateMutability": "nonpayable",
      "type": "function"
    },
    {
      "inputs": [
        {
          "internalType": "address",
          "name": "newOwner",
          "type": "address"
        }
      ],
      "name": "transferOwnership",
      "outputs": [],
      "stateMutability": "nonpayable",
      "type": "function"
    },
    {
      "inputs": [
        {
          "internalType": "address",
          "name": "provider",
          "type": "address"
        }
      ],
      "name": "whitelist",
      "outputs": [],
      "stateMutability": "nonpayable",
      "type": "function"
    },
    {
      "inputs": [
        {
          "internalType": "Currency",
          "name": "currency",
          "type": "address"
        },
        {
          "internalType": "address",
          "name": "to",
          "type": "address"
        },
        {
          "internalType": "uint256",
          "name": "amount",
          "type": "uint256"
        }
      ],
      "name": "withdraw",
      "outputs": [],
      "stateMutability": "nonpayable",
      "type": "function"
    },
    {
      "stateMutability": "payable",
      "type": "receive"
    }
  ],
  "bytecode": "0x61016060405234801562000011575f80fd5b506040516200a7f73803806200a7f783398181016040528101906200003791906200069d565b81816040518060400160405280600181526020017f320000000000000000000000000000000000000000000000000000000000000081525082818a8585815f9081620000849190620009e8565b508060019081620000969190620009e8565b5050505f73ffffffffffffffffffffffffffffffffffffffff168173ffffffffffffffffffffffffffffffffffffffff16036200010c575f6040517f1e4fbdf700000000000000000000000000000000000000000000000000000000815260040162000103919062000add565b60405180910390fd5b6200011d816200021260201b60201c565b50620001346007836200024a60201b90919060201c565b6101208181525050620001526008826200024a60201b90919060201c565b6101408181525050818051906020012060e08181525050808051906020012061010081815250504660a08181525050620001916200029f60201b60201c565b608081815250503073ffffffffffffffffffffffffffffffffffffffff1660c08173ffffffffffffffffffffffffffffffffffffffff16815250505050505050620001e285620002fb60201b60201c565b83600a9081620001f39190620009e8565b5082600b9081620002059190620009e8565b5050505050505062000c8e565b60065f6101000a81549073ffffffffffffffffffffffffffffffffffffffff021916905562000247816200038160201b60201c565b50565b5f6020835110156200026f5762000267836200044460201b60201c565b905062000299565b826200028183620004ae60201b60201c565b5f019081620002919190620009e8565b5060ff5f1b90505b92915050565b5f7f8b73c3c69bb8fe3d512ecc4cf759cc79239f7b179b0ffacaa9a75d522b39400f60e051610100514630604051602001620002e095949392919062000b23565b60405160208183030381529060405280519060200120905090565b80600c5f6101000a81548173ffffffffffffffffffffffffffffffffffffffff021916908373ffffffffffffffffffffffffffffffffffffffff1602179055508073ffffffffffffffffffffffffffffffffffffffff167fef673bbfc2ac7e4d4b810bffda0b15a1f2b48c2aa4d178d3fca87d0d1f33706260405160405180910390a250565b5f60055f9054906101000a900473ffffffffffffffffffffffffffffffffffffffff1690508160055f6101000a81548173ffffffffffffffffffffffffffffffffffffffff021916908373ffffffffffffffffffffffffffffffffffffffff1602179055508173ffffffffffffffffffffffffffffffffffffffff168173ffffffffffffffffffffffffffffffffffffffff167f8be0079c531659141344cd1fd0a4f28419497f9722a3daafe3b4186f6b6457e060405160405180910390a35050565b5f80829050601f815111156200049357826040517f305a27a90000000000000000000000000000000000000000000000000000000081526004016200048a919062000bce565b60405180910390fd5b805181620004a19062000c1f565b5f1c175f1b915050919050565b5f819050919050565b5f604051905090565b5f80fd5b5f80fd5b5f73ffffffffffffffffffffffffffffffffffffffff82169050919050565b5f620004f382620004c8565b9050919050565b6200050581620004e7565b811462000510575f80fd5b50565b5f815190506200052381620004fa565b92915050565b5f80fd5b5f80fd5b5f601f19601f8301169050919050565b7f4e487b71000000000000000000000000000000000000000000000000000000005f52604160045260245ffd5b620005798262000531565b810181811067ffffffffffffffff821117156200059b576200059a62000541565b5b80604052505050565b5f620005af620004b7565b9050620005bd82826200056e565b919050565b5f67ffffffffffffffff821115620005df57620005de62000541565b5b620005ea8262000531565b9050602081019050919050565b5f5b8381101562000616578082015181840152602081019050620005f9565b5f8484015250505050565b5f620006376200063184620005c2565b620005a4565b9050828152602081018484840111156200065657620006556200052d565b5b62000663848285620005f7565b509392505050565b5f82601f83011262000682576200068162000529565b5b81516200069484826020860162000621565b91505092915050565b5f805f805f8060c08789031215620006ba57620006b9620004c0565b5b5f620006c989828a0162000513565b9650506020620006dc89828a0162000513565b955050604087015167ffffffffffffffff8111156200070057620006ff620004c4565b5b6200070e89828a016200066b565b945050606087015167ffffffffffffffff811115620007325762000731620004c4565b5b6200074089828a016200066b565b935050608087015167ffffffffffffffff811115620007645762000763620004c4565b5b6200077289828a016200066b565b92505060a087015167ffffffffffffffff811115620007965762000795620004c4565b5b620007a489828a016200066b565b9150509295509295509295565b5f81519050919050565b7f4e487b71000000000000000000000000000000000000000000000000000000005f52602260045260245ffd5b5f60028204905060018216806200080057607f821691505b602082108103620008165762000815620007bb565b5b50919050565b5f819050815f5260205f209050919050565b5f6020601f8301049050919050565b5f82821b905092915050565b5f600883026200087a7fffffffffffffffffffffffffffffffffffffffffffffffffffffffffffffffff826200083d565b6200088686836200083d565b95508019841693508086168417925050509392505050565b5f819050919050565b5f819050919050565b5f620008d0620008ca620008c4846200089e565b620008a7565b6200089e565b9050919050565b5f819050919050565b620008eb83620008b0565b62000903620008fa82620008d7565b84845462000849565b825550505050565b5f90565b620009196200090b565b62000926818484620008e0565b505050565b5b818110156200094d57620009415f826200090f565b6001810190506200092c565b5050565b601f8211156200099c5762000966816200081c565b62000971846200082e565b8101602085101562000981578190505b6200099962000990856200082e565b8301826200092b565b50505b505050565b5f82821c905092915050565b5f620009be5f1984600802620009a1565b1980831691505092915050565b5f620009d88383620009ad565b9150826002028217905092915050565b620009f382620007b1565b67ffffffffffffffff81111562000a0f5762000a0e62000541565b5b62000a1b8254620007e8565b62000a2882828562000951565b5f60209050601f83116001811462000a5e575f841562000a49578287015190505b62000a558582620009cb565b86555062000ac4565b601f19841662000a6e866200081c565b5f5b8281101562000a975784890151825560018201915060208501945060208101905062000a70565b8683101562000ab7578489015162000ab3601f891682620009ad565b8355505b6001600288020188555050505b505050505050565b62000ad781620004e7565b82525050565b5f60208201905062000af25f83018462000acc565b92915050565b5f819050919050565b62000b0c8162000af8565b82525050565b62000b1d816200089e565b82525050565b5f60a08201905062000b385f83018862000b01565b62000b47602083018762000b01565b62000b56604083018662000b01565b62000b65606083018562000b12565b62000b74608083018462000acc565b9695505050505050565b5f82825260208201905092915050565b5f62000b9a82620007b1565b62000ba6818562000b7e565b935062000bb8818560208601620005f7565b62000bc38162000531565b840191505092915050565b5f6020820190508181035f83015262000be8818462000b8e565b905092915050565b5f81519050919050565b5f819050602082019050919050565b5f62000c16825162000af8565b80915050919050565b5f62000c2b8262000bf0565b8262000c378462000bfa565b905062000c448162000c09565b9250602082101562000c875762000c827fffffffffffffffffffffffffffffffffffffffffffffffffffffffffffffffff836020036008026200083d565b831692505b5050919050565b60805160a05160c05160e051610100516101205161014051619b1762000ce05f395f6153cd01525f61539201525f61625d01525f61623c01525f6148eb01525f61494101525f61496a0152619b175ff3fe608060405260043610610353575f3560e01c80637ac2ff7b116101c5578063cdc92f2d116100f6578063e8a3d48511610094578063f2fde38b1161006e578063f2fde38b14610d62578063f86a11b314610d8a578063fcc8fc9b14610dc6578063fefc7c5114610e025761035a565b8063e8a3d48514610cc0578063e985e9c514610cea578063f035079914610d265761035a565b8063d83747e8116100d0578063d83747e814610c1c578063d9caed1214610c46578063de4478ec14610c6e578063e30c397814610c965761035a565b8063cdc92f2d14610b67578063d09ef24114610ba3578063d68f4dd114610bdf5761035a565b80639b22917d11610163578063a179dadc1161013d578063a179dadc14610a9f578063a22cb46514610adb578063b88d4fde14610b03578063c87b56dd14610b2b5761035a565b80639b22917d146109eb5780639ca1799814610a27578063a12ef25e14610a635761035a565b806393c85a211161019f57806393c85a211461092157806395d89b411461095d5780639611cf6c146109875780639b19251a146109c35761035a565b80637ac2ff7b1461089f57806384b0196e146108c75780638da5cb5b146108f75761035a565b80633af32abf1161029f5780636352211e1161023d5780636c0360eb116102175780636c0360eb1461080d57806370a0823114610837578063715018a61461087357806379ba5097146108895761035a565b80636352211e146107795780636a256b29146107b55780636b2cc75c146107e55761035a565b806341a8bb881161027957806341a8bb88146106ae57806342842e0e146106ea5780634c02bf0b1461071257806355af6a321461073d5761035a565b80633af32abf146105f95780633b9500b0146106355780633e547b06146106725761035a565b80631dbef4881161030c5780632f584a6d116102e65780632f584a6d1461054157806330adf81f146105695780633644e5151461059357806338926b6d146105bd5761035a565b80631dbef488146104a05780631ff63f93146104dd57806323b872dd146105195761035a565b806301ffc9a71461035e57806306fdde031461039a578063081812fc146103c4578063095ea7b314610400578063141a468c1461042857806314d6a9eb146104645761035a565b3661035a57005b5f80fd5b348015610369575f80fd5b50610384600480360381019061037f91906174af565b610e2a565b60405161039191906174f4565b60405180910390f35b3480156103a5575f80fd5b506103ae610ea3565b6040516103bb9190617597565b60405180910390f35b3480156103cf575f80fd5b506103ea60048036038101906103e591906175ea565b610f32565b6040516103f79190617654565b60405180910390f35b34801561040b575f80fd5b5061042660048036038101906104219190617697565b610f4d565b005b348015610433575f80fd5b5061044e600480360381019061044991906175ea565b610f63565b60405161045b91906176e4565b60405180910390f35b34801561046f575f80fd5b5061048a60048036038101906104859190617780565b610f81565b60405161049791906176e4565b60405180910390f35b3480156104ab575f80fd5b506104c660048036038101906104c191906177fc565b611346565b6040516104d4929190617894565b60405180910390f35b3480156104e8575f80fd5b5061050360048036038101906104fe91906178d9565b6117da565b6040516105109190617957565b60405180910390f35b348015610524575f80fd5b5061053f600480360381019061053a9190617970565b6117fb565b005b34801561054c575f80fd5b5061056760048036038101906105629190617970565b6118fa565b005b348015610574575f80fd5b5061057d61190a565b60405161058a91906179d8565b60405180910390f35b34801561059e575f80fd5b506105a7611930565b6040516105b491906179d8565b60405180910390f35b3480156105c8575f80fd5b506105e360048036038101906105de9190617a1b565b61193e565b6040516105f091906176e4565b60405180910390f35b348015610604575f80fd5b5061061f600480360381019061061a9190617a78565b611f9a565b60405161062c91906174f4565b60405180910390f35b348015610640575f80fd5b5061065b60048036038101906106569190617ac2565b611fb7565b604051610669929190617b21565b60405180910390f35b34801561067d575f80fd5b5061069860048036038101906106939190617b72565b612377565b6040516106a591906176e4565b60405180910390f35b3480156106b9575f80fd5b506106d460048036038101906106cf9190617c10565b612397565b6040516106e19190617c70565b60405180910390f35b3480156106f5575f80fd5b50610710600480360381019061070b9190617970565b6123f7565b005b34801561071d575f80fd5b50610726612416565b604051610734929190617cb3565b60405180910390f35b348015610748575f80fd5b50610763600480360381019061075e9190617cda565b612428565b60405161077091906174f4565b60405180910390f35b348015610784575f80fd5b5061079f600480360381019061079a91906175ea565b61247d565b6040516107ac9190617654565b60405180910390f35b6107cf60048036038101906107ca9190617d05565b61248e565b6040516107dc91906176e4565b60405180910390f35b3480156107f0575f80fd5b5061080b60048036038101906108069190617a78565b61259c565b005b348015610818575f80fd5b5061082161263e565b60405161082e9190617597565b60405180910390f35b348015610842575f80fd5b5061085d60048036038101906108589190617a78565b6126ca565b60405161086a91906176e4565b60405180910390f35b34801561087e575f80fd5b50610887612780565b005b348015610894575f80fd5b5061089d612793565b005b3480156108aa575f80fd5b506108c560048036038101906108c09190617d90565b612821565b005b3480156108d2575f80fd5b506108db612ad7565b6040516108ee9796959493929190617f0a565b60405180910390f35b348015610902575f80fd5b5061090b612b7c565b6040516109189190617654565b60405180910390f35b34801561092c575f80fd5b5061094760048036038101906109429190617d05565b612ba4565b60405161095491906176e4565b60405180910390f35b348015610968575f80fd5b50610971612bb9565b60405161097e9190617597565b60405180910390f35b348015610992575f80fd5b506109ad60048036038101906109a89190617b72565b612c49565b6040516109ba9190617fa4565b60405180910390f35b3480156109ce575f80fd5b506109e960048036038101906109e49190617a78565b612c5b565b005b3480156109f6575f80fd5b50610a116004803603810190610a0c9190617cda565b612cfe565b604051610a1e91906180f5565b60405180910390f35b348015610a32575f80fd5b50610a4d6004803603810190610a48919061810e565b612ed4565b604051610a5a91906181bd565b60405180910390f35b348015610a6e575f80fd5b50610a896004803603810190610a849190617b72565b612feb565b604051610a9691906176e4565b60405180910390f35b348015610aaa575f80fd5b50610ac56004803603810190610ac09190617c10565b6131e4565b604051610ad2919061820d565b60405180910390f35b348015610ae6575f80fd5b50610b016004803603810190610afc9190618250565b613244565b005b348015610b0e575f80fd5b50610b296004803603810190610b2491906183b6565b61325a565b005b348015610b36575f80fd5b50610b516004803603810190610b4c91906175ea565b613277565b604051610b5e9190617597565b60405180910390f35b348015610b72575f80fd5b50610b8d6004803603810190610b889190617cda565b6132dd565b604051610b9a919061820d565b60405180910390f35b348015610bae575f80fd5b50610bc96004803603810190610bc49190618436565b613332565b604051610bd691906184b0565b60405180910390f35b348015610bea575f80fd5b50610c056004803603810190610c0091906175ea565b613486565b604051610c139291906184c9565b60405180910390f35b348015610c27575f80fd5b50610c306134a3565b604051610c3d9190617654565b60405180910390f35b348015610c51575f80fd5b50610c6c6004803603810190610c6791906184f0565b6134c8565b005b348015610c79575f80fd5b50610c946004803603810190610c8f9190617a78565b613578565b005b348015610ca1575f80fd5b50610caa61358c565b604051610cb79190617654565b60405180910390f35b348015610ccb575f80fd5b50610cd46135b4565b604051610ce19190617597565b60405180910390f35b348015610cf5575f80fd5b50610d106004803603810190610d0b9190618540565b613640565b604051610d1d91906174f4565b60405180910390f35b348015610d31575f80fd5b50610d4c6004803603810190610d47919061857e565b6136ce565b604051610d5991906179d8565b60405180910390f35b348015610d6d575f80fd5b50610d886004803603810190610d839190617a78565b6136d8565b005b348015610d95575f80fd5b50610db06004803603810190610dab91906185a9565b613784565b604051610dbd91906181bd565b60405180910390f35b348015610dd1575f80fd5b50610dec6004803603810190610de79190617cda565b61380b565b604051610df991906174f4565b60405180910390f35b348015610e0d575f80fd5b50610e286004803603810190610e2391906185e7565b613860565b005b5f7f6831a4fd000000000000000000000000000000000000000000000000000000007bffffffffffffffffffffffffffffffffffffffffffffffffffffffff1916827bffffffffffffffffffffffffffffffffffffffffffffffffffffffff19161480610e9c5750610e9b82613ca2565b5b9050919050565b60605f8054610eb190618671565b80601f0160208091040260200160405190810160405280929190818152602001828054610edd90618671565b8015610f285780601f10610eff57610100808354040283529160200191610f28565b820191905f5260205f20905b815481529060010190602001808311610f0b57829003601f168201915b5050505050905090565b5f610f3c82613d83565b50610f4682613e09565b9050919050565b610f5f8282610f5a613e42565b613e49565b5050565b5f60a060095f8481526020019081526020015f2054901c9050919050565b5f610f8b33613e5b565b610fa4610f9a855f0135613f27565b33865f0135613f41565b5f600e5f610fb4875f0135614004565b77ffffffffffffffffffffffffffffffffffffffffffffffff1677ffffffffffffffffffffffffffffffffffffffffffffffff1681526020019081526020015f2090505f815f016040518060c00160405290815f82015f9054906101000a900473ffffffffffffffffffffffffffffffffffffffff1673ffffffffffffffffffffffffffffffffffffffff1673ffffffffffffffffffffffffffffffffffffffff1681526020015f820160149054906101000a900467ffffffffffffffff1667ffffffffffffffff1667ffffffffffffffff168152602001600182015f9054906101000a900473ffffffffffffffffffffffffffffffffffffffff1673ffffffffffffffffffffffffffffffffffffffff1673ffffffffffffffffffffffffffffffffffffffff1681526020016001820160149054906101000a900462ffffff1662ffffff1662ffffff168152602001600282015f9054906101000a900473ffffffffffffffffffffffffffffffffffffffff1673ffffffffffffffffffffffffffffffffffffffff1673ffffffffffffffffffffffffffffffffffffffff1681526020016002820160149054906101000a900462ffffff1662ffffff1662ffffff168152505090506111ae868686846080015173ffffffffffffffffffffffffffffffffffffffff16614010909392919063ffffffff16565b5f808373__$5a2ea6afd4f7634e810a44a1cab25e81c7$__633ac502c190918a5f01358b60200160208101906111e491906186cb565b6040518463ffffffff1660e01b81526004016112029392919061871b565b6040805180830381865af415801561121c573d5f803e3d5ffd5b505050506040513d601f19601f820116820180604052508101906112409190618764565b91509150826020015167ffffffffffffffff168267ffffffffffffffff16029450611273836060015162ffffff166140fd565b156112a1575f611298866001866060015162ffffff166141099092919063ffffffff16565b90508086019550505b5f8167ffffffffffffffff16036112bf576112be885f0135614182565b5b6112cd836040015186614204565b875f01357f0c6ba7ef5064094c17cce013aa4c617a23e2582f867774d07a5931de43b85d72836040516113009190617c70565b60405180910390a261133b88838989876080015173ffffffffffffffffffffffffffffffffffffffff1661425190949392919063ffffffff16565b505050509392505050565b5f8061135133613e5b565b5f73ffffffffffffffffffffffffffffffffffffffff168561010001602081019061137c9190617a78565b73ffffffffffffffffffffffffffffffffffffffff16141580156113fa5750600f5f866101000160208101906113b29190617a78565b73ffffffffffffffffffffffffffffffffffffffff1673ffffffffffffffffffffffffffffffffffffffff1681526020019081526020015f205f9054906101000a900460ff16155b1561144f57846101000160208101906114139190617a78565b6040517f962715990000000000000000000000000000000000000000000000000000000081526004016114469190617654565b60405180910390fd5b61146d8560c001602081019061146591906187a2565b60020b614341565b5f611489865f0180360381019061148491906188d3565b6143a3565b90505f600e5f8377ffffffffffffffffffffffffffffffffffffffffffffffff1677ffffffffffffffffffffffffffffffffffffffffffffffff1681526020019081526020015f2090506114dc816143f1565b61152d878036038101906114f09190618975565b87878a5f01608001602081019061150791906189a1565b73ffffffffffffffffffffffffffffffffffffffff16614433909392919063ffffffff16565b5f8173__$5a2ea6afd4f7634e810a44a1cab25e81c7$__63ffa0afb590918a60c001602081019061155e91906187a2565b8b60e001602081019061157191906186cb565b8c6101000160208101906115859190617a78565b6040518563ffffffff1660e01b81526004016115a494939291906189ea565b602060405180830381865af41580156115bf573d5f803e3d5ffd5b505050506040513d601f19601f820116820180604052508101906115e39190618a67565b9050611602838960c00160208101906115fc91906187a2565b83614520565b94505f885f01602001602081019061161a91906186cb565b67ffffffffffffffff168960e001602081019061163791906186cb565b67ffffffffffffffff16029450849050611669895f01606001602081019061165f9190618a92565b62ffffff166140fd565b156116a45761169c855f8b5f0160600160208101906116889190618a92565b62ffffff166141099092919063ffffffff16565b810190508094505b6116cb895f0160400160208101906116bc9190617d05565b826116c690618aea565b614204565b6116d5338761453f565b3373ffffffffffffffffffffffffffffffffffffffff168477ffffffffffffffffffffffffffffffffffffffffffffffff167f251db4df45fa692f68b4e3f072919384c5b71995c71bf22888385168930fd22a8b60c001602081019061173b91906187a2565b858d60e001602081019061174f91906186cb565b8e6101000160208101906117639190617a78565b6040516117739493929190618b60565b60405180910390a36117ce8980360381019061178f9190618975565b878a8a8d5f0160800160208101906117a791906189a1565b73ffffffffffffffffffffffffffffffffffffffff1661463290949392919063ffffffff16565b50505050935093915050565b5f6117f4828036038101906117ef91906188d3565b6143a3565b9050919050565b5f73ffffffffffffffffffffffffffffffffffffffff168273ffffffffffffffffffffffffffffffffffffffff160361186b575f6040517f64a0ae920000000000000000000000000000000000000000000000000000000081526004016118629190617654565b60405180910390fd5b5f61187e8383611879613e42565b614722565b90508373ffffffffffffffffffffffffffffffffffffffff168173ffffffffffffffffffffffffffffffffffffffff16146118f4578382826040517f64283d7b0000000000000000000000000000000000000000000000000000000081526004016118eb93929190618ba3565b60405180910390fd5b50505050565b611905838383613f41565b505050565b7f49ecf333e5b8c95c40fdafc95c1ad136e8914a8fb55e9dc8bb01eaa83a2df9ad5f1b81565b5f6119396148e8565b905090565b5f61194833613e5b565b61195b61195485613f27565b3386613f41565b5f805f806119688861499e565b809550819650829350505050600e5f8277ffffffffffffffffffffffffffffffffffffffffffffffff1677ffffffffffffffffffffffffffffffffffffffffffffffff1681526020019081526020015f209150505f815f016040518060c00160405290815f82015f9054906101000a900473ffffffffffffffffffffffffffffffffffffffff1673ffffffffffffffffffffffffffffffffffffffff1673ffffffffffffffffffffffffffffffffffffffff1681526020015f820160149054906101000a900467ffffffffffffffff1667ffffffffffffffff1667ffffffffffffffff168152602001600182015f9054906101000a900473ffffffffffffffffffffffffffffffffffffffff1673ffffffffffffffffffffffffffffffffffffffff1673ffffffffffffffffffffffffffffffffffffffff1681526020016001820160149054906101000a900462ffffff1662ffffff1662ffffff168152602001600282015f9054906101000a900473ffffffffffffffffffffffffffffffffffffffff1673ffffffffffffffffffffffffffffffffffffffff1673ffffffffffffffffffffffffffffffffffffffff1681526020016002820160149054906101000a900462ffffff1662ffffff1662ffffff16815250509050611b73888888846080015173ffffffffffffffffffffffffffffffffffffffff166149c3909392919063ffffffff16565b5f8273__$5a2ea6afd4f7634e810a44a1cab25e81c7$__63c49d2621909187876040518463ffffffff1660e01b8152600401611bb193929190618be7565b602060405180830381865af4158015611bcc573d5f803e3d5ffd5b505050506040513d601f19601f82011682018060405250810190611bf09190618c1c565b90505f805f846020015167ffffffffffffffff168467ffffffffffffffff16029050611c2a815f8a60020b614aaf9092919063ffffffff16565b98505f856060015190505f8660a001519050611c4a8162ffffff166140fd565b15611c7157611c6a8360018362ffffff166141099092919063ffffffff16565b9450611c8f565b611c8c8b60018462ffffff166141099092919063ffffffff16565b93505b611c9d8262ffffff166140fd565b15611ccf57611cbd8360018462ffffff166141099092919063ffffffff16565b85611cc89190618c47565b9450611d2c565b5f611cea8c5f8562ffffff166141099092919063ffffffff16565b90508085611cf89190618c47565b94505f8113611d1b5780611d0b90618aea565b8c611d169190618c88565b611d28565b808c611d279190618cbb565b5b9b50505b5050505f611d45888888614ad39092919063ffffffff16565b90505f815f015190505f73ffffffffffffffffffffffffffffffffffffffff168173ffffffffffffffffffffffffffffffffffffffff1603611da657600c5f9054906101000a900473ffffffffffffffffffffffffffffffffffffffff1690505b5f841315611e4957611db784614b7f565b60105f8373ffffffffffffffffffffffffffffffffffffffff1673ffffffffffffffffffffffffffffffffffffffff1681526020019081526020015f205f886040015173ffffffffffffffffffffffffffffffffffffffff1673ffffffffffffffffffffffffffffffffffffffff1681526020019081526020015f205f828254611e419190618c88565b925050819055505b5f831315611eeb57611e5a83614b7f565b60105f8373ffffffffffffffffffffffffffffffffffffffff1673ffffffffffffffffffffffffffffffffffffffff1681526020019081526020015f205f885f015173ffffffffffffffffffffffffffffffffffffffff1673ffffffffffffffffffffffffffffffffffffffff1681526020019081526020015f205f828254611ee39190618c88565b925050819055505b5f826020015167ffffffffffffffff1603611f0a57611f098d614182565b5b611f1f865f0151611f1a8c614bcd565b614204565b8c7ffc7df80a30ee916cc040221cf6fcfb3c6dc994b3fa4c4ab23e8a0f134de5c0c086604051611f4f9190617c70565b60405180910390a2611f8a8d868e8e8a6080015173ffffffffffffffffffffffffffffffffffffffff16614c3b90949392919063ffffffff16565b5050505050505050509392505050565b600f602052805f5260405f205f915054906101000a900460ff1681565b5f80611fc233613e5b565b611fe08560c0016020810190611fd891906187a2565b60020b614341565b5f611ffc865f01803603810190611ff791906188d3565b6143a3565b90505f600e5f8377ffffffffffffffffffffffffffffffffffffffffffffffff1677ffffffffffffffffffffffffffffffffffffffffffffffff1681526020019081526020015f20905061204f816143f1565b6120a0878036038101906120639190618d50565b87878a5f01608001602081019061207a91906189a1565b73ffffffffffffffffffffffffffffffffffffffff16614d2a909392919063ffffffff16565b5f8173__$5a2ea6afd4f7634e810a44a1cab25e81c7$__63a151a7e190918a60c00160208101906120d191906187a2565b8b60e00160208101906120e491906186cb565b6040518463ffffffff1660e01b815260040161210293929190618d7c565b602060405180830381865af415801561211d573d5f803e3d5ffd5b505050506040513d601f19601f820116820180604052508101906121419190618c1c565b9050875f01602001602081019061215891906186cb565b67ffffffffffffffff168167ffffffffffffffff1602945061219b8560018a60c001602081019061218991906187a2565b60020b614aaf9092919063ffffffff16565b93505f8590505f6121ab86614bcd565b90506121cf8a5f0160a00160208101906121c59190618a92565b62ffffff166140fd565b1561221757612202875f8c5f0160a00160208101906121ee9190618a92565b62ffffff166141099092919063ffffffff16565b8261220d9190618db1565b9150819650612256565b612245865f8c5f0160a00160208101906122319190618a92565b62ffffff166141099092919063ffffffff16565b816122509190618c47565b90508095505b6122748a5f01604001602081019061226e9190617d05565b83614204565b61229a8a5f015f01602081019061228b9190617d05565b8261229590618aea565b614204565b3373ffffffffffffffffffffffffffffffffffffffff168577ffffffffffffffffffffffffffffffffffffffffffffffff167fc4c20b9c4a5ada3b01b7a391a08dd81a1be01dd8ef63170dd9da44ecee3db11b8c60c001602081019061230091906187a2565b8660405161230f929190618df1565b60405180910390a361236a8a80360381019061232b9190618d50565b848b8b8e5f01608001602081019061234391906189a1565b73ffffffffffffffffffffffffffffffffffffffff16614e1790949392919063ffffffff16565b5050505050935093915050565b6010602052815f5260405f20602052805f5260405f205f91509150505481565b5f6123ef82600e5f8677ffffffffffffffffffffffffffffffffffffffffffffffff1677ffffffffffffffffffffffffffffffffffffffffffffffff1681526020019081526020015f20614f0790919063ffffffff16565b905092915050565b61241183838360405180602001604052805f81525061325a565b505050565b5f80612420614f53565b915091509091565b5f612476600e5f8477ffffffffffffffffffffffffffffffffffffffffffffffff1677ffffffffffffffffffffffffffffffffffffffffffffffff1681526020019081526020015f20614f97565b9050919050565b5f61248782613d83565b9050919050565b5f61249833613e5b565b5f600d5f8473ffffffffffffffffffffffffffffffffffffffff1673ffffffffffffffffffffffffffffffffffffffff1681526020019081526020015f205490506124f88373ffffffffffffffffffffffffffffffffffffffff16614fc6565b600d5f8573ffffffffffffffffffffffffffffffffffffffff1673ffffffffffffffffffffffffffffffffffffffff1681526020019081526020015f208190555080600d5f8573ffffffffffffffffffffffffffffffffffffffff1673ffffffffffffffffffffffffffffffffffffffff1681526020019081526020015f20546125829190618cbb565b91506125968361259184614bcd565b614204565b50919050565b6125a4615073565b5f600f5f8373ffffffffffffffffffffffffffffffffffffffff1673ffffffffffffffffffffffffffffffffffffffff1681526020019081526020015f205f6101000a81548160ff0219169083151502179055508073ffffffffffffffffffffffffffffffffffffffff167f88f58aa68e1f754fecfec41a6758d18d4a53fa15d4e206fd54bbdfe7a9e98da760405160405180910390a250565b600a805461264b90618671565b80601f016020809104026020016040519081016040528092919081815260200182805461267790618671565b80156126c25780601f10612699576101008083540402835291602001916126c2565b820191905f5260205f20905b8154815290600101906020018083116126a557829003601f168201915b505050505081565b5f8073ffffffffffffffffffffffffffffffffffffffff168273ffffffffffffffffffffffffffffffffffffffff160361273b575f6040517f89c62b640000000000000000000000000000000000000000000000000000000081526004016127329190617654565b60405180910390fd5b60025f8373ffffffffffffffffffffffffffffffffffffffff1673ffffffffffffffffffffffffffffffffffffffff1681526020019081526020015f20549050919050565b612788615073565b6127915f6150fa565b565b5f61279c613e42565b90508073ffffffffffffffffffffffffffffffffffffffff166127bd61358c565b73ffffffffffffffffffffffffffffffffffffffff161461281557806040517f118cdaa700000000000000000000000000000000000000000000000000000000815260040161280c9190617654565b60405180910390fd5b61281e816150fa565b50565b8342111561285b576040517f1a15a3cc00000000000000000000000000000000000000000000000000000000815260040160405180910390fd5b5f6128bd7f49ecf333e5b8c95c40fdafc95c1ad136e8914a8fb55e9dc8bb01eaa83a2df9ad5f1b888861288d8a61512a565b896040516020016128a2959493929190618e18565b60405160208183030381529060405280519060200120615183565b90505f6128c98761247d565b90508073ffffffffffffffffffffffffffffffffffffffff168873ffffffffffffffffffffffffffffffffffffffff1603612930576040517f8baa579f00000000000000000000000000000000000000000000000000000000815260040160405180910390fd5b5f8173ffffffffffffffffffffffffffffffffffffffff163b1115612a4f57631626ba7e60e01b8173ffffffffffffffffffffffffffffffffffffffff16631626ba7e8487878a60405160200161298993929190618ebd565b6040516020818303038152906040526040518363ffffffff1660e01b81526004016129b5929190618ef9565b602060405180830381865afa1580156129d0573d5f803e3d5ffd5b505050506040513d601f19601f820116820180604052508101906129f49190618f3b565b7bffffffffffffffffffffffffffffffffffffffffffffffffffffffff191614612a4a576040517f8baa579f00000000000000000000000000000000000000000000000000000000815260040160405180910390fd5b612ac0565b8073ffffffffffffffffffffffffffffffffffffffff16612a728387878761519c565b73ffffffffffffffffffffffffffffffffffffffff1614612abf576040517f8baa579f00000000000000000000000000000000000000000000000000000000815260040160405180910390fd5b5b612acd88888360016151ca565b5050505050505050565b5f6060805f805f6060612ae8615389565b612af06153c4565b46305f801b5f67ffffffffffffffff811115612b0f57612b0e618292565b5b604051908082528060200260200182016040528015612b3d5781602001602082028036833780820191505090505b507f0f00000000000000000000000000000000000000000000000000000000000000959493929190965096509650965096509650965090919293949596565b5f60055f9054906101000a900473ffffffffffffffffffffffffffffffffffffffff16905090565b600d602052805f5260405f205f915090505481565b606060018054612bc890618671565b80601f0160208091040260200160405190810160405280929190818152602001828054612bf490618671565b8015612c3f5780601f10612c1657610100808354040283529160200191612c3f565b820191905f5260205f20905b815481529060010190602001808311612c2257829003601f168201915b5050505050905090565b5f612c5483836153ff565b5092915050565b612c63615073565b6001600f5f8373ffffffffffffffffffffffffffffffffffffffff1673ffffffffffffffffffffffffffffffffffffffff1681526020019081526020015f205f6101000a81548160ff0219169083151502179055508073ffffffffffffffffffffffffffffffffffffffff167feb73900b98b6a3e2b8b01708fe544760cf570d21e7fbe5225f24e48b5b2b432e60405160405180910390a250565b612d06617343565b600e5f8377ffffffffffffffffffffffffffffffffffffffffffffffff1677ffffffffffffffffffffffffffffffffffffffffffffffff1681526020019081526020015f205f016040518060c00160405290815f82015f9054906101000a900473ffffffffffffffffffffffffffffffffffffffff1673ffffffffffffffffffffffffffffffffffffffff1673ffffffffffffffffffffffffffffffffffffffff1681526020015f820160149054906101000a900467ffffffffffffffff1667ffffffffffffffff1667ffffffffffffffff168152602001600182015f9054906101000a900473ffffffffffffffffffffffffffffffffffffffff1673ffffffffffffffffffffffffffffffffffffffff1673ffffffffffffffffffffffffffffffffffffffff1681526020016001820160149054906101000a900462ffffff1662ffffff1662ffffff168152602001600282015f9054906101000a900473ffffffffffffffffffffffffffffffffffffffff1673ffffffffffffffffffffffffffffffffffffffff1673ffffffffffffffffffffffffffffffffffffffff1681526020016002820160149054906101000a900462ffffff1662ffffff1662ffffff16815250509050919050565b6060612ee08433615415565b8373ffffffffffffffffffffffffffffffffffffffff166315c7afb43385856040518463ffffffff1660e01b8152600401612f1d93929190618f92565b5f604051808303815f875af1158015612f38573d5f803e3d5ffd5b505050506040513d5f823e3d601f19601f82011682018060405250810190612f609190619030565b9050612f6a6154a6565b5f80612f74614f53565b915091505f826fffffffffffffffffffffffffffffffff16148015612fab57505f816fffffffffffffffffffffffffffffffff1614155b15612fe2576040517f5212cba100000000000000000000000000000000000000000000000000000000815260040160405180910390fd5b50509392505050565b5f60105f3373ffffffffffffffffffffffffffffffffffffffff1673ffffffffffffffffffffffffffffffffffffffff1681526020019081526020015f205f8373ffffffffffffffffffffffffffffffffffffffff1673ffffffffffffffffffffffffffffffffffffffff1681526020019081526020015f205490505f60105f3373ffffffffffffffffffffffffffffffffffffffff1673ffffffffffffffffffffffffffffffffffffffff1681526020019081526020015f205f8473ffffffffffffffffffffffffffffffffffffffff1673ffffffffffffffffffffffffffffffffffffffff1681526020019081526020015f208190555080600d5f8473ffffffffffffffffffffffffffffffffffffffff1673ffffffffffffffffffffffffffffffffffffffff1681526020019081526020015f205f8282546131309190618cbb565b9250508190555061316283828473ffffffffffffffffffffffffffffffffffffffff1661554a9092919063ffffffff16565b8173ffffffffffffffffffffffffffffffffffffffff168373ffffffffffffffffffffffffffffffffffffffff163373ffffffffffffffffffffffffffffffffffffffff167f1c4f94f28cc9152354d4b98b8614b28c6c828a98d88228fa9577c7b9475e120c846040516131d691906176e4565b60405180910390a492915050565b5f61323c82600e5f8677ffffffffffffffffffffffffffffffffffffffffffffffff1677ffffffffffffffffffffffffffffffffffffffffffffffff1681526020019081526020015f2061565690919063ffffffff16565b905092915050565b61325661324f613e42565b8383615675565b5050565b6132658484846117fb565b613271848484846157de565b50505050565b606061328282613d83565b505f61328c615990565b90505f8151116132aa5760405180602001604052805f8152506132d5565b806132b484615a20565b6040516020016132c59291906190b1565b6040516020818303038152906040525b915050919050565b5f61332b600e5f8477ffffffffffffffffffffffffffffffffffffffffffffffff1677ffffffffffffffffffffffffffffffffffffffffffffffff1681526020019081526020015f20615aea565b9050919050565b61333a6173c9565b5f805f6133468561499e565b9250925092505f600e5f8577ffffffffffffffffffffffffffffffffffffffffffffffff1677ffffffffffffffffffffffffffffffffffffffffffffffff1681526020019081526020015f2090505f6133aa848484614ad39092919063ffffffff16565b90505f8273__$5a2ea6afd4f7634e810a44a1cab25e81c7$__63329b4a01909187876040518463ffffffff1660e01b81526004016133ea93929190618be7565b602060405180830381865af4158015613405573d5f803e3d5ffd5b505050506040513d601f19601f820116820180604052508101906134299190618c1c565b90506040518060600160405280835f015173ffffffffffffffffffffffffffffffffffffffff1681526020018284602001510367ffffffffffffffff1681526020018267ffffffffffffffff168152509650505050505050919050565b5f8061349183615afe565b61349a84615b2d565b91509150915091565b600c5f9054906101000a900473ffffffffffffffffffffffffffffffffffffffff1681565b6134d133613e5b565b5f811115613573576134f4836134e683614bcd565b6134ef90618aea565b614204565b80600d5f8573ffffffffffffffffffffffffffffffffffffffff1673ffffffffffffffffffffffffffffffffffffffff1681526020019081526020015f205f8282546135409190618cbb565b9250508190555061357282828573ffffffffffffffffffffffffffffffffffffffff1661554a9092919063ffffffff16565b5b505050565b613580615073565b61358981615b5f565b50565b5f60065f9054906101000a900473ffffffffffffffffffffffffffffffffffffffff16905090565b600b80546135c190618671565b80601f01602080910402602001604051908101604052809291908181526020018280546135ed90618671565b80156136385780601f1061360f57610100808354040283529160200191613638565b820191905f5260205f20905b81548152906001019060200180831161361b57829003601f168201915b505050505081565b5f60045f8473ffffffffffffffffffffffffffffffffffffffff1673ffffffffffffffffffffffffffffffffffffffff1681526020019081526020015f205f8373ffffffffffffffffffffffffffffffffffffffff1673ffffffffffffffffffffffffffffffffffffffff1681526020019081526020015f205f9054906101000a900460ff16905092915050565b5f81549050919050565b6136e0615073565b8060065f6101000a81548173ffffffffffffffffffffffffffffffffffffffff021916908373ffffffffffffffffffffffffffffffffffffffff1602179055508073ffffffffffffffffffffffffffffffffffffffff1661373f612b7c565b73ffffffffffffffffffffffffffffffffffffffff167f38d16b8cac22d99fc7c124b9cd0de2d3fa1faef420bfe791d8c362d765e2270060405160405180910390a350565b606081602061379391906190d4565b67ffffffffffffffff8111156137ac576137ab618292565b5b6040519080825280601f01601f1916602001820160405280156137de5781602001600182028036833780820191505090505b5090505f5b828110156138045780840154602060018301028301526001810190506137e3565b5092915050565b5f613859600e5f8477ffffffffffffffffffffffffffffffffffffffffffffffff1677ffffffffffffffffffffffffffffffffffffffffffffffff1681526020019081526020015f20615be5565b9050919050565b61386933613e5b565b5f83602001602081019061387d91906186cb565b67ffffffffffffffff16036138be576040517faf6c36ab00000000000000000000000000000000000000000000000000000000815260040160405180910390fd5b5f8360600160208101906138d29190618a92565b90505f8460a00160208101906138e89190618a92565b90506138f88262ffffff16615bf9565b801561390e575061390d8162ffffff16615bf9565b5b613944576040517f7a34030f00000000000000000000000000000000000000000000000000000000815260040160405180910390fd5b5f6139538262ffffff16615c45565b6139618462ffffff16615c45565b0160020b121561399d576040517f7a34030f00000000000000000000000000000000000000000000000000000000815260040160405180910390fd5b5f6139ac8362ffffff16615c45565b60020b12806139ca57505f6139c58262ffffff16615c45565b60020b125b15613a27576139dd8162ffffff166140fd565b15156139ed8362ffffff166140fd565b151514613a26576040517f7a34030f00000000000000000000000000000000000000000000000000000000815260040160405180910390fd5b5b5f856080016020810190613a3b91906189a1565b9050613a5c8173ffffffffffffffffffffffffffffffffffffffff16615c58565b613a9d57806040517fe65af6a0000000000000000000000000000000000000000000000000000000008152600401613a949190617654565b60405180910390fd5b613ada86803603810190613ab191906188d3565b86868473ffffffffffffffffffffffffffffffffffffffff16615cc3909392919063ffffffff16565b5f613af487803603810190613aef91906188d3565b6143a3565b9050600e5f8277ffffffffffffffffffffffffffffffffffffffffffffffff1677ffffffffffffffffffffffffffffffffffffffffffffffff1681526020019081526020015f2073__$5a2ea6afd4f7634e810a44a1cab25e81c7$__63ab8a7e3f9091896040518363ffffffff1660e01b8152600401613b75929190619252565b5f6040518083038186803b158015613b8b575f80fd5b505af4158015613b9d573d5f803e3d5ffd5b50505050866040016020810190613bb49190617d05565b73ffffffffffffffffffffffffffffffffffffffff16875f016020810190613bdc9190617d05565b73ffffffffffffffffffffffffffffffffffffffff168277ffffffffffffffffffffffffffffffffffffffffffffffff167f803427d75ce3214f82dc7aa4910635170a6655e2c1663dc03429dd04100cba5a8a6020016020810190613c4191906186cb565b888888604051613c549493929190619297565b60405180910390a4613c9987803603810190613c7091906188d3565b87878573ffffffffffffffffffffffffffffffffffffffff16615db0909392919063ffffffff16565b50505050505050565b5f7f80ac58cd000000000000000000000000000000000000000000000000000000007bffffffffffffffffffffffffffffffffffffffffffffffffffffffff1916827bffffffffffffffffffffffffffffffffffffffffffffffffffffffff19161480613d6c57507f5b5e139f000000000000000000000000000000000000000000000000000000007bffffffffffffffffffffffffffffffffffffffffffffffffffffffff1916827bffffffffffffffffffffffffffffffffffffffffffffffffffffffff1916145b80613d7c5750613d7b82615e9d565b5b9050919050565b5f80613d8e83613f27565b90505f73ffffffffffffffffffffffffffffffffffffffff168173ffffffffffffffffffffffffffffffffffffffff1603613e0057826040517f7e273289000000000000000000000000000000000000000000000000000000008152600401613df791906176e4565b60405180910390fd5b80915050919050565b5f60035f8381526020019081526020015f205f9054906101000a900473ffffffffffffffffffffffffffffffffffffffff169050919050565b5f33905090565b613e5683838360016151ca565b505050565b5f613e64615f06565b90505f613e6f615f44565b90508173ffffffffffffffffffffffffffffffffffffffff168373ffffffffffffffffffffffffffffffffffffffff1603613eab575050613f24565b8073ffffffffffffffffffffffffffffffffffffffff168373ffffffffffffffffffffffffffffffffffffffff1603613ee5575050613f24565b81816040517f74d86365000000000000000000000000000000000000000000000000000000008152600401613f1b9291906184c9565b60405180910390fd5b50565b5f60095f8381526020019081526020015f20549050919050565b613f4c838383615f6c565b613fff575f73ffffffffffffffffffffffffffffffffffffffff168373ffffffffffffffffffffffffffffffffffffffff1603613fc057806040517f7e273289000000000000000000000000000000000000000000000000000000008152600401613fb791906176e4565b60405180910390fd5b81816040517f177e802f000000000000000000000000000000000000000000000000000000008152600401613ff69291906192da565b60405180910390fd5b505050565b5f8160401c9050919050565b61404d7302000000000000000000000000000000000000008573ffffffffffffffffffffffffffffffffffffffff1661602c90919063ffffffff16565b156140f7576140f663295b52c560e01b338585856040516024016140749493929190619363565b604051602081830303815290604052907bffffffffffffffffffffffffffffffffffffffffffffffffffffffff19166020820180517bffffffffffffffffffffffffffffffffffffffffffffffffffffffff83818316178352505050508573ffffffffffffffffffffffffffffffffffffffff1661605190919063ffffffff16565b5b50505050565b5f8160171c9050919050565b5f8061411485615c45565b90505f808260020b1390505f8161412d57825f0361412f565b825b62ffffff1690505f61415d828861414691906190d4565b620f4240886141555785614158565b85155b6160de565b905082614173578061416e90618aea565b614175565b805b9450505050509392505050565b5f61418e5f835f614722565b90505f73ffffffffffffffffffffffffffffffffffffffff168173ffffffffffffffffffffffffffffffffffffffff160361420057816040517f7e2732890000000000000000000000000000000000000000000000000000000081526004016141f791906176e4565b60405180910390fd5b5050565b5f81031561424d575f614215615f06565b90505f6142238285856160f3565b90505f810361423957614234616111565b61424a565b8281036142495761424861616a565b5b5b50505b5050565b61428e7301000000000000000000000000000000000000008673ffffffffffffffffffffffffffffffffffffffff1661602c90919063ffffffff16565b1561433a57614339635125ce9c60e01b33868686866040516024016142b79594939291906193a1565b604051602081830303815290604052907bffffffffffffffffffffffffffffffffffffffffffffffffffffffff19166020820180517bffffffffffffffffffffffffffffffffffffffffffffffffffffffff83818316178352505050508673ffffffffffffffffffffffffffffffffffffffff1661605190919063ffffffff16565b5b5050505050565b6207ffff60020b8160020b138061436957506207ffff614360906193ed565b60020b8160020b125b156143a0576040517fce8ef7fc00000000000000000000000000000000000000000000000000000000815260040160405180910390fd5b50565b5f80826040516020016143b691906180f5565b60405160208183030381529060405280519060200120905077ffffffffffffffffffffffffffffffffffffffffffffffff8116915050919050565b6143fa81614f97565b614430576040517f1e3636e600000000000000000000000000000000000000000000000000000000815260040160405180910390fd5b50565b6144707320000000000000000000000000000000000000008573ffffffffffffffffffffffffffffffffffffffff1661602c90919063ffffffff16565b1561451a57614519633fda46bb60e01b338585856040516024016144979493929190619510565b604051602081830303815290604052907bffffffffffffffffffffffffffffffffffffffffffffffffffffffff19166020820180517bffffffffffffffffffffffffffffffffffffffffffffffffffffffff83818316178352505050508573ffffffffffffffffffffffffffffffffffffffff1661605190919063ffffffff16565b5b50505050565b5f808362ffffff1690508460401b8160281b0183019150509392505050565b5f73ffffffffffffffffffffffffffffffffffffffff168273ffffffffffffffffffffffffffffffffffffffff16036145af575f6040517f64a0ae920000000000000000000000000000000000000000000000000000000081526004016145a69190617654565b60405180910390fd5b5f6145bb83835f614722565b90505f73ffffffffffffffffffffffffffffffffffffffff168173ffffffffffffffffffffffffffffffffffffffff161461462d575f6040517f73c6ac6e0000000000000000000000000000000000000000000000000000000081526004016146249190617654565b60405180910390fd5b505050565b61466f7310000000000000000000000000000000000000008673ffffffffffffffffffffffffffffffffffffffff1661602c90919063ffffffff16565b1561471b5761471a63eba8155960e01b3386868686604051602401614698959493929190619550565b604051602081830303815290604052907bffffffffffffffffffffffffffffffffffffffffffffffffffffffff19166020820180517bffffffffffffffffffffffffffffffffffffffffffffffffffffffff83818316178352505050508673ffffffffffffffffffffffffffffffffffffffff1661605190919063ffffffff16565b5b5050505050565b5f8061472d84613f27565b90505f73ffffffffffffffffffffffffffffffffffffffff168373ffffffffffffffffffffffffffffffffffffffff161461476e5761476d818486613f41565b5b5f73ffffffffffffffffffffffffffffffffffffffff168173ffffffffffffffffffffffffffffffffffffffff16146147f9576147ad5f855f806151ca565b600160025f8373ffffffffffffffffffffffffffffffffffffffff1673ffffffffffffffffffffffffffffffffffffffff1681526020019081526020015f205f82825403925050819055505b5f73ffffffffffffffffffffffffffffffffffffffff168573ffffffffffffffffffffffffffffffffffffffff161461487857600160025f8773ffffffffffffffffffffffffffffffffffffffff1673ffffffffffffffffffffffffffffffffffffffff1681526020019081526020015f205f82825401925050819055505b61488284866161c3565b838573ffffffffffffffffffffffffffffffffffffffff168273ffffffffffffffffffffffffffffffffffffffff167fddf252ad1be2c89b69c2b068fc378daa952ba7f163c4a11628f55a4df523b3ef60405160405180910390a4809150509392505050565b5f7f000000000000000000000000000000000000000000000000000000000000000073ffffffffffffffffffffffffffffffffffffffff163073ffffffffffffffffffffffffffffffffffffffff1614801561496357507f000000000000000000000000000000000000000000000000000000000000000046145b15614990577f0000000000000000000000000000000000000000000000000000000000000000905061499b565b614998616218565b90505b90565b5f805f8360401c925062ffffff8460281c16915064ffffffffff841690509193909250565b6149ff72800000000000000000000000000000000000008573ffffffffffffffffffffffffffffffffffffffff1661602c90919063ffffffff16565b15614aa957614aa863827e0eb260e01b33858585604051602401614a26949392919061959f565b604051602081830303815290604052907bffffffffffffffffffffffffffffffffffffffffffffffffffffffff19166020820180517bffffffffffffffffffffffffffffffffffffffffffffffffffffffff83818316178352505050508573ffffffffffffffffffffffffffffffffffffffff1661605190919063ffffffff16565b5b50505050565b5f614aca606084901b614ac48660020b6162ad565b846160de565b90509392505050565b614adb617411565b614ae684848461658e565b6040518060400160405290815f82015f9054906101000a900473ffffffffffffffffffffffffffffffffffffffff1673ffffffffffffffffffffffffffffffffffffffff1673ffffffffffffffffffffffffffffffffffffffff1681526020015f820160149054906101000a900467ffffffffffffffff1667ffffffffffffffff1667ffffffffffffffff168152505090509392505050565b5f80821215614bc557816040517fa8ce4432000000000000000000000000000000000000000000000000000000008152600401614bbc9190617fa4565b60405180910390fd5b819050919050565b5f7f7fffffffffffffffffffffffffffffffffffffffffffffffffffffffffffffff821115614c3357816040517f24775e06000000000000000000000000000000000000000000000000000000008152600401614c2a91906176e4565b60405180910390fd5b819050919050565b614c7772400000000000000000000000000000000000008673ffffffffffffffffffffffffffffffffffffffff1661602c90919063ffffffff16565b15614d2357614d226348042cf460e01b3386868686604051602401614ca09594939291906195dd565b604051602081830303815290604052907bffffffffffffffffffffffffffffffffffffffffffffffffffffffff19166020820180517bffffffffffffffffffffffffffffffffffffffffffffffffffffffff83818316178352505050508673ffffffffffffffffffffffffffffffffffffffff1661605190919063ffffffff16565b5b5050505050565b614d677308000000000000000000000000000000000000008573ffffffffffffffffffffffffffffffffffffffff1661602c90919063ffffffff16565b15614e1157614e1063fab3c75660e01b33858585604051602401614d8e949392919061966a565b604051602081830303815290604052907bffffffffffffffffffffffffffffffffffffffffffffffffffffffff19166020820180517bffffffffffffffffffffffffffffffffffffffffffffffffffffffff83818316178352505050508573ffffffffffffffffffffffffffffffffffffffff1661605190919063ffffffff16565b5b50505050565b614e547304000000000000000000000000000000000000008673ffffffffffffffffffffffffffffffffffffffff1661602c90919063ffffffff16565b15614f0057614eff639eb477b260e01b3386868686604051602401614e7d9594939291906196aa565b604051602081830303815290604052907bffffffffffffffffffffffffffffffffffffffffffffffffffffffff19166020820180517bffffffffffffffffffffffffffffffffffffffffffffffffffffffff83818316178352505050508673ffffffffffffffffffffffffffffffffffffffff1661605190919063ffffffff16565b5b5050505050565b5f614f1e82846005016165d590919063ffffffff16565b614f41846003015f8560020b60020b81526020019081526020015f205f01616631565b614f4b91906196f9565b905092915050565b5f807f760a9a962ae3d184e99c0483cf5684fb3170f47116ca4f445c50209da4f4f9075c6fffffffffffffffffffffffffffffffff811692508060801c9150509091565b5f80825f015f0160149054906101000a900467ffffffffffffffff1667ffffffffffffffff1614159050919050565b5f614fe68273ffffffffffffffffffffffffffffffffffffffff166166a6565b15614ff35747905061506e565b8173ffffffffffffffffffffffffffffffffffffffff166370a08231306040518263ffffffff1660e01b815260040161502c9190617654565b602060405180830381865afa158015615047573d5f803e3d5ffd5b505050506040513d601f19601f8201168201806040525081019061506b9190619748565b90505b919050565b61507b613e42565b73ffffffffffffffffffffffffffffffffffffffff16615099612b7c565b73ffffffffffffffffffffffffffffffffffffffff16146150f8576150bc613e42565b6040517f118cdaa70000000000000000000000000000000000000000000000000000000081526004016150ef9190617654565b60405180910390fd5b565b60065f6101000a81549073ffffffffffffffffffffffffffffffffffffffff0219169055615127816166dd565b50565b5f8060095f8481526020019081526020015f2054905060a081901c915074010000000000000000000000000000000000000000816151689190618c88565b60095f8581526020019081526020015f208190555050919050565b5f61519561518f6148e8565b836167a0565b9050919050565b5f805f806151ac888888886167e0565b9250925092506151bc82826168c7565b829350505050949350505050565b808061520257505f73ffffffffffffffffffffffffffffffffffffffff168273ffffffffffffffffffffffffffffffffffffffff1614155b15615334575f61521184613d83565b90505f73ffffffffffffffffffffffffffffffffffffffff168373ffffffffffffffffffffffffffffffffffffffff161415801561527b57508273ffffffffffffffffffffffffffffffffffffffff168173ffffffffffffffffffffffffffffffffffffffff1614155b801561528e575061528c8184613640565b155b156152d057826040517fa9fbf51f0000000000000000000000000000000000000000000000000000000081526004016152c79190617654565b60405180910390fd5b811561533257838573ffffffffffffffffffffffffffffffffffffffff168273ffffffffffffffffffffffffffffffffffffffff167f8c5be1e5ebec7d5bd14f71427d1e84f3dd0314c0f7b2291e5b200ac8c7c3b92560405160405180910390a45b505b8360035f8581526020019081526020015f205f6101000a81548173ffffffffffffffffffffffffffffffffffffffff021916908373ffffffffffffffffffffffffffffffffffffffff16021790555050505050565b60606153bf60077f0000000000000000000000000000000000000000000000000000000000000000616a2990919063ffffffff16565b905090565b60606153fa60087f0000000000000000000000000000000000000000000000000000000000000000616a2990919063ffffffff16565b905090565b5f81601452825f526028600c205c905092915050565b7f760a9a962ae3d184e99c0483cf5684fb3170f47116ca4f445c50209da4f4f9075c6fffffffffffffffffffffffffffffffff8116600281027f722b431450ce53c44434ec138439e45a0639fe031b803ee019b776fae5cfa2b10184815d83600182015d600183017f760a9a962ae3d184e99c0483cf5684fb3170f47116ca4f445c50209da4f4f9075d5050505050565b7f760a9a962ae3d184e99c0483cf5684fb3170f47116ca4f445c50209da4f4f9075c6fffffffffffffffffffffffffffffffff8116806154ed5763f1c77ed05f526004601cfd5b600260018203027f722b431450ce53c44434ec138439e45a0639fe031b803ee019b776fae5cfa2b1015f815d5f600182015d600183037f760a9a962ae3d184e99c0483cf5684fb3170f47116ca4f445c50209da4f4f9075d505050565b5f61556a8473ffffffffffffffffffffffffffffffffffffffff166166a6565b156155b5575f805f8085875af19050806155b0576040517ff4b3b1bc00000000000000000000000000000000000000000000000000000000815260040160405180910390fd5b615650565b6040517fa9059cbb00000000000000000000000000000000000000000000000000000000815273ffffffffffffffffffffffffffffffffffffffff8416600482015282602482015260205f6044835f895af13d15601f3d1160015f51141617169150508061564f576040517ff27f64e400000000000000000000000000000000000000000000000000000000815260040160405180910390fd5b5b50505050565b5f61566d8284600401616ad690919063ffffffff16565b905092915050565b5f73ffffffffffffffffffffffffffffffffffffffff168273ffffffffffffffffffffffffffffffffffffffff16036156e557816040517f5b08ba180000000000000000000000000000000000000000000000000000000081526004016156dc9190617654565b60405180910390fd5b8060045f8573ffffffffffffffffffffffffffffffffffffffff1673ffffffffffffffffffffffffffffffffffffffff1681526020019081526020015f205f8473ffffffffffffffffffffffffffffffffffffffff1673ffffffffffffffffffffffffffffffffffffffff1681526020019081526020015f205f6101000a81548160ff0219169083151502179055508173ffffffffffffffffffffffffffffffffffffffff168373ffffffffffffffffffffffffffffffffffffffff167f17307eab39ab6107e8899845ad3d59bd9653f200f220920489ca2b5937696c31836040516157d191906174f4565b60405180910390a3505050565b5f8373ffffffffffffffffffffffffffffffffffffffff163b111561598a578273ffffffffffffffffffffffffffffffffffffffff1663150b7a02615821613e42565b8685856040518563ffffffff1660e01b81526004016158439493929190619773565b6020604051808303815f875af192505050801561587e57506040513d601f19601f8201168201806040525081019061587b9190618f3b565b60015b6158ff573d805f81146158ac576040519150601f19603f3d011682016040523d82523d5f602084013e6158b1565b606091505b505f8151036158f757836040517f64a0ae920000000000000000000000000000000000000000000000000000000081526004016158ee9190617654565b60405180910390fd5b805181602001fd5b63150b7a0260e01b7bffffffffffffffffffffffffffffffffffffffffffffffffffffffff1916817bffffffffffffffffffffffffffffffffffffffffffffffffffffffff19161461598857836040517f64a0ae9200000000000000000000000000000000000000000000000000000000815260040161597f9190617654565b60405180910390fd5b505b50505050565b6060600a805461599f90618671565b80601f01602080910402602001604051908101604052809291908181526020018280546159cb90618671565b8015615a165780601f106159ed57610100808354040283529160200191615a16565b820191905f5260205f20905b8154815290600101906020018083116159f957829003601f168201915b5050505050905090565b60605f6001615a2e84616c85565b0190505f8167ffffffffffffffff811115615a4c57615a4b618292565b5b6040519080825280601f01601f191660200182016040528015615a7e5781602001600182028036833780820191505090505b5090505f82602083010190505b600115615adf578080600190039150507f3031323334353637383961626364656600000000000000000000000000000000600a86061a8153600a8581615ad457615ad36197bd565b5b0494505f8503615a8b575b819350505050919050565b5f615af782600401616dd6565b9050919050565b5f600282027f722b431450ce53c44434ec138439e45a0639fe031b803ee019b776fae5cfa2b1015c9050919050565b5f600160028302017f722b431450ce53c44434ec138439e45a0639fe031b803ee019b776fae5cfa2b1015c9050919050565b80600c5f6101000a81548173ffffffffffffffffffffffffffffffffffffffff021916908373ffffffffffffffffffffffffffffffffffffffff1602179055508073ffffffffffffffffffffffffffffffffffffffff167fef673bbfc2ac7e4d4b810bffda0b15a1f2b48c2aa4d178d3fca87d0d1f33706260405160405180910390a250565b5f615bf282600401616ec2565b9050919050565b5f80615c0483615c45565b90506207a1208160020b1380615c3c57507ffffffffffffffffffffffffffffffffffffffffffffffffffffffffffff85ee08160020b125b15915050919050565b5f6207a120627fffff8316039050919050565b5f8073ffffffffffffffffffffffffffffffffffffffff168273ffffffffffffffffffffffffffffffffffffffff161480615cbc575072400000000000000000000000000000000000008273ffffffffffffffffffffffffffffffffffffffff1610155b9050919050565b615d007380000000000000000000000000000000000000008573ffffffffffffffffffffffffffffffffffffffff1661602c90919063ffffffff16565b15615daa57615da9635df4d91860e01b33858585604051602401615d2794939291906197ea565b604051602081830303815290604052907bffffffffffffffffffffffffffffffffffffffffffffffffffffffff19166020820180517bffffffffffffffffffffffffffffffffffffffffffffffffffffffff83818316178352505050508573ffffffffffffffffffffffffffffffffffffffff1661605190919063ffffffff16565b5b50505050565b615ded7340000000000000000000000000000000000000008573ffffffffffffffffffffffffffffffffffffffff1661602c90919063ffffffff16565b15615e9757615e966371ded94360e01b33858585604051602401615e1494939291906197ea565b604051602081830303815290604052907bffffffffffffffffffffffffffffffffffffffffffffffffffffffff19166020820180517bffffffffffffffffffffffffffffffffffffffffffffffffffffffff83818316178352505050508573ffffffffffffffffffffffffffffffffffffffff1661605190919063ffffffff16565b5b50505050565b5f7f01ffc9a7000000000000000000000000000000000000000000000000000000007bffffffffffffffffffffffffffffffffffffffffffffffffffffffff1916827bffffffffffffffffffffffffffffffffffffffffffffffffffffffff1916149050919050565b5f80615f10616f0b565b6fffffffffffffffffffffffffffffffff1690505f8111615f31575f615f3e565b615f3d60018203615afe565b5b91505090565b5f615f67615f50616f0b565b6fffffffffffffffffffffffffffffffff16616f45565b905090565b5f8073ffffffffffffffffffffffffffffffffffffffff168373ffffffffffffffffffffffffffffffffffffffff161415801561602357508273ffffffffffffffffffffffffffffffffffffffff168473ffffffffffffffffffffffffffffffffffffffff161480615fe45750615fe38484613640565b5b8061602257508273ffffffffffffffffffffffffffffffffffffffff1661600a83613e09565b73ffffffffffffffffffffffffffffffffffffffff16145b5b90509392505050565b5f80828473ffffffffffffffffffffffffffffffffffffffff16161415905092915050565b5f8061605d8484616f71565b91509150817bffffffffffffffffffffffffffffffffffffffffffffffffffffffff1916817bffffffffffffffffffffffffffffffffffffffffffffffffffffffff1916146160d8576040517f1e048e1d00000000000000000000000000000000000000000000000000000000815260040160405180910390fd5b50505050565b5f815f84860611168385040190509392505050565b5f82601452835f526028600c2082815c01915081815d509392505050565b7001000000000000000000000000000000007f760a9a962ae3d184e99c0483cf5684fb3170f47116ca4f445c50209da4f4f9075c037f760a9a962ae3d184e99c0483cf5684fb3170f47116ca4f445c50209da4f4f9075d565b7001000000000000000000000000000000007f760a9a962ae3d184e99c0483cf5684fb3170f47116ca4f445c50209da4f4f9075c017f760a9a962ae3d184e99c0483cf5684fb3170f47116ca4f445c50209da4f4f9075d565b8073ffffffffffffffffffffffffffffffffffffffff1660a06bffffffffffffffffffffffff901b60095f8581526020019081526020015f2054161760095f8481526020019081526020015f20819055505050565b5f7f8b73c3c69bb8fe3d512ecc4cf759cc79239f7b179b0ffacaa9a75d522b39400f7f00000000000000000000000000000000000000000000000000000000000000007f00000000000000000000000000000000000000000000000000000000000000004630604051602001616292959493929190619829565b60405160208183030381529060405280519060200120905090565b5f6162b782614341565b5f8290505f808260020b126162cc57816162d7565b816162d6906193ed565b5b62ffffff1690505f60018216146162fc576bfff97272373d413259a46990925061630d565b6c0100000000000000000000000092505b5f600282161461632d5760606bfff2e50f5f656932ef12357c8402901c92505b5f600482161461634d5760606bffe5caca7e10e4e61c3624ea8402901c92505b5f600882161461636d5760606bffcb9843d60f6159c9db58838402901c92505b5f601082161461638d5760606bff973b41fa98c081472e68968402901c92505b5f60208216146163ad5760606bff2ea16466c96a3843ec78b38402901c92505b5f60408216146163cd5760606bfe5dee046a99a2a811c461f18402901c92505b5f60808216146163ed5760606bfcbe86c7900a88aedcffc83b8402901c92505b5f61010082161461640e5760606bf987a7253ac413176f2b074c8402901c92505b5f61020082161461642f5760606bf3392b0822b70005940c7a398402901c92505b5f6104008216146164505760606be7159475a2c29b7443b29c7f8402901c92505b5f6108008216146164715760606bd097f3bdfd2022b8845ad8f78402901c92505b5f6110008216146164925760606ba9f746462d870fdf8a65dc1f8402901c92505b5f6120008216146164b35760606b70d869a156d2a1b890bb3df68402901c92505b5f6140008216146164d45760606b31be135f97d08fd9812315058402901c92505b5f6180008216146164f55760606b09aa508b5b7a84e1c677de548402901c92505b5f620100008216146165165760606a5d6af8dedb81196699c3298402901c92505b5f62020000821614616536576060692216e584f5fa1ea926048402901c92505b5f6204000082161461655457606067048a170391f7dc428402901c92505b5f8260020b131561658757827801000000000000000000000000000000000000000000000000616584919061987a565b92505b5050919050565b5f836003015f8460020b60020b81526020019081526020015f206004018264ffffffffff16815481106165c4576165c36198aa565b5b905f5260205f200190509392505050565b5f805f6165e18461702e565b915091506166276166188260ff16875f8662ffffff1662ffffff1681526020019081526020015f205461704b90919063ffffffff16565b67ffffffffffffffff16617064565b9250505092915050565b5f616664825f015f6004811061664a576166496198aa565b5b015f600181526020019081526020015f20545f6004617071565b616695835f015f6004811061667c5761667b6198aa565b5b015f8081526020019081526020015f20545f6004617071565b61669f91906198d7565b9050919050565b5f8073ffffffffffffffffffffffffffffffffffffffff168273ffffffffffffffffffffffffffffffffffffffff16149050919050565b5f60055f9054906101000a900473ffffffffffffffffffffffffffffffffffffffff1690508160055f6101000a81548173ffffffffffffffffffffffffffffffffffffffff021916908373ffffffffffffffffffffffffffffffffffffffff1602179055508173ffffffffffffffffffffffffffffffffffffffff168173ffffffffffffffffffffffffffffffffffffffff167f8be0079c531659141344cd1fd0a4f28419497f9722a3daafe3b4186f6b6457e060405160405180910390a35050565b5f6040517f190100000000000000000000000000000000000000000000000000000000000081528360028201528260228201526042812091505092915050565b5f805f7f7fffffffffffffffffffffffffffffff5d576e7357a4501ddfe92f46681b20a0845f1c111561681c575f6003859250925092506168bd565b5f6001888888886040515f815260200160405260405161683f9493929190619921565b6020604051602081039080840390855afa15801561685f573d5f803e3d5ffd5b5050506020604051035190505f73ffffffffffffffffffffffffffffffffffffffff168173ffffffffffffffffffffffffffffffffffffffff16036168b0575f60015f801b935093509350506168bd565b805f805f1b935093509350505b9450945094915050565b5f60038111156168da576168d9619964565b5b8260038111156168ed576168ec619964565b5b0315616a25576001600381111561690757616906619964565b5b82600381111561691a57616919619964565b5b03616951576040517ff645eedf00000000000000000000000000000000000000000000000000000000815260040160405180910390fd5b6002600381111561696557616964619964565b5b82600381111561697857616977619964565b5b036169bc57805f1c6040517ffce698f70000000000000000000000000000000000000000000000000000000081526004016169b391906176e4565b60405180910390fd5b6003808111156169cf576169ce619964565b5b8260038111156169e2576169e1619964565b5b03616a2457806040517fd78bce0c000000000000000000000000000000000000000000000000000000008152600401616a1b91906179d8565b60405180910390fd5b5b5050565b606060ff5f1b8314616a4557616a3e836170bd565b9050616ad0565b818054616a5190618671565b80601f0160208091040260200160405190810160405280929190818152602001828054616a7d90618671565b8015616ac85780601f10616a9f57610100808354040283529160200191616ac8565b820191905f5260205f20905b815481529060010190602001808311616aab57829003601f168201915b505050505090505b92915050565b5f805f616ae28461712f565b915091505f855f8481526020019081526020015f2054827ffffffffffffffffffffffffffffffffffffffffffffffffffffffffffffffffe901b1690505f8103616c5c575f600884901c90505f875f831981526020019081526020015f205460ff86167ffffffffffffffffffffffffffffffffffffffffffffffffffffffffffffffffe901b1690505f8103616c32575f885f60017f7710c0702d438d37259561c892984b894ff622adfa3d98b5dfe5a9763f94b9545f1c616ba49190618c88565b81526020019081526020015f2054837ffffffffffffffffffffffffffffffffffffffffffffffffffffffffffffffffe901b1690505f8103616c0e577fffffffffffffffffffffffffffffffffffffffffffffffffffffffffff8000009650505050505050616c7f565b616c178161714f565b60ff169250885f841981526020019081526020015f20549150505b616c3b8161714f565b60ff16600883901b179450875f8681526020019081526020015f2054925050505b616c658161714f565b60ff169150616c7982600885901b176171cd565b93505050505b92915050565b5f805f90507a184f03e93ff9f4daa797ed6e38ed64bf6a1f0100000000000000008310616ce1577a184f03e93ff9f4daa797ed6e38ed64bf6a1f0100000000000000008381616cd757616cd66197bd565b5b0492506040810190505b6d04ee2d6d415b85acef81000000008310616d1e576d04ee2d6d415b85acef81000000008381616d1457616d136197bd565b5b0492506020810190505b662386f26fc100008310616d4d57662386f26fc100008381616d4357616d426197bd565b5b0492506010810190505b6305f5e1008310616d76576305f5e1008381616d6c57616d6b6197bd565b5b0492506008810190505b6127108310616d9b576127108381616d9157616d906197bd565b5b0492506004810190505b60648310616dbe5760648381616db457616db36197bd565b5b0492506002810190505b600a8310616dcd576001810190505b80915050919050565b5f616de082616ec2565b15616e17576040517f4f3d7def00000000000000000000000000000000000000000000000000000000815260040160405180910390fd5b5f616e5f835f60017f7710c0702d438d37259561c892984b894ff622adfa3d98b5dfe5a9763f94b9545f1c616e4c9190618c88565b81526020019081526020015f205461714f565b60ff1690505f616e7f845f841981526020019081526020015f205461714f565b60ff16600883901b1790505f616ea4855f8481526020019081526020015f205461714f565b60ff169050616eb881600884901b176171cd565b9350505050919050565b5f80825f60017f7710c0702d438d37259561c892984b894ff622adfa3d98b5dfe5a9763f94b9545f1c616ef59190618c88565b81526020019081526020015f2054149050919050565b5f6fffffffffffffffffffffffffffffffff7f760a9a962ae3d184e99c0483cf5684fb3170f47116ca4f445c50209da4f4f9075c16905090565b5f817ffcac7593714b88fec0c578a53e9f3f6e4b47eb26c9dcaa7eff23a3ac156be422015c9050919050565b5f805f616f7d856171e1565b9050602084015192505f808673ffffffffffffffffffffffffffffffffffffffff1686604051616fad91906199cb565b5f604051808303815f865af19150503d805f8114616fe6576040519150601f19603f3d011682016040523d82523d5f602084013e616feb565b606091505b509150915081616fff57616ffe8161726e565b5b808060200190518101906170139190618f3b565b93508215617024576170236172b0565b5b5050509250929050565b5f805f8362ffffff1690508060021c925060038116915050915091565b5f67ffffffffffffffff838360061b1c16905092915050565b5f80821182039050919050565b5f600683901b84901c93505f8390505b828110156170ae5767ffffffffffffffff851680158101830192508560401c955050806001019050617081565b50828203810390509392505050565b60605f6170c9836172f5565b90505f602067ffffffffffffffff8111156170e7576170e6618292565b5b6040519080825280601f01601f1916602001820160405280156171195781602001600182028036833780820191505090505b5090508181528360208201528092505050919050565b5f806280000083190162ffff00811660081c925060ff8116915050915091565b5f80821161715b575f80fd5b5f7e818283848586878898a8b8c8d8e8f929395969799a9b9d9e9faaeb6bedeeff600184190184160260f81c905060405180610120016040528061010081526020016199e2610100913981815181106171b7576171b66198aa565b5b602001015160f81c60f81b60f81c915050919050565b5f62ffffff62800000830319169050919050565b5f8073ffffffffffffffffffffffffffffffffffffffff16617201615f44565b73ffffffffffffffffffffffffffffffffffffffff1603617268575f617225616f0b565b6fffffffffffffffffffffffffffffffff16905082817ffcac7593714b88fec0c578a53e9f3f6e4b47eb26c9dcaa7eff23a3ac156be422015d6001915050617269565b5b919050565b5f8151036172a8576040517f36bc48c500000000000000000000000000000000000000000000000000000000815260040160405180910390fd5b805181602001fd5b5f6172b9616f0b565b6fffffffffffffffffffffffffffffffff1690505f817ffcac7593714b88fec0c578a53e9f3f6e4b47eb26c9dcaa7eff23a3ac156be422015d50565b5f8060ff835f1c169050601f81111561733a576040517fb3512b0c00000000000000000000000000000000000000000000000000000000815260040160405180910390fd5b80915050919050565b6040518060c001604052805f73ffffffffffffffffffffffffffffffffffffffff1681526020015f67ffffffffffffffff1681526020015f73ffffffffffffffffffffffffffffffffffffffff1681526020015f62ffffff1681526020015f73ffffffffffffffffffffffffffffffffffffffff1681526020015f62ffffff1681525090565b60405180606001604052805f73ffffffffffffffffffffffffffffffffffffffff1681526020015f67ffffffffffffffff1681526020015f67ffffffffffffffff1681525090565b60405180604001604052805f73ffffffffffffffffffffffffffffffffffffffff1681526020015f67ffffffffffffffff1681525090565b5f604051905090565b5f80fd5b5f80fd5b5f7fffffffff0000000000000000000000000000000000000000000000000000000082169050919050565b61748e8161745a565b8114617498575f80fd5b50565b5f813590506174a981617485565b92915050565b5f602082840312156174c4576174c3617452565b5b5f6174d18482850161749b565b91505092915050565b5f8115159050919050565b6174ee816174da565b82525050565b5f6020820190506175075f8301846174e5565b92915050565b5f81519050919050565b5f82825260208201905092915050565b5f5b83811015617544578082015181840152602081019050617529565b5f8484015250505050565b5f601f19601f8301169050919050565b5f6175698261750d565b6175738185617517565b9350617583818560208601617527565b61758c8161754f565b840191505092915050565b5f6020820190508181035f8301526175af818461755f565b905092915050565b5f819050919050565b6175c9816175b7565b81146175d3575f80fd5b50565b5f813590506175e4816175c0565b92915050565b5f602082840312156175ff576175fe617452565b5b5f61760c848285016175d6565b91505092915050565b5f73ffffffffffffffffffffffffffffffffffffffff82169050919050565b5f61763e82617615565b9050919050565b61764e81617634565b82525050565b5f6020820190506176675f830184617645565b92915050565b61767681617634565b8114617680575f80fd5b50565b5f813590506176918161766d565b92915050565b5f80604083850312156176ad576176ac617452565b5b5f6176ba85828601617683565b92505060206176cb858286016175d6565b9150509250929050565b6176de816175b7565b82525050565b5f6020820190506176f75f8301846176d5565b92915050565b5f80fd5b5f60408284031215617716576177156176fd565b5b81905092915050565b5f80fd5b5f80fd5b5f80fd5b5f8083601f8401126177405761773f61771f565b5b8235905067ffffffffffffffff81111561775d5761775c617723565b5b60208301915083600182028301111561777957617778617727565b5b9250929050565b5f805f6060848603121561779757617796617452565b5b5f6177a486828701617701565b935050604084013567ffffffffffffffff8111156177c5576177c4617456565b5b6177d18682870161772b565b92509250509250925092565b5f61012082840312156177f3576177f26176fd565b5b81905092915050565b5f805f610140848603121561781457617813617452565b5b5f617821868287016177dd565b93505061012084013567ffffffffffffffff81111561784357617842617456565b5b61784f8682870161772b565b92509250509250925092565b5f819050919050565b5f61787e617879617874846175b7565b61785b565b6175b7565b9050919050565b61788e81617864565b82525050565b5f6040820190506178a75f830185617885565b6178b460208301846176d5565b9392505050565b5f60c082840312156178d0576178cf6176fd565b5b81905092915050565b5f60c082840312156178ee576178ed617452565b5b5f6178fb848285016178bb565b91505092915050565b5f77ffffffffffffffffffffffffffffffffffffffffffffffff82169050919050565b5f61794161793c61793784617904565b61785b565b617904565b9050919050565b61795181617927565b82525050565b5f60208201905061796a5f830184617948565b92915050565b5f805f6060848603121561798757617986617452565b5b5f61799486828701617683565b93505060206179a586828701617683565b92505060406179b6868287016175d6565b9150509250925092565b5f819050919050565b6179d2816179c0565b82525050565b5f6020820190506179eb5f8301846179c9565b92915050565b6179fa816175b7565b8114617a04575f80fd5b50565b5f81359050617a15816179f1565b92915050565b5f805f60408486031215617a3257617a31617452565b5b5f617a3f86828701617a07565b935050602084013567ffffffffffffffff811115617a6057617a5f617456565b5b617a6c8682870161772b565b92509250509250925092565b5f60208284031215617a8d57617a8c617452565b5b5f617a9a84828501617683565b91505092915050565b5f6101008284031215617ab957617ab86176fd565b5b81905092915050565b5f805f6101208486031215617ada57617ad9617452565b5b5f617ae786828701617aa3565b93505061010084013567ffffffffffffffff811115617b0957617b08617456565b5b617b158682870161772b565b92509250509250925092565b5f604082019050617b345f8301856176d5565b617b4160208301846176d5565b9392505050565b617b5181617634565b8114617b5b575f80fd5b50565b5f81359050617b6c81617b48565b92915050565b5f8060408385031215617b8857617b87617452565b5b5f617b9585828601617683565b9250506020617ba685828601617b5e565b9150509250929050565b617bb981617904565b8114617bc3575f80fd5b50565b5f81359050617bd481617bb0565b92915050565b5f8160020b9050919050565b617bef81617bda565b8114617bf9575f80fd5b50565b5f81359050617c0a81617be6565b92915050565b5f8060408385031215617c2657617c25617452565b5b5f617c3385828601617bc6565b9250506020617c4485828601617bfc565b9150509250929050565b5f67ffffffffffffffff82169050919050565b617c6a81617c4e565b82525050565b5f602082019050617c835f830184617c61565b92915050565b5f6fffffffffffffffffffffffffffffffff82169050919050565b617cad81617c89565b82525050565b5f604082019050617cc65f830185617ca4565b617cd36020830184617ca4565b9392505050565b5f60208284031215617cef57617cee617452565b5b5f617cfc84828501617bc6565b91505092915050565b5f60208284031215617d1a57617d19617452565b5b5f617d2784828501617b5e565b91505092915050565b5f60ff82169050919050565b617d4581617d30565b8114617d4f575f80fd5b50565b5f81359050617d6081617d3c565b92915050565b617d6f816179c0565b8114617d79575f80fd5b50565b5f81359050617d8a81617d66565b92915050565b5f805f805f8060c08789031215617daa57617da9617452565b5b5f617db789828a01617683565b9650506020617dc889828a016175d6565b9550506040617dd989828a016175d6565b9450506060617dea89828a01617d52565b9350506080617dfb89828a01617d7c565b92505060a0617e0c89828a01617d7c565b9150509295509295509295565b5f7fff0000000000000000000000000000000000000000000000000000000000000082169050919050565b617e4d81617e19565b82525050565b5f81519050919050565b5f82825260208201905092915050565b5f819050602082019050919050565b617e85816175b7565b82525050565b5f617e968383617e7c565b60208301905092915050565b5f602082019050919050565b5f617eb882617e53565b617ec28185617e5d565b9350617ecd83617e6d565b805f5b83811015617efd578151617ee48882617e8b565b9750617eef83617ea2565b925050600181019050617ed0565b5085935050505092915050565b5f60e082019050617f1d5f83018a617e44565b8181036020830152617f2f818961755f565b90508181036040830152617f43818861755f565b9050617f5260608301876176d5565b617f5f6080830186617645565b617f6c60a08301856179c9565b81810360c0830152617f7e8184617eae565b905098975050505050505050565b5f819050919050565b617f9e81617f8c565b82525050565b5f602082019050617fb75f830184617f95565b92915050565b5f617fd7617fd2617fcd84617615565b61785b565b617615565b9050919050565b5f617fe882617fbd565b9050919050565b5f617ff982617fde565b9050919050565b61800981617fef565b82525050565b61801881617c4e565b82525050565b5f62ffffff82169050919050565b5f61804661804161803c8461801e565b61785b565b61801e565b9050919050565b6180568161802c565b82525050565b5f61806682617fde565b9050919050565b6180768161805c565b82525050565b60c082015f8201516180905f850182618000565b5060208201516180a3602085018261800f565b5060408201516180b66040850182618000565b5060608201516180c9606085018261804d565b5060808201516180dc608085018261806d565b5060a08201516180ef60a085018261804d565b50505050565b5f60c0820190506181085f83018461807c565b92915050565b5f805f6040848603121561812557618124617452565b5b5f61813286828701617683565b935050602084013567ffffffffffffffff81111561815357618152617456565b5b61815f8682870161772b565b92509250509250925092565b5f81519050919050565b5f82825260208201905092915050565b5f61818f8261816b565b6181998185618175565b93506181a9818560208601617527565b6181b28161754f565b840191505092915050565b5f6020820190508181035f8301526181d58184618185565b905092915050565b5f6181f76181f26181ed84617bda565b61785b565b617bda565b9050919050565b618207816181dd565b82525050565b5f6020820190506182205f8301846181fe565b92915050565b61822f816174da565b8114618239575f80fd5b50565b5f8135905061824a81618226565b92915050565b5f806040838503121561826657618265617452565b5b5f61827385828601617683565b92505060206182848582860161823c565b9150509250929050565b5f80fd5b7f4e487b71000000000000000000000000000000000000000000000000000000005f52604160045260245ffd5b6182c88261754f565b810181811067ffffffffffffffff821117156182e7576182e6618292565b5b80604052505050565b5f6182f9617449565b905061830582826182bf565b919050565b5f67ffffffffffffffff82111561832457618323618292565b5b61832d8261754f565b9050602081019050919050565b828183375f83830152505050565b5f61835a6183558461830a565b6182f0565b9050828152602081018484840111156183765761837561828e565b5b61838184828561833a565b509392505050565b5f82601f83011261839d5761839c61771f565b5b81356183ad848260208601618348565b91505092915050565b5f805f80608085870312156183ce576183cd617452565b5b5f6183db87828801617683565b94505060206183ec87828801617683565b93505060406183fd878288016175d6565b925050606085013567ffffffffffffffff81111561841e5761841d617456565b5b61842a87828801618389565b91505092959194509250565b5f6020828403121561844b5761844a617452565b5b5f61845884828501617a07565b91505092915050565b61846a81617634565b82525050565b606082015f8201516184845f850182618461565b506020820151618497602085018261800f565b5060408201516184aa604085018261800f565b50505050565b5f6060820190506184c35f830184618470565b92915050565b5f6040820190506184dc5f830185617645565b6184e96020830184617645565b9392505050565b5f805f6060848603121561850757618506617452565b5b5f61851486828701617b5e565b935050602061852586828701617683565b9250506040618536868287016175d6565b9150509250925092565b5f806040838503121561855657618555617452565b5b5f61856385828601617683565b925050602061857485828601617683565b9150509250929050565b5f6020828403121561859357618592617452565b5b5f6185a084828501617d7c565b91505092915050565b5f80604083850312156185bf576185be617452565b5b5f6185cc85828601617d7c565b92505060206185dd858286016175d6565b9150509250929050565b5f805f60e084860312156185fe576185fd617452565b5b5f61860b868287016178bb565b93505060c084013567ffffffffffffffff81111561862c5761862b617456565b5b6186388682870161772b565b92509250509250925092565b7f4e487b71000000000000000000000000000000000000000000000000000000005f52602260045260245ffd5b5f600282049050600182168061868857607f821691505b60208210810361869b5761869a618644565b5b50919050565b6186aa81617c4e565b81146186b4575f80fd5b50565b5f813590506186c5816186a1565b92915050565b5f602082840312156186e0576186df617452565b5b5f6186ed848285016186b7565b91505092915050565b8082525050565b61870681617864565b82525050565b61871581617c4e565b82525050565b5f60608201905061872e5f8301866186f6565b61873b60208301856186fd565b618748604083018461870c565b949350505050565b5f8151905061875e816186a1565b92915050565b5f806040838503121561877a57618779617452565b5b5f61878785828601618750565b925050602061879885828601618750565b9150509250929050565b5f602082840312156187b7576187b6617452565b5b5f6187c484828501617bfc565b91505092915050565b5f80fd5b6187da8161801e565b81146187e4575f80fd5b50565b5f813590506187f5816187d1565b92915050565b5f61880582617634565b9050919050565b618815816187fb565b811461881f575f80fd5b50565b5f813590506188308161880c565b92915050565b5f60c0828403121561884b5761884a6187cd565b5b61885560c06182f0565b90505f61886484828501617b5e565b5f830152506020618877848285016186b7565b602083015250604061888b84828501617b5e565b604083015250606061889f848285016187e7565b60608301525060806188b384828501618822565b60808301525060a06188c7848285016187e7565b60a08301525092915050565b5f60c082840312156188e8576188e7617452565b5b5f6188f584828501618836565b91505092915050565b5f6101208284031215618914576189136187cd565b5b61891e60806182f0565b90505f61892d84828501618836565b5f8301525060c061894084828501617bfc565b60208301525060e0618954848285016186b7565b60408301525061010061896984828501617683565b60608301525092915050565b5f610120828403121561898b5761898a617452565b5b5f618998848285016188fe565b91505092915050565b5f602082840312156189b6576189b5617452565b5b5f6189c384828501618822565b91505092915050565b6189d5816181dd565b82525050565b6189e481617634565b82525050565b5f6080820190506189fd5f8301876186f6565b618a0a60208301866189cc565b618a17604083018561870c565b618a2460608301846189db565b95945050505050565b5f64ffffffffff82169050919050565b618a4681618a2d565b8114618a50575f80fd5b50565b5f81519050618a6181618a3d565b92915050565b5f60208284031215618a7c57618a7b617452565b5b5f618a8984828501618a53565b91505092915050565b5f60208284031215618aa757618aa6617452565b5b5f618ab4848285016187e7565b91505092915050565b7f4e487b71000000000000000000000000000000000000000000000000000000005f52601160045260245ffd5b5f618af482617f8c565b91507f80000000000000000000000000000000000000000000000000000000000000008203618b2657618b25618abd565b5b815f039050919050565b5f618b4a618b45618b4084618a2d565b61785b565b6175b7565b9050919050565b618b5a81618b30565b82525050565b5f608082019050618b735f8301876181fe565b618b806020830186618b51565b618b8d6040830185617c61565b618b9a6060830184617645565b95945050505050565b5f606082019050618bb65f830186617645565b618bc360208301856176d5565b618bd06040830184617645565b949350505050565b618be181618a2d565b82525050565b5f606082019050618bfa5f8301866186f6565b618c0760208301856189cc565b618c146040830184618bd8565b949350505050565b5f60208284031215618c3157618c30617452565b5b5f618c3e84828501618750565b91505092915050565b5f618c5182617f8c565b9150618c5c83617f8c565b92508282019050828112155f8312168382125f841215161715618c8257618c81618abd565b5b92915050565b5f618c92826175b7565b9150618c9d836175b7565b9250828201905080821115618cb557618cb4618abd565b5b92915050565b5f618cc5826175b7565b9150618cd0836175b7565b9250828203905081811115618ce857618ce7618abd565b5b92915050565b5f6101008284031215618d0457618d036187cd565b5b618d0e60606182f0565b90505f618d1d84828501618836565b5f8301525060c0618d3084828501617bfc565b60208301525060e0618d44848285016186b7565b60408301525092915050565b5f6101008284031215618d6657618d65617452565b5b5f618d7384828501618cee565b91505092915050565b5f606082019050618d8f5f8301866186f6565b618d9c60208301856189cc565b618da9604083018461870c565b949350505050565b5f618dbb82617f8c565b9150618dc683617f8c565b925082820390508181125f8412168282135f851215161715618deb57618dea618abd565b5b92915050565b5f604082019050618e045f8301856181fe565b618e116020830184617c61565b9392505050565b5f60a082019050618e2b5f8301886179c9565b618e386020830187617645565b618e4560408301866176d5565b618e5260608301856176d5565b618e5f60808301846176d5565b9695505050505050565b5f819050919050565b618e83618e7e826179c0565b618e69565b82525050565b5f8160f81b9050919050565b5f618e9f82618e89565b9050919050565b618eb7618eb282617d30565b618e95565b82525050565b5f618ec88286618e72565b602082019150618ed88285618e72565b602082019150618ee88284618ea6565b600182019150819050949350505050565b5f604082019050618f0c5f8301856179c9565b8181036020830152618f1e8184618185565b90509392505050565b5f81519050618f3581617485565b92915050565b5f60208284031215618f5057618f4f617452565b5b5f618f5d84828501618f27565b91505092915050565b5f618f718385618175565b9350618f7e83858461833a565b618f878361754f565b840190509392505050565b5f604082019050618fa55f830186617645565b8181036020830152618fb8818486618f66565b9050949350505050565b5f618fd4618fcf8461830a565b6182f0565b905082815260208101848484011115618ff057618fef61828e565b5b618ffb848285617527565b509392505050565b5f82601f8301126190175761901661771f565b5b8151619027848260208601618fc2565b91505092915050565b5f6020828403121561904557619044617452565b5b5f82015167ffffffffffffffff81111561906257619061617456565b5b61906e84828501619003565b91505092915050565b5f81905092915050565b5f61908b8261750d565b6190958185619077565b93506190a5818560208601617527565b80840191505092915050565b5f6190bc8285619081565b91506190c88284619081565b91508190509392505050565b5f6190de826175b7565b91506190e9836175b7565b92508282026190f7816175b7565b9150828204841483151761910e5761910d618abd565b5b5092915050565b5f6191236020840184617b5e565b905092915050565b61913481617fef565b82525050565b5f61914860208401846186b7565b905092915050565b61915981617c4e565b82525050565b5f61916d60208401846187e7565b905092915050565b61917e8161802c565b82525050565b5f6191926020840184618822565b905092915050565b6191a38161805c565b82525050565b60c082016191b95f830183619115565b6191c55f85018261912b565b506191d3602083018361913a565b6191e06020850182619150565b506191ee6040830183619115565b6191fb604085018261912b565b50619209606083018361915f565b6192166060850182619175565b506192246080830183619184565b619231608085018261919a565b5061923f60a083018361915f565b61924c60a0850182619175565b50505050565b5f60e0820190506192655f8301856186f6565b61927260208301846191a9565b9392505050565b6192828161802c565b82525050565b6192918161805c565b82525050565b5f6080820190506192aa5f830187617c61565b6192b76020830186619279565b6192c46040830185619279565b6192d16060830184619288565b95945050505050565b5f6040820190506192ed5f830185617645565b6192fa60208301846176d5565b9392505050565b5f61930f6020840184617a07565b905092915050565b61932081617864565b82525050565b604082016193365f830183619301565b6193425f850182619317565b50619350602083018361913a565b61935d602085018261800f565b50505050565b5f6080820190506193765f830187617645565b6193836020830186619326565b8181036060830152619396818486618f66565b905095945050505050565b5f60a0820190506193b45f830188617645565b6193c16020830187619326565b6193ce6060830186617c61565b81810360808301526193e1818486618f66565b90509695505050505050565b5f6193f782617bda565b91507fffffffffffffffffffffffffffffffffffffffffffffffffffffffffff800000820361942957619428618abd565b5b815f039050919050565b60c082015f8201516194475f850182618000565b50602082015161945a602085018261800f565b50604082015161946d6040850182618000565b506060820151619480606085018261804d565b506080820151619493608085018261806d565b5060a08201516194a660a085018261804d565b50505050565b6194b5816181dd565b82525050565b61012082015f8201516194d05f850182619433565b5060208201516194e360c08501826194ac565b5060408201516194f660e085018261800f565b50606082015161950a610100850182618461565b50505050565b5f610160820190506195245f830187617645565b61953160208301866194bb565b818103610140830152619545818486618f66565b905095945050505050565b5f610180820190506195645f830188617645565b61957160208301876194bb565b61957f610140830186617885565b818103610160830152619593818486618f66565b90509695505050505050565b5f6060820190506195b25f830187617645565b6195bf6020830186617885565b81810360408301526195d2818486618f66565b905095945050505050565b5f6080820190506195f05f830188617645565b6195fd6020830187617885565b61960a6040830186617c61565b818103606083015261961d818486618f66565b90509695505050505050565b61010082015f82015161963e5f850182619433565b50602082015161965160c08501826194ac565b50604082015161966460e085018261800f565b50505050565b5f6101408201905061967e5f830187617645565b61968b6020830186619629565b81810361012083015261969f818486618f66565b905095945050505050565b5f610160820190506196be5f830188617645565b6196cb6020830187619629565b6196d9610120830186617c61565b8181036101408301526196ed818486618f66565b90509695505050505050565b5f61970382617c4e565b915061970e83617c4e565b9250828203905067ffffffffffffffff81111561972e5761972d618abd565b5b92915050565b5f81519050619742816175c0565b92915050565b5f6020828403121561975d5761975c617452565b5b5f61976a84828501619734565b91505092915050565b5f6080820190506197865f830187617645565b6197936020830186617645565b6197a060408301856176d5565b81810360608301526197b28184618185565b905095945050505050565b7f4e487b71000000000000000000000000000000000000000000000000000000005f52601260045260245ffd5b5f610100820190506197fe5f830187617645565b61980b602083018661807c565b81810360e083015261981e818486618f66565b905095945050505050565b5f60a08201905061983c5f8301886179c9565b61984960208301876179c9565b61985660408301866179c9565b61986360608301856176d5565b6198706080830184617645565b9695505050505050565b5f619884826175b7565b915061988f836175b7565b92508261989f5761989e6197bd565b5b828204905092915050565b7f4e487b71000000000000000000000000000000000000000000000000000000005f52603260045260245ffd5b5f6198e182617c4e565b91506198ec83617c4e565b9250828201905067ffffffffffffffff81111561990c5761990b618abd565b5b92915050565b61991b81617d30565b82525050565b5f6080820190506199345f8301876179c9565b6199416020830186619912565b61994e60408301856179c9565b61995b60608301846179c9565b95945050505050565b7f4e487b71000000000000000000000000000000000000000000000000000000005f52602160045260245ffd5b5f81905092915050565b5f6199a58261816b565b6199af8185619991565b93506199bf818560208601617527565b80840191505092915050565b5f6199d6828461999b565b91508190509291505056fe0001020903110a19042112290b311a3905412245134d2a550c5d32651b6d3a7506264262237d468514804e8d2b95569d0d495ea533a966b11c886eb93bc176c9071727374353637324837e9b47af86c7155181ad4fd18ed32c9096db57d59ee30e2e4a6a5f92a6be3498aae067ddb2eb1d5989b56fd7baf33ca0c2ee77e5caf7ff0810182028303840444c545c646c7425617c847f8c949c48a4a8b087b8c0c816365272829aaec650acd0d28fdad4e22d6991bd97dfdcea58b4d6f29fede4f6fe0f1f2f3f4b5b6b607b8b93a3a7b7bf357199c5abcfd9e168bcdee9b3f1ecf5fd1e3e5a7a8aa2b670c4ced8bbe8f0f4fc3d79a1c3cde7effb78cce6facbf9f8a26469706673582212209142dff104d6b4404f5136bf6b313e44a7487b4702fa73dd8e105069bdf3f6d764736f6c63430008180033",
  "linkReferences": {
    "contracts/libraries/Book.sol": {
      "Book": [
        {
          "length": 20,
          "start": 7827
        },
        {
          "length": 20,
          "start": 8721
        },
        {
          "length": 20,
          "start": 10327
        },
        {
          "length": 20,
          "start": 11652
        },
        {
          "length": 20,
          "start": 16528
        },
        {
          "length": 20,
          "start": 18461
        }
      ]
    }
  },
  "deployedLinkReferences": {
    "contracts/libraries/Book.sol": {
      "Book": [
        {
          "length": 20,
          "start": 4531
        },
        {
          "length": 20,
          "start": 5425
        },
        {
          "length": 20,
          "start": 7031
        },
        {
          "length": 20,
          "start": 8356
        },
        {
          "length": 20,
          "start": 13232
        },
        {
          "length": 20,
          "start": 15165
        }
      ]
    }
  }
}