{"contracts/libraries/TickBitmap.sol":{"TickBitmap":{"abi":[{"inputs":[],"name":"AlreadyExistsError","type":"error"},{"inputs":[],"name":"EmptyError","type":"error"},{"inputs":[],"name":"B0_BITMAP_KEY","outputs":[{"internalType":"uint256","name":"","type":"uint256"}],"stateMutability":"view","type":"function"},{"inputs":[],"name":"MAX_UINT_256_MINUS_1","outputs":[{"internalType":"uint256","name":"","type":"uint256"}],"stateMutability":"view","type":"function"}],"evm":{"bytecode":{"linkReferences":{},"object":"61019c61004e600b8282823980515f1a607314610042577f4e487b71000000000000000000000000000000000000000000000000000000005f525f60045260245ffd5b305f52607381538281f3fe730000000000000000000000000000000000000000301460806040526004361061003f575f3560e01c8063672d210e14610043578063a2dc190c14610061575b5f80fd5b61004b61007f565b60405161005891906100ed565b60405180910390f35b6100696100b1565b60405161007691906100ed565b60405180910390f35b60017f7710c0702d438d37259561c892984b894ff622adfa3d98b5dfe5a9763f94b9545f1c6100ae9190610133565b81565b7ffffffffffffffffffffffffffffffffffffffffffffffffffffffffffffffffe81565b5f819050919050565b6100e7816100d5565b82525050565b5f6020820190506101005f8301846100de565b92915050565b7f4e487b71000000000000000000000000000000000000000000000000000000005f52601160045260245ffd5b5f61013d826100d5565b9150610148836100d5565b92508282019050808211156101605761015f610106565b5b9291505056fea26469706673582212207f966a913faec2a125861382d0b5e3e86b29dc9e031ed7f82eb56b01a24d618164736f6c63430008180033","opcodes":"PUSH2 0x19C PUSH2 0x4E PUSH1 0xB DUP3 DUP3 DUP3 CODECOPY DUP1 MLOAD PUSH0 BYTE PUSH1 0x73 EQ PUSH2 0x42 JUMPI PUSH32 0x4E487B7100000000000000000000000000000000000000000000000000000000 PUSH0 MSTORE PUSH0 PUSH1 0x4 MSTORE PUSH1 0x24 PUSH0 REVERT JUMPDEST ADDRESS PUSH0 MSTORE PUSH1 0x73 DUP2 MSTORE8 DUP3 DUP2 RETURN INVALID PUSH20 0x0 ADDRESS EQ PUSH1 0x80 PUSH1 0x40 MSTORE PUSH1 0x4 CALLDATASIZE LT PUSH2 0x3F JUMPI PUSH0 CALLDATALOAD PUSH1 0xE0 SHR DUP1 PUSH4 0x672D210E EQ PUSH2 0x43 JUMPI DUP1 PUSH4 0xA2DC190C EQ PUSH2 0x61 JUMPI JUMPDEST PUSH0 DUP1 REVERT JUMPDEST PUSH2 0x4B PUSH2 0x7F JUMP JUMPDEST PUSH1 0x40 MLOAD PUSH2 0x58 SWAP2 SWAP1 PUSH2 0xED JUMP JUMPDEST PUSH1 0x40 MLOAD DUP1 SWAP2 SUB SWAP1 RETURN JUMPDEST PUSH2 0x69 PUSH2 0xB1 JUMP JUMPDEST PUSH1 0x40 MLOAD PUSH2 0x76 SWAP2 SWAP1 PUSH2 0xED JUMP JUMPDEST PUSH1 0x40 MLOAD DUP1 SWAP2 SUB SWAP1 RETURN JUMPDEST PUSH1 0x1 PUSH32 0x7710C0702D438D37259561C892984B894FF622ADFA3D98B5DFE5A9763F94B954 PUSH0 SHR PUSH2 0xAE SWAP2 SWAP1 PUSH2 0x133 JUMP JUMPDEST DUP2 JUMP JUMPDEST PUSH32 0xFFFFFFFFFFFFFFFFFFFFFFFFFFFFFFFFFFFFFFFFFFFFFFFFFFFFFFFFFFFFFFFE DUP2 JUMP JUMPDEST PUSH0 DUP2 SWAP1 POP SWAP2 SWAP1 POP JUMP JUMPDEST PUSH2 0xE7 DUP2 PUSH2 0xD5 JUMP JUMPDEST DUP3 MSTORE POP POP JUMP JUMPDEST PUSH0 PUSH1 0x20 DUP3 ADD SWAP1 POP PUSH2 0x100 PUSH0 DUP4 ADD DUP5 PUSH2 0xDE JUMP JUMPDEST SWAP3 SWAP2 POP POP JUMP JUMPDEST PUSH32 0x4E487B7100000000000000000000000000000000000000000000000000000000 PUSH0 MSTORE PUSH1 0x11 PUSH1 0x4 MSTORE PUSH1 0x24 PUSH0 REVERT JUMPDEST PUSH0 PUSH2 0x13D DUP3 PUSH2 0xD5 JUMP JUMPDEST SWAP2 POP PUSH2 0x148 DUP4 PUSH2 0xD5 JUMP JUMPDEST SWAP3 POP DUP3 DUP3 ADD SWAP1 POP DUP1 DUP3 GT ISZERO PUSH2 0x160 JUMPI PUSH2 0x15F PUSH2 0x106 JUMP JUMPDEST JUMPDEST SWAP3 SWAP2 POP POP JUMP INVALID LOG2 PUSH5 0x6970667358 0x22 SLT KECCAK256 PUSH32 0x966A913FAEC2A125861382D0B5E3E86B29DC9E031ED7F82EB56B01A24D618164 PUSH20 0x6F6C634300081800330000000000000000000000 "},"methodIdentifiers":{"B0_BITMAP_KEY()":"672d210e","MAX_UINT_256_MINUS_1()":"a2dc190c"}}}}}