{"contracts/libraries/Currency.sol":{"CurrencyLibrary":{"abi":[{"inputs":[],"name":"ERC20TransferFailed","type":"error"},{"inputs":[],"name":"NativeTransferFailed","type":"error"},{"inputs":[],"name":"NATIVE","outputs":[{"internalType":"Currency","name":"","type":"address"}],"stateMutability":"view","type":"function"}],"evm":{"bytecode":{"linkReferences":{},"object":"61010f61004e600b8282823980515f1a607314610042577f4e487b71000000000000000000000000000000000000000000000000000000005f525f60045260245ffd5b305f52607381538281f3fe73000000000000000000000000000000000000000030146080604052600436106032575f3560e01c8063a0cf0aea146036575b5f80fd5b603c6050565b6040516047919060c2565b60405180910390f35b5f81565b5f73ffffffffffffffffffffffffffffffffffffffff82169050919050565b5f819050919050565b5f6090608c6088846054565b6073565b6054565b9050919050565b5f609f82607c565b9050919050565b5f60ae826097565b9050919050565b60bc8160a6565b82525050565b5f60208201905060d35f83018460b5565b9291505056fea264697066735822122030cd3b9e6ca60bafa2c684fb18421221eae253dcffae3c0d24c58d2d47b493e964736f6c63430008180033","opcodes":"PUSH2 0x10F PUSH2 0x4E PUSH1 0xB DUP3 DUP3 DUP3 CODECOPY DUP1 MLOAD PUSH0 BYTE PUSH1 0x73 EQ PUSH2 0x42 JUMPI PUSH32 0x4E487B7100000000000000000000000000000000000000000000000000000000 PUSH0 MSTORE PUSH0 PUSH1 0x4 MSTORE PUSH1 0x24 PUSH0 REVERT JUMPDEST ADDRESS PUSH0 MSTORE PUSH1 0x73 DUP2 MSTORE8 DUP3 DUP2 RETURN INVALID PUSH20 0x0 ADDRESS EQ PUSH1 0x80 PUSH1 0x40 MSTORE PUSH1 0x4 CALLDATASIZE LT PUSH1 0x32 JUMPI PUSH0 CALLDATALOAD PUSH1 0xE0 SHR DUP1 PUSH4 0xA0CF0AEA EQ PUSH1 0x36 JUMPI JUMPDEST PUSH0 DUP1 REVERT JUMPDEST PUSH1 0x3C PUSH1 0x50 JUMP JUMPDEST PUSH1 0x40 MLOAD PUSH1 0x47 SWAP2 SWAP1 PUSH1 0xC2 JUMP JUMPDEST PUSH1 0x40 MLOAD DUP1 SWAP2 SUB SWAP1 RETURN JUMPDEST PUSH0 DUP2 JUMP JUMPDEST PUSH0 PUSH20 0xFFFFFFFFFFFFFFFFFFFFFFFFFFFFFFFFFFFFFFFF DUP3 AND SWAP1 POP SWAP2 SWAP1 POP JUMP JUMPDEST PUSH0 DUP2 SWAP1 POP SWAP2 SWAP1 POP JUMP JUMPDEST PUSH0 PUSH1 0x90 PUSH1 0x8C PUSH1 0x88 DUP5 PUSH1 0x54 JUMP JUMPDEST PUSH1 0x73 JUMP JUMPDEST PUSH1 0x54 JUMP JUMPDEST SWAP1 POP SWAP2 SWAP1 POP JUMP JUMPDEST PUSH0 PUSH1 0x9F DUP3 PUSH1 0x7C JUMP JUMPDEST SWAP1 POP SWAP2 SWAP1 POP JUMP JUMPDEST PUSH0 PUSH1 0xAE DUP3 PUSH1 0x97 JUMP JUMPDEST SWAP1 POP SWAP2 SWAP1 POP JUMP JUMPDEST PUSH1 0xBC DUP2 PUSH1 0xA6 JUMP JUMPDEST DUP3 MSTORE POP POP JUMP JUMPDEST PUSH0 PUSH1 0x20 DUP3 ADD SWAP1 POP PUSH1 0xD3 PUSH0 DUP4 ADD DUP5 PUSH1 0xB5 JUMP JUMPDEST SWAP3 SWAP2 POP POP JUMP INVALID LOG2 PUSH5 0x6970667358 0x22 SLT KECCAK256 ADDRESS 0xCD EXTCODESIZE SWAP15 PUSH13 0xA60BAFA2C684FB18421221EAE2 MSTORE8 0xDC SELFDESTRUCT 0xAE EXTCODECOPY 0xD 0x24 0xC5 DUP14 0x2D SELFBALANCE 0xB4 SWAP4 0xE9 PUSH5 0x736F6C6343 STOP ADDMOD XOR STOP CALLER "},"methodIdentifiers":{"NATIVE()":"a0cf0aea"}}}}}