{
  "_format": "hh-sol-artifact-1",
  "contractName": "TickBitmap",
  "sourceName": "contracts/libraries/TickBitmap.sol",
  "abi": [
    {
      "inputs": [],
      "name": "AlreadyExistsError",
      "type": "error"
    },
    {
      "inputs": [],
      "name": "EmptyError",
      "type": "error"
    },
    {
      "inputs": [],
      "name": "B0_BITMAP_KEY",
      "outputs": [
        {
          "internalType": "uint256",
          "name": "",
          "type": "uint256"
        }
      ],
      "stateMutability": "view",
      "type": "function"
    },
    {
      "inputs": [],
      "name": "MAX_UINT_256_MINUS_1",
      "outputs": [
        {
          "internalType": "uint256",
          "name": "",
          "type": "uint256"
        }
      ],
      "stateMutability": "view",
      "type": "function"
    }
  ],
  "bytecode": "0x61019c61004e600b8282823980515f1a607314610042577f4e487b71000000000000000000000000000000000000000000000000000000005f525f60045260245ffd5b305f52607381538281f3fe730000000000000000000000000000000000000000301460806040526004361061003f575f3560e01c8063672d210e14610043578063a2dc190c14610061575b5f80fd5b61004b61007f565b60405161005891906100ed565b60405180910390f35b6100696100b1565b60405161007691906100ed565b60405180910390f35b60017f7710c0702d438d37259561c892984b894ff622adfa3d98b5dfe5a9763f94b9545f1c6100ae9190610133565b81565b7ffffffffffffffffffffffffffffffffffffffffffffffffffffffffffffffffe81565b5f819050919050565b6100e7816100d5565b82525050565b5f6020820190506101005f8301846100de565b92915050565b7f4e487b71000000000000000000000000000000000000000000000000000000005f52601160045260245ffd5b5f61013d826100d5565b9150610148836100d5565b92508282019050808211156101605761015f610106565b5b9291505056fea26469706673582212207f966a913faec2a125861382d0b5e3e86b29dc9e031ed7f82eb56b01a24d618164736f6c63430008180033",
  "linkReferences": {},
  "deployedLinkReferences": {}
}