{
  "_format": "hh-sol-artifact-1",
  "contractName": "TickBitmap",
  "sourceName": "contracts/libraries/TickBitmap.sol",
  "abi": [
    {
      "inputs": [],
      "name": "AlreadyExistsError",
      "type": "error"
    },
    {
      "inputs": [],
      "name": "EmptyError",
      "type": "error"
    },
    {
      "inputs": [],
      "name": "B0_BITMAP_KEY",
      "outputs": [
        {
          "internalType": "uint256",
          "name": "",
          "type": "uint256"
        }
      ],
      "stateMutability": "view",
      "type": "function"
    },
    {
      "inputs": [],
      "name": "MAX_UINT_256_MINUS_1",
      "outputs": [
        {
          "internalType": "uint256",
          "name": "",
          "type": "uint256"
        }
      ],
      "stateMutability": "view",
      "type": "function"
    }
  ],
  "bytecode": "0x60e6610034600b8282823980515f1a60731461002857634e487b7160e01b5f525f60045260245ffd5b305f52607381538281f3fe7300000000000000000000000000000000000000003014608060405260043610603c575f3560e01c8063672d210e146040578063a2dc190c146058575b5f80fd5b60466060565b60405190815260200160405180910390f35b604660011981565b60897f7710c0702d438d37259561c892984b894ff622adfa3d98b5dfe5a9763f94b9546001608c565b81565b8082018082111560aa57634e487b7160e01b5f52601160045260245ffd5b9291505056fea264697066735822122067c911cdfd9979acf18db4a95e503e0093891e06890abd18c3eccde5670fcef564736f6c63430008180033",
  "linkReferences": {},
  "deployedLinkReferences": {}
}