{
  "_format": "hh-sol-artifact-1",
  "contractName": "CurrencyLibrary",
  "sourceName": "contracts/libraries/Currency.sol",
  "abi": [
    {
      "inputs": [],
      "name": "ERC20TransferFailed",
      "type": "error"
    },
    {
      "inputs": [],
      "name": "NativeTransferFailed",
      "type": "error"
    },
    {
      "inputs": [],
      "name": "NATIVE",
      "outputs": [
        {
          "internalType": "Currency",
          "name": "",
          "type": "address"
        }
      ],
      "stateMutability": "view",
      "type": "function"
    }
  ],
  "bytecode": "0x61010f61004e600b8282823980515f1a607314610042577f4e487b71000000000000000000000000000000000000000000000000000000005f525f60045260245ffd5b305f52607381538281f3fe73000000000000000000000000000000000000000030146080604052600436106032575f3560e01c8063a0cf0aea146036575b5f80fd5b603c6050565b6040516047919060c2565b60405180910390f35b5f81565b5f73ffffffffffffffffffffffffffffffffffffffff82169050919050565b5f819050919050565b5f6090608c6088846054565b6073565b6054565b9050919050565b5f609f82607c565b9050919050565b5f60ae826097565b9050919050565b60bc8160a6565b82525050565b5f60208201905060d35f83018460b5565b9291505056fea264697066735822122030cd3b9e6ca60bafa2c684fb18421221eae253dcffae3c0d24c58d2d47b493e964736f6c63430008180033",
  "linkReferences": {},
  "deployedLinkReferences": {}
}