{
  "_format": "hh-sol-artifact-1",
  "contractName": "CurrencyLibrary",
  "sourceName": "contracts/libraries/Currency.sol",
  "abi": [
    {
      "inputs": [],
      "name": "ERC20TransferFailed",
      "type": "error"
    },
    {
      "inputs": [],
      "name": "NativeTransferFailed",
      "type": "error"
    },
    {
      "inputs": [],
      "name": "NATIVE",
      "outputs": [
        {
          "internalType": "Currency",
          "name": "",
          "type": "address"
        }
      ],
      "stateMutability": "view",
      "type": "function"
    }
  ],
  "bytecode": "0x608e610033600b8282823980515f1a607314602757634e487b7160e01b5f525f60045260245ffd5b305f52607381538281f3fe73000000000000000000000000000000000000000030146080604052600436106032575f3560e01c8063a0cf0aea146036575b5f80fd5b603c5f81565b6040516001600160a01b03909116815260200160405180910390f3fea2646970667358221220bfe23dee7bd0d72d44e949737e54d1eeed2d60d583316e7b99af30ed4d390da264736f6c63430008180033",
  "linkReferences": {},
  "deployedLinkReferences": {}
}