{
  "_format": "hh-sol-artifact-1",
  "contractName": "ERC721Permit",
  "sourceName": "contracts/libraries/ERC721Permit.sol",
  "abi": [
    {
      "inputs": [
        {
          "internalType": "string",
          "name": "name_",
          "type": "string"
        },
        {
          "internalType": "string",
          "name": "symbol_",
          "type": "string"
        },
        {
          "internalType": "string",
          "name": "version_",
          "type": "string"
        }
      ],
      "stateMutability": "nonpayable",
      "type": "constructor"
    },
    {
      "inputs": [],
      "name": "ECDSAInvalidSignature",
      "type": "error"
    },
    {
      "inputs": [
        {
          "internalType": "uint256",
          "name": "length",
          "type": "uint256"
        }
      ],
      "name": "ECDSAInvalidSignatureLength",
      "type": "error"
    },
    {
      "inputs": [
        {
          "internalType": "bytes32",
          "name": "s",
          "type": "bytes32"
        }
      ],
      "name": "ECDSAInvalidSignatureS",
      "type": "error"
    },
    {
      "inputs": [
        {
          "internalType": "address",
          "name": "sender",
          "type": "address"
        },
        {
          "internalType": "uint256",
          "name": "tokenId",
          "type": "uint256"
        },
        {
          "internalType": "address",
          "name": "owner",
          "type": "address"
        }
      ],
      "name": "ERC721IncorrectOwner",
      "type": "error"
    },
    {
      "inputs": [
        {
          "internalType": "address",
          "name": "operator",
          "type": "address"
        },
        {
          "internalType": "uint256",
          "name": "tokenId",
          "type": "uint256"
        }
      ],
      "name": "ERC721InsufficientApproval",
      "type": "error"
    },
    {
      "inputs": [
        {
          "internalType": "address",
          "name": "approver",
          "type": "address"
        }
      ],
      "name": "ERC721InvalidApprover",
      "type": "error"
    },
    {
      "inputs": [
        {
          "internalType": "address",
          "name": "operator",
          "type": "address"
        }
      ],
      "name": "ERC721InvalidOperator",
      "type": "error"
    },
    {
      "inputs": [
        {
          "internalType": "address",
          "name": "owner",
          "type": "address"
        }
      ],
      "name": "ERC721InvalidOwner",
      "type": "error"
    },
    {
      "inputs": [
        {
          "internalType": "address",
          "name": "receiver",
          "type": "address"
        }
      ],
      "name": "ERC721InvalidReceiver",
      "type": "error"
    },
    {
      "inputs": [
        {
          "internalType": "address",
          "name": "sender",
          "type": "address"
        }
      ],
      "name": "ERC721InvalidSender",
      "type": "error"
    },
    {
      "inputs": [
        {
          "internalType": "uint256",
          "name": "tokenId",
          "type": "uint256"
        }
      ],
      "name": "ERC721NonexistentToken",
      "type": "error"
    },
    {
      "inputs": [],
      "name": "InvalidShortString",
      "type": "error"
    },
    {
      "inputs": [],
      "name": "InvalidSignature",
      "type": "error"
    },
    {
      "inputs": [],
      "name": "PermitExpired",
      "type": "error"
    },
    {
      "inputs": [
        {
          "internalType": "string",
          "name": "str",
          "type": "string"
        }
      ],
      "name": "StringTooLong",
      "type": "error"
    },
    {
      "anonymous": false,
      "inputs": [
        {
          "indexed": true,
          "internalType": "address",
          "name": "owner",
          "type": "address"
        },
        {
          "indexed": true,
          "internalType": "address",
          "name": "approved",
          "type": "address"
        },
        {
          "indexed": true,
          "internalType": "uint256",
          "name": "tokenId",
          "type": "uint256"
        }
      ],
      "name": "Approval",
      "type": "event"
    },
    {
      "anonymous": false,
      "inputs": [
        {
          "indexed": true,
          "internalType": "address",
          "name": "owner",
          "type": "address"
        },
        {
          "indexed": true,
          "internalType": "address",
          "name": "operator",
          "type": "address"
        },
        {
          "indexed": false,
          "internalType": "bool",
          "name": "approved",
          "type": "bool"
        }
      ],
      "name": "ApprovalForAll",
      "type": "event"
    },
    {
      "anonymous": false,
      "inputs": [],
      "name": "EIP712DomainChanged",
      "type": "event"
    },
    {
      "anonymous": false,
      "inputs": [
        {
          "indexed": true,
          "internalType": "address",
          "name": "from",
          "type": "address"
        },
        {
          "indexed": true,
          "internalType": "address",
          "name": "to",
          "type": "address"
        },
        {
          "indexed": true,
          "internalType": "uint256",
          "name": "tokenId",
          "type": "uint256"
        }
      ],
      "name": "Transfer",
      "type": "event"
    },
    {
      "inputs": [],
      "name": "DOMAIN_SEPARATOR",
      "outputs": [
        {
          "internalType": "bytes32",
          "name": "",
          "type": "bytes32"
        }
      ],
      "stateMutability": "view",
      "type": "function"
    },
    {
      "inputs": [],
      "name": "PERMIT_TYPEHASH",
      "outputs": [
        {
          "internalType": "bytes32",
          "name": "",
          "type": "bytes32"
        }
      ],
      "stateMutability": "view",
      "type": "function"
    },
    {
      "inputs": [
        {
          "internalType": "address",
          "name": "to",
          "type": "address"
        },
        {
          "internalType": "uint256",
          "name": "tokenId",
          "type": "uint256"
        }
      ],
      "name": "approve",
      "outputs": [],
      "stateMutability": "nonpayable",
      "type": "function"
    },
    {
      "inputs": [
        {
          "internalType": "address",
          "name": "owner",
          "type": "address"
        }
      ],
      "name": "balanceOf",
      "outputs": [
        {
          "internalType": "uint256",
          "name": "",
          "type": "uint256"
        }
      ],
      "stateMutability": "view",
      "type": "function"
    },
    {
      "inputs": [],
      "name": "eip712Domain",
      "outputs": [
        {
          "internalType": "bytes1",
          "name": "fields",
          "type": "bytes1"
        },
        {
          "internalType": "string",
          "name": "name",
          "type": "string"
        },
        {
          "internalType": "string",
          "name": "version",
          "type": "string"
        },
        {
          "internalType": "uint256",
          "name": "chainId",
          "type": "uint256"
        },
        {
          "internalType": "address",
          "name": "verifyingContract",
          "type": "address"
        },
        {
          "internalType": "bytes32",
          "name": "salt",
          "type": "bytes32"
        },
        {
          "internalType": "uint256[]",
          "name": "extensions",
          "type": "uint256[]"
        }
      ],
      "stateMutability": "view",
      "type": "function"
    },
    {
      "inputs": [
        {
          "internalType": "uint256",
          "name": "tokenId",
          "type": "uint256"
        }
      ],
      "name": "getApproved",
      "outputs": [
        {
          "internalType": "address",
          "name": "",
          "type": "address"
        }
      ],
      "stateMutability": "view",
      "type": "function"
    },
    {
      "inputs": [
        {
          "internalType": "address",
          "name": "owner",
          "type": "address"
        },
        {
          "internalType": "address",
          "name": "operator",
          "type": "address"
        }
      ],
      "name": "isApprovedForAll",
      "outputs": [
        {
          "internalType": "bool",
          "name": "",
          "type": "bool"
        }
      ],
      "stateMutability": "view",
      "type": "function"
    },
    {
      "inputs": [],
      "name": "name",
      "outputs": [
        {
          "internalType": "string",
          "name": "",
          "type": "string"
        }
      ],
      "stateMutability": "view",
      "type": "function"
    },
    {
      "inputs": [
        {
          "internalType": "uint256",
          "name": "id",
          "type": "uint256"
        }
      ],
      "name": "nonces",
      "outputs": [
        {
          "internalType": "uint256",
          "name": "",
          "type": "uint256"
        }
      ],
      "stateMutability": "view",
      "type": "function"
    },
    {
      "inputs": [
        {
          "internalType": "uint256",
          "name": "tokenId",
          "type": "uint256"
        }
      ],
      "name": "ownerOf",
      "outputs": [
        {
          "internalType": "address",
          "name": "",
          "type": "address"
        }
      ],
      "stateMutability": "view",
      "type": "function"
    },
    {
      "inputs": [
        {
          "internalType": "address",
          "name": "spender",
          "type": "address"
        },
        {
          "internalType": "uint256",
          "name": "tokenId",
          "type": "uint256"
        },
        {
          "internalType": "uint256",
          "name": "deadline",
          "type": "uint256"
        },
        {
          "internalType": "uint8",
          "name": "v",
          "type": "uint8"
        },
        {
          "internalType": "bytes32",
          "name": "r",
          "type": "bytes32"
        },
        {
          "internalType": "bytes32",
          "name": "s",
          "type": "bytes32"
        }
      ],
      "name": "permit",
      "outputs": [],
      "stateMutability": "nonpayable",
      "type": "function"
    },
    {
      "inputs": [
        {
          "internalType": "address",
          "name": "from",
          "type": "address"
        },
        {
          "internalType": "address",
          "name": "to",
          "type": "address"
        },
        {
          "internalType": "uint256",
          "name": "tokenId",
          "type": "uint256"
        }
      ],
      "name": "safeTransferFrom",
      "outputs": [],
      "stateMutability": "nonpayable",
      "type": "function"
    },
    {
      "inputs": [
        {
          "internalType": "address",
          "name": "from",
          "type": "address"
        },
        {
          "internalType": "address",
          "name": "to",
          "type": "address"
        },
        {
          "internalType": "uint256",
          "name": "tokenId",
          "type": "uint256"
        },
        {
          "internalType": "bytes",
          "name": "data",
          "type": "bytes"
        }
      ],
      "name": "safeTransferFrom",
      "outputs": [],
      "stateMutability": "nonpayable",
      "type": "function"
    },
    {
      "inputs": [
        {
          "internalType": "address",
          "name": "operator",
          "type": "address"
        },
        {
          "internalType": "bool",
          "name": "approved",
          "type": "bool"
        }
      ],
      "name": "setApprovalForAll",
      "outputs": [],
      "stateMutability": "nonpayable",
      "type": "function"
    },
    {
      "inputs": [
        {
          "internalType": "bytes4",
          "name": "interfaceId",
          "type": "bytes4"
        }
      ],
      "name": "supportsInterface",
      "outputs": [
        {
          "internalType": "bool",
          "name": "",
          "type": "bool"
        }
      ],
      "stateMutability": "view",
      "type": "function"
    },
    {
      "inputs": [],
      "name": "symbol",
      "outputs": [
        {
          "internalType": "string",
          "name": "",
          "type": "string"
        }
      ],
      "stateMutability": "view",
      "type": "function"
    },
    {
      "inputs": [
        {
          "internalType": "uint256",
          "name": "tokenId",
          "type": "uint256"
        }
      ],
      "name": "tokenURI",
      "outputs": [
        {
          "internalType": "string",
          "name": "",
          "type": "string"
        }
      ],
      "stateMutability": "view",
      "type": "function"
    },
    {
      "inputs": [
        {
          "internalType": "address",
          "name": "from",
          "type": "address"
        },
        {
          "internalType": "address",
          "name": "to",
          "type": "address"
        },
        {
          "internalType": "uint256",
          "name": "tokenId",
          "type": "uint256"
        }
      ],
      "name": "transferFrom",
      "outputs": [],
      "stateMutability": "nonpayable",
      "type": "function"
    }
  ],
  "bytecode": "0x61016060405234801562000011575f80fd5b5060405162001cb738038062001cb7833981016040819052620000349162000260565b828181845f62000045838262000375565b50600162000054828262000375565b50620000669150839050600562000117565b610120526200007781600662000117565b61014052815160208084019190912060e052815190820120610100524660a0526200010460e05161010051604080517f8b73c3c69bb8fe3d512ecc4cf759cc79239f7b179b0ffacaa9a75d522b39400f60208201529081019290925260608201524660808201523060a08201525f9060c00160405160208183030381529060405280519060200120905090565b60805250503060c0525062000499915050565b5f60208351101562000136576200012e836200014f565b905062000149565b8162000143848262000375565b5060ff90505b92915050565b5f80829050601f8151111562000185578260405163305a27a960e01b81526004016200017c919062000441565b60405180910390fd5b8051620001928262000475565b179392505050565b634e487b7160e01b5f52604160045260245ffd5b5f5b83811015620001ca578181015183820152602001620001b0565b50505f910152565b5f82601f830112620001e2575f80fd5b81516001600160401b0380821115620001ff57620001ff6200019a565b604051601f8301601f19908116603f011681019082821181831017156200022a576200022a6200019a565b8160405283815286602085880101111562000243575f80fd5b62000256846020830160208901620001ae565b9695505050505050565b5f805f6060848603121562000273575f80fd5b83516001600160401b03808211156200028a575f80fd5b6200029887838801620001d2565b94506020860151915080821115620002ae575f80fd5b620002bc87838801620001d2565b93506040860151915080821115620002d2575f80fd5b50620002e186828701620001d2565b9150509250925092565b600181811c908216806200030057607f821691505b6020821081036200031f57634e487b7160e01b5f52602260045260245ffd5b50919050565b601f8211156200037057805f5260205f20601f840160051c810160208510156200034c5750805b601f840160051c820191505b818110156200036d575f815560010162000358565b50505b505050565b81516001600160401b038111156200039157620003916200019a565b620003a981620003a28454620002eb565b8462000325565b602080601f831160018114620003df575f8415620003c75750858301515b5f19600386901b1c1916600185901b17855562000439565b5f85815260208120601f198616915b828110156200040f57888601518255948401946001909101908401620003ee565b50858210156200042d57878501515f19600388901b60f8161c191681555b505060018460011b0185555b505050505050565b602081525f825180602084015262000461816040850160208701620001ae565b601f01601f19169190910160400192915050565b805160208083015191908110156200031f575f1960209190910360031b1b16919050565b60805160a05160c05160e0516101005161012051610140516117cc620004eb5f395f610c6501525f610c3801525f610a4c01525f610a2401525f61097f01525f6109a901525f6109d301526117cc5ff3fe608060405234801561000f575f80fd5b5060043610610111575f3560e01c80636352211e1161009e57806395d89b411161006e57806395d89b411461026b578063a22cb46514610273578063b88d4fde14610286578063c87b56dd14610299578063e985e9c5146102ac575f80fd5b80636352211e1461021757806370a082311461022a5780637ac2ff7b1461023d57806384b0196e14610250575f80fd5b8063141a468c116100e4578063141a468c1461019257806323b872dd146101c257806330adf81f146101d55780633644e515146101fc57806342842e0e14610204575f80fd5b806301ffc9a71461011557806306fdde031461013d578063081812fc14610152578063095ea7b31461017d575b5f80fd5b610128610123366004611323565b6102bf565b60405190151581526020015b60405180910390f35b6101456102e9565b604051610134919061138b565b61016561016036600461139d565b610378565b6040516001600160a01b039091168152602001610134565b61019061018b3660046113cf565b61039f565b005b6101b46101a036600461139d565b5f9081526007602052604090205460a01c90565b604051908152602001610134565b6101906101d03660046113f7565b6103ae565b6101b47f49ecf333e5b8c95c40fdafc95c1ad136e8914a8fb55e9dc8bb01eaa83a2df9ad81565b6101b461043c565b6101906102123660046113f7565b61044a565b61016561022536600461139d565b610469565b6101b4610238366004611430565b610473565b61019061024b366004611449565b6104b8565b6102586106cf565b60405161013497969594939291906114a4565b610145610711565b61019061028136600461153b565b610720565b610190610294366004611588565b61072b565b6101456102a736600461139d565b610742565b6101286102ba36600461165d565b6107b3565b5f6001600160e01b03198216636831a4fd60e01b14806102e357506102e3826107e0565b92915050565b60605f80546102f79061168e565b80601f01602080910402602001604051908101604052809291908181526020018280546103239061168e565b801561036e5780601f106103455761010080835404028352916020019161036e565b820191905f5260205f20905b81548152906001019060200180831161035157829003601f168201915b5050505050905090565b5f6103828261082f565b505f828152600360205260409020546001600160a01b03166102e3565b6103aa828233610867565b5050565b6001600160a01b0382166103dc57604051633250574960e11b81525f60048201526024015b60405180910390fd5b5f6103e8838333610874565b9050836001600160a01b0316816001600160a01b031614610436576040516364283d7b60e01b81526001600160a01b03808616600483015260248201849052821660448201526064016103d3565b50505050565b5f610445610973565b905090565b61046483838360405180602001604052805f81525061072b565b505050565b5f6102e38261082f565b5f6001600160a01b03821661049d576040516322718ad960e21b81525f60048201526024016103d3565b506001600160a01b03165f9081526002602052604090205490565b834211156104d95760405163068568f360e21b815260040160405180910390fd5b5f6105567f49ecf333e5b8c95c40fdafc95c1ad136e8914a8fb55e9dc8bb01eaa83a2df9ad888861050981610a9c565b6040805160208101959095526001600160a01b03909316928401929092526060830152608082015260a0810187905260c00160405160208183030381529060405280519060200120610ad5565b90505f61056287610469565b9050806001600160a01b0316886001600160a01b03160361059657604051638baa579f60e01b815260040160405180910390fd5b6001600160a01b0381163b1561067b57604080516020810186905280820185905260f887901b6001600160f81b0319166060820152815160418183030181526061820192839052630b135d3f60e11b9092526001600160a01b03831691631626ba7e916106079186916065016116c6565b602060405180830381865afa158015610622573d5f803e3d5ffd5b505050506040513d601f19601f8201168201806040525081019061064691906116de565b6001600160e01b031916631626ba7e60e01b1461067657604051638baa579f60e01b815260040160405180910390fd5b6106b8565b806001600160a01b031661069183878787610b01565b6001600160a01b0316146106b857604051638baa579f60e01b815260040160405180910390fd5b6106c58888836001610b2d565b5050505050505050565b5f6060805f805f60606106e0610c31565b6106e8610c5e565b604080515f80825260208201909252600f60f81b9b939a50919850469750309650945092509050565b6060600180546102f79061168e565b6103aa338383610c8b565b6107368484846103ae565b61043684848484610d29565b606061074d8261082f565b505f61076360408051602081019091525f815290565b90505f8151116107815760405180602001604052805f8152506107ac565b8061078b84610e4f565b60405160200161079c9291906116f9565b6040516020818303038152906040525b9392505050565b6001600160a01b039182165f90815260046020908152604080832093909416825291909152205460ff1690565b5f6001600160e01b031982166380ac58cd60e01b148061081057506001600160e01b03198216635b5e139f60e01b145b806102e357506301ffc9a760e01b6001600160e01b03198316146102e3565b5f818152600760205260408120546001600160a01b0381166102e357604051637e27328960e01b8152600481018490526024016103d3565b6104648383836001610b2d565b5f828152600760205260408120546001600160a01b0383161561089c5761089c818486610edf565b6001600160a01b038116156108d6576108b75f855f80610b2d565b6001600160a01b0381165f90815260026020526040902080545f190190555b6001600160a01b03851615610904576001600160a01b0385165f908152600260205260409020805460010190555b5f84815260076020526040902080546001600160a01b0319166001600160a01b03871617905583856001600160a01b0316826001600160a01b03167fddf252ad1be2c89b69c2b068fc378daa952ba7f163c4a11628f55a4df523b3ef60405160405180910390a4949350505050565b5f306001600160a01b037f0000000000000000000000000000000000000000000000000000000000000000161480156109cb57507f000000000000000000000000000000000000000000000000000000000000000046145b156109f557507f000000000000000000000000000000000000000000000000000000000000000090565b610445604080517f8b73c3c69bb8fe3d512ecc4cf759cc79239f7b179b0ffacaa9a75d522b39400f60208201527f0000000000000000000000000000000000000000000000000000000000000000918101919091527f000000000000000000000000000000000000000000000000000000000000000060608201524660808201523060a08201525f9060c00160405160208183030381529060405280519060200120905090565b5f8181526007602052604090205460a081901c90610abe81600160a01b611727565b5f9384526007602052604090932092909255919050565b5f6102e3610ae1610973565b8360405161190160f01b8152600281019290925260228201526042902090565b5f805f80610b1188888888610f43565b925092509250610b21828261100b565b50909695505050505050565b8080610b4157506001600160a01b03821615155b15610c02575f610b508461082f565b90506001600160a01b03831615801590610b7c5750826001600160a01b0316816001600160a01b031614155b8015610b8f5750610b8d81846107b3565b155b15610bb85760405163a9fbf51f60e01b81526001600160a01b03841660048201526024016103d3565b8115610c005783856001600160a01b0316826001600160a01b03167f8c5be1e5ebec7d5bd14f71427d1e84f3dd0314c0f7b2291e5b200ac8c7c3b92560405160405180910390a45b505b50505f90815260036020526040902080546001600160a01b0319166001600160a01b0392909216919091179055565b60606104457f000000000000000000000000000000000000000000000000000000000000000060056110c3565b60606104457f000000000000000000000000000000000000000000000000000000000000000060066110c3565b6001600160a01b038216610cbd57604051630b61174360e31b81526001600160a01b03831660048201526024016103d3565b6001600160a01b038381165f81815260046020908152604080832094871680845294825291829020805460ff191686151590811790915591519182527f17307eab39ab6107e8899845ad3d59bd9653f200f220920489ca2b5937696c31910160405180910390a3505050565b6001600160a01b0383163b1561043657604051630a85bd0160e11b81526001600160a01b0384169063150b7a0290610d6b903390889087908790600401611746565b6020604051808303815f875af1925050508015610da5575060408051601f3d908101601f19168201909252610da2918101906116de565b60015b610e0c573d808015610dd2576040519150601f19603f3d011682016040523d82523d5f602084013e610dd7565b606091505b5080515f03610e0457604051633250574960e11b81526001600160a01b03851660048201526024016103d3565b805181602001fd5b6001600160e01b03198116630a85bd0160e11b14610e4857604051633250574960e11b81526001600160a01b03851660048201526024016103d3565b5050505050565b60605f610e5b8361116c565b60010190505f8167ffffffffffffffff811115610e7a57610e7a611574565b6040519080825280601f01601f191660200182016040528015610ea4576020820181803683370190505b5090508181016020015b5f19016f181899199a1a9b1b9c1cb0b131b232b360811b600a86061a8153600a8504945084610eae57509392505050565b610eea838383611243565b610464576001600160a01b038316610f1857604051637e27328960e01b8152600481018290526024016103d3565b60405163177e802f60e01b81526001600160a01b0383166004820152602481018290526044016103d3565b5f80807f7fffffffffffffffffffffffffffffff5d576e7357a4501ddfe92f46681b20a0841115610f7c57505f91506003905082611001565b604080515f808252602082018084528a905260ff891692820192909252606081018790526080810186905260019060a0016020604051602081039080840390855afa158015610fcd573d5f803e3d5ffd5b5050604051601f1901519150506001600160a01b038116610ff857505f925060019150829050611001565b92505f91508190505b9450945094915050565b5f82600381111561101e5761101e611782565b03611027575050565b600182600381111561103b5761103b611782565b036110595760405163f645eedf60e01b815260040160405180910390fd5b600282600381111561106d5761106d611782565b0361108e5760405163fce698f760e01b8152600481018290526024016103d3565b60038260038111156110a2576110a2611782565b036103aa576040516335e2f38360e21b8152600481018290526024016103d3565b606060ff83146110dd576110d6836112a7565b90506102e3565b8180546110e99061168e565b80601f01602080910402602001604051908101604052809291908181526020018280546111159061168e565b80156111605780601f1061113757610100808354040283529160200191611160565b820191905f5260205f20905b81548152906001019060200180831161114357829003601f168201915b505050505090506102e3565b5f8072184f03e93ff9f4daa797ed6e38ed64bf6a1f0160401b83106111aa5772184f03e93ff9f4daa797ed6e38ed64bf6a1f0160401b830492506040015b6d04ee2d6d415b85acef810000000083106111d6576d04ee2d6d415b85acef8100000000830492506020015b662386f26fc1000083106111f457662386f26fc10000830492506010015b6305f5e100831061120c576305f5e100830492506008015b612710831061122057612710830492506004015b60648310611232576064830492506002015b600a83106102e35760010192915050565b5f6001600160a01b0383161580159061129f5750826001600160a01b0316846001600160a01b0316148061127c575061127c84846107b3565b8061129f57505f828152600360205260409020546001600160a01b038481169116145b949350505050565b60605f6112b3836112e4565b6040805160208082528183019092529192505f91906020820181803683375050509182525060208101929092525090565b5f60ff8216601f8111156102e357604051632cd44ac360e21b815260040160405180910390fd5b6001600160e01b031981168114611320575f80fd5b50565b5f60208284031215611333575f80fd5b81356107ac8161130b565b5f5b83811015611358578181015183820152602001611340565b50505f910152565b5f815180845261137781602086016020860161133e565b601f01601f19169290920160200192915050565b602081525f6107ac6020830184611360565b5f602082840312156113ad575f80fd5b5035919050565b80356001600160a01b03811681146113ca575f80fd5b919050565b5f80604083850312156113e0575f80fd5b6113e9836113b4565b946020939093013593505050565b5f805f60608486031215611409575f80fd5b611412846113b4565b9250611420602085016113b4565b9150604084013590509250925092565b5f60208284031215611440575f80fd5b6107ac826113b4565b5f805f805f8060c0878903121561145e575f80fd5b611467876113b4565b95506020870135945060408701359350606087013560ff8116811461148a575f80fd5b9598949750929560808101359460a0909101359350915050565b60ff60f81b881681525f602060e060208401526114c460e084018a611360565b83810360408501526114d6818a611360565b606085018990526001600160a01b038816608086015260a0850187905284810360c0860152855180825260208088019350909101905f5b818110156115295783518352928401929184019160010161150d565b50909c9b505050505050505050505050565b5f806040838503121561154c575f80fd5b611555836113b4565b915060208301358015158114611569575f80fd5b809150509250929050565b634e487b7160e01b5f52604160045260245ffd5b5f805f806080858703121561159b575f80fd5b6115a4856113b4565b93506115b2602086016113b4565b925060408501359150606085013567ffffffffffffffff808211156115d5575f80fd5b818701915087601f8301126115e8575f80fd5b8135818111156115fa576115fa611574565b604051601f8201601f19908116603f0116810190838211818310171561162257611622611574565b816040528281528a602084870101111561163a575f80fd5b826020860160208301375f60208483010152809550505050505092959194509250565b5f806040838503121561166e575f80fd5b611677836113b4565b9150611685602084016113b4565b90509250929050565b600181811c908216806116a257607f821691505b6020821081036116c057634e487b7160e01b5f52602260045260245ffd5b50919050565b828152604060208201525f61129f6040830184611360565b5f602082840312156116ee575f80fd5b81516107ac8161130b565b5f835161170a81846020880161133e565b83519083019061171e81836020880161133e565b01949350505050565b808201808211156102e357634e487b7160e01b5f52601160045260245ffd5b6001600160a01b03858116825284166020820152604081018390526080606082018190525f9061177890830184611360565b9695505050505050565b634e487b7160e01b5f52602160045260245ffdfea2646970667358221220a9b4af8f125da6d16b8519778598ec8625e29e26629e310af85ec354fd6a5bdb64736f6c63430008180033",
  "linkReferences": {},
  "deployedLinkReferences": {}
}