{
  "_format": "hh-sol-artifact-1",
  "contractName": "ERC721Permit",
  "sourceName": "contracts/libraries/ERC721Permit.sol",
  "abi": [
    {
      "inputs": [
        {
          "internalType": "string",
          "name": "name_",
          "type": "string"
        },
        {
          "internalType": "string",
          "name": "symbol_",
          "type": "string"
        },
        {
          "internalType": "string",
          "name": "version_",
          "type": "string"
        }
      ],
      "stateMutability": "nonpayable",
      "type": "constructor"
    },
    {
      "inputs": [],
      "name": "ECDSAInvalidSignature",
      "type": "error"
    },
    {
      "inputs": [
        {
          "internalType": "uint256",
          "name": "length",
          "type": "uint256"
        }
      ],
      "name": "ECDSAInvalidSignatureLength",
      "type": "error"
    },
    {
      "inputs": [
        {
          "internalType": "bytes32",
          "name": "s",
          "type": "bytes32"
        }
      ],
      "name": "ECDSAInvalidSignatureS",
      "type": "error"
    },
    {
      "inputs": [
        {
          "internalType": "address",
          "name": "sender",
          "type": "address"
        },
        {
          "internalType": "uint256",
          "name": "tokenId",
          "type": "uint256"
        },
        {
          "internalType": "address",
          "name": "owner",
          "type": "address"
        }
      ],
      "name": "ERC721IncorrectOwner",
      "type": "error"
    },
    {
      "inputs": [
        {
          "internalType": "address",
          "name": "operator",
          "type": "address"
        },
        {
          "internalType": "uint256",
          "name": "tokenId",
          "type": "uint256"
        }
      ],
      "name": "ERC721InsufficientApproval",
      "type": "error"
    },
    {
      "inputs": [
        {
          "internalType": "address",
          "name": "approver",
          "type": "address"
        }
      ],
      "name": "ERC721InvalidApprover",
      "type": "error"
    },
    {
      "inputs": [
        {
          "internalType": "address",
          "name": "operator",
          "type": "address"
        }
      ],
      "name": "ERC721InvalidOperator",
      "type": "error"
    },
    {
      "inputs": [
        {
          "internalType": "address",
          "name": "owner",
          "type": "address"
        }
      ],
      "name": "ERC721InvalidOwner",
      "type": "error"
    },
    {
      "inputs": [
        {
          "internalType": "address",
          "name": "receiver",
          "type": "address"
        }
      ],
      "name": "ERC721InvalidReceiver",
      "type": "error"
    },
    {
      "inputs": [
        {
          "internalType": "address",
          "name": "sender",
          "type": "address"
        }
      ],
      "name": "ERC721InvalidSender",
      "type": "error"
    },
    {
      "inputs": [
        {
          "internalType": "uint256",
          "name": "tokenId",
          "type": "uint256"
        }
      ],
      "name": "ERC721NonexistentToken",
      "type": "error"
    },
    {
      "inputs": [],
      "name": "InvalidShortString",
      "type": "error"
    },
    {
      "inputs": [],
      "name": "InvalidSignature",
      "type": "error"
    },
    {
      "inputs": [],
      "name": "PermitExpired",
      "type": "error"
    },
    {
      "inputs": [
        {
          "internalType": "string",
          "name": "str",
          "type": "string"
        }
      ],
      "name": "StringTooLong",
      "type": "error"
    },
    {
      "anonymous": false,
      "inputs": [
        {
          "indexed": true,
          "internalType": "address",
          "name": "owner",
          "type": "address"
        },
        {
          "indexed": true,
          "internalType": "address",
          "name": "approved",
          "type": "address"
        },
        {
          "indexed": true,
          "internalType": "uint256",
          "name": "tokenId",
          "type": "uint256"
        }
      ],
      "name": "Approval",
      "type": "event"
    },
    {
      "anonymous": false,
      "inputs": [
        {
          "indexed": true,
          "internalType": "address",
          "name": "owner",
          "type": "address"
        },
        {
          "indexed": true,
          "internalType": "address",
          "name": "operator",
          "type": "address"
        },
        {
          "indexed": false,
          "internalType": "bool",
          "name": "approved",
          "type": "bool"
        }
      ],
      "name": "ApprovalForAll",
      "type": "event"
    },
    {
      "anonymous": false,
      "inputs": [],
      "name": "EIP712DomainChanged",
      "type": "event"
    },
    {
      "anonymous": false,
      "inputs": [
        {
          "indexed": true,
          "internalType": "address",
          "name": "from",
          "type": "address"
        },
        {
          "indexed": true,
          "internalType": "address",
          "name": "to",
          "type": "address"
        },
        {
          "indexed": true,
          "internalType": "uint256",
          "name": "tokenId",
          "type": "uint256"
        }
      ],
      "name": "Transfer",
      "type": "event"
    },
    {
      "inputs": [],
      "name": "DOMAIN_SEPARATOR",
      "outputs": [
        {
          "internalType": "bytes32",
          "name": "",
          "type": "bytes32"
        }
      ],
      "stateMutability": "view",
      "type": "function"
    },
    {
      "inputs": [],
      "name": "PERMIT_TYPEHASH",
      "outputs": [
        {
          "internalType": "bytes32",
          "name": "",
          "type": "bytes32"
        }
      ],
      "stateMutability": "view",
      "type": "function"
    },
    {
      "inputs": [
        {
          "internalType": "address",
          "name": "to",
          "type": "address"
        },
        {
          "internalType": "uint256",
          "name": "tokenId",
          "type": "uint256"
        }
      ],
      "name": "approve",
      "outputs": [],
      "stateMutability": "nonpayable",
      "type": "function"
    },
    {
      "inputs": [
        {
          "internalType": "address",
          "name": "owner",
          "type": "address"
        }
      ],
      "name": "balanceOf",
      "outputs": [
        {
          "internalType": "uint256",
          "name": "",
          "type": "uint256"
        }
      ],
      "stateMutability": "view",
      "type": "function"
    },
    {
      "inputs": [],
      "name": "eip712Domain",
      "outputs": [
        {
          "internalType": "bytes1",
          "name": "fields",
          "type": "bytes1"
        },
        {
          "internalType": "string",
          "name": "name",
          "type": "string"
        },
        {
          "internalType": "string",
          "name": "version",
          "type": "string"
        },
        {
          "internalType": "uint256",
          "name": "chainId",
          "type": "uint256"
        },
        {
          "internalType": "address",
          "name": "verifyingContract",
          "type": "address"
        },
        {
          "internalType": "bytes32",
          "name": "salt",
          "type": "bytes32"
        },
        {
          "internalType": "uint256[]",
          "name": "extensions",
          "type": "uint256[]"
        }
      ],
      "stateMutability": "view",
      "type": "function"
    },
    {
      "inputs": [
        {
          "internalType": "uint256",
          "name": "tokenId",
          "type": "uint256"
        }
      ],
      "name": "getApproved",
      "outputs": [
        {
          "internalType": "address",
          "name": "",
          "type": "address"
        }
      ],
      "stateMutability": "view",
      "type": "function"
    },
    {
      "inputs": [
        {
          "internalType": "address",
          "name": "owner",
          "type": "address"
        },
        {
          "internalType": "address",
          "name": "operator",
          "type": "address"
        }
      ],
      "name": "isApprovedForAll",
      "outputs": [
        {
          "internalType": "bool",
          "name": "",
          "type": "bool"
        }
      ],
      "stateMutability": "view",
      "type": "function"
    },
    {
      "inputs": [],
      "name": "name",
      "outputs": [
        {
          "internalType": "string",
          "name": "",
          "type": "string"
        }
      ],
      "stateMutability": "view",
      "type": "function"
    },
    {
      "inputs": [
        {
          "internalType": "uint256",
          "name": "id",
          "type": "uint256"
        }
      ],
      "name": "nonces",
      "outputs": [
        {
          "internalType": "uint256",
          "name": "",
          "type": "uint256"
        }
      ],
      "stateMutability": "view",
      "type": "function"
    },
    {
      "inputs": [
        {
          "internalType": "uint256",
          "name": "tokenId",
          "type": "uint256"
        }
      ],
      "name": "ownerOf",
      "outputs": [
        {
          "internalType": "address",
          "name": "",
          "type": "address"
        }
      ],
      "stateMutability": "view",
      "type": "function"
    },
    {
      "inputs": [
        {
          "internalType": "address",
          "name": "spender",
          "type": "address"
        },
        {
          "internalType": "uint256",
          "name": "tokenId",
          "type": "uint256"
        },
        {
          "internalType": "uint256",
          "name": "deadline",
          "type": "uint256"
        },
        {
          "internalType": "uint8",
          "name": "v",
          "type": "uint8"
        },
        {
          "internalType": "bytes32",
          "name": "r",
          "type": "bytes32"
        },
        {
          "internalType": "bytes32",
          "name": "s",
          "type": "bytes32"
        }
      ],
      "name": "permit",
      "outputs": [],
      "stateMutability": "nonpayable",
      "type": "function"
    },
    {
      "inputs": [
        {
          "internalType": "address",
          "name": "from",
          "type": "address"
        },
        {
          "internalType": "address",
          "name": "to",
          "type": "address"
        },
        {
          "internalType": "uint256",
          "name": "tokenId",
          "type": "uint256"
        }
      ],
      "name": "safeTransferFrom",
      "outputs": [],
      "stateMutability": "nonpayable",
      "type": "function"
    },
    {
      "inputs": [
        {
          "internalType": "address",
          "name": "from",
          "type": "address"
        },
        {
          "internalType": "address",
          "name": "to",
          "type": "address"
        },
        {
          "internalType": "uint256",
          "name": "tokenId",
          "type": "uint256"
        },
        {
          "internalType": "bytes",
          "name": "data",
          "type": "bytes"
        }
      ],
      "name": "safeTransferFrom",
      "outputs": [],
      "stateMutability": "nonpayable",
      "type": "function"
    },
    {
      "inputs": [
        {
          "internalType": "address",
          "name": "operator",
          "type": "address"
        },
        {
          "internalType": "bool",
          "name": "approved",
          "type": "bool"
        }
      ],
      "name": "setApprovalForAll",
      "outputs": [],
      "stateMutability": "nonpayable",
      "type": "function"
    },
    {
      "inputs": [
        {
          "internalType": "bytes4",
          "name": "interfaceId",
          "type": "bytes4"
        }
      ],
      "name": "supportsInterface",
      "outputs": [
        {
          "internalType": "bool",
          "name": "",
          "type": "bool"
        }
      ],
      "stateMutability": "view",
      "type": "function"
    },
    {
      "inputs": [],
      "name": "symbol",
      "outputs": [
        {
          "internalType": "string",
          "name": "",
          "type": "string"
        }
      ],
      "stateMutability": "view",
      "type": "function"
    },
    {
      "inputs": [
        {
          "internalType": "uint256",
          "name": "tokenId",
          "type": "uint256"
        }
      ],
      "name": "tokenURI",
      "outputs": [
        {
          "internalType": "string",
          "name": "",
          "type": "string"
        }
      ],
      "stateMutability": "view",
      "type": "function"
    },
    {
      "inputs": [
        {
          "internalType": "address",
          "name": "from",
          "type": "address"
        },
        {
          "internalType": "address",
          "name": "to",
          "type": "address"
        },
        {
          "internalType": "uint256",
          "name": "tokenId",
          "type": "uint256"
        }
      ],
      "name": "transferFrom",
      "outputs": [],
      "stateMutability": "nonpayable",
      "type": "function"
    }
  ],
  "bytecode": "0x61016060405234801562000011575f80fd5b50604051620035c9380380620035c98339818101604052810190620000379190620003c2565b82818484815f90816200004b9190620006af565b5080600190816200005d9190620006af565b505050620000766005836200011960201b90919060201c565b6101208181525050620000946006826200011960201b90919060201c565b6101408181525050818051906020012060e08181525050808051906020012061010081815250504660a08181525050620000d36200016e60201b60201c565b608081815250503073ffffffffffffffffffffffffffffffffffffffff1660c08173ffffffffffffffffffffffffffffffffffffffff168152505050505050506200096c565b5f6020835110156200013e576200013683620001ca60201b60201c565b905062000168565b8262000150836200023460201b60201c565b5f019081620001609190620006af565b5060ff5f1b90505b92915050565b5f7f8b73c3c69bb8fe3d512ecc4cf759cc79239f7b179b0ffacaa9a75d522b39400f60e051610100514630604051602001620001af95949392919062000801565b60405160208183030381529060405280519060200120905090565b5f80829050601f815111156200021957826040517f305a27a9000000000000000000000000000000000000000000000000000000008152600401620002109190620008ac565b60405180910390fd5b8051816200022790620008fd565b5f1c175f1b915050919050565b5f819050919050565b5f604051905090565b5f80fd5b5f80fd5b5f80fd5b5f80fd5b5f601f19601f8301169050919050565b7f4e487b71000000000000000000000000000000000000000000000000000000005f52604160045260245ffd5b6200029e8262000256565b810181811067ffffffffffffffff82111715620002c057620002bf62000266565b5b80604052505050565b5f620002d46200023d565b9050620002e2828262000293565b919050565b5f67ffffffffffffffff82111562000304576200030362000266565b5b6200030f8262000256565b9050602081019050919050565b5f5b838110156200033b5780820151818401526020810190506200031e565b5f8484015250505050565b5f6200035c6200035684620002e7565b620002c9565b9050828152602081018484840111156200037b576200037a62000252565b5b620003888482856200031c565b509392505050565b5f82601f830112620003a757620003a66200024e565b5b8151620003b984826020860162000346565b91505092915050565b5f805f60608486031215620003dc57620003db62000246565b5b5f84015167ffffffffffffffff811115620003fc57620003fb6200024a565b5b6200040a8682870162000390565b935050602084015167ffffffffffffffff8111156200042e576200042d6200024a565b5b6200043c8682870162000390565b925050604084015167ffffffffffffffff81111562000460576200045f6200024a565b5b6200046e8682870162000390565b9150509250925092565b5f81519050919050565b7f4e487b71000000000000000000000000000000000000000000000000000000005f52602260045260245ffd5b5f6002820490506001821680620004c757607f821691505b602082108103620004dd57620004dc62000482565b5b50919050565b5f819050815f5260205f209050919050565b5f6020601f8301049050919050565b5f82821b905092915050565b5f60088302620005417fffffffffffffffffffffffffffffffffffffffffffffffffffffffffffffffff8262000504565b6200054d868362000504565b95508019841693508086168417925050509392505050565b5f819050919050565b5f819050919050565b5f62000597620005916200058b8462000565565b6200056e565b62000565565b9050919050565b5f819050919050565b620005b28362000577565b620005ca620005c1826200059e565b84845462000510565b825550505050565b5f90565b620005e0620005d2565b620005ed818484620005a7565b505050565b5b818110156200061457620006085f82620005d6565b600181019050620005f3565b5050565b601f82111562000663576200062d81620004e3565b6200063884620004f5565b8101602085101562000648578190505b620006606200065785620004f5565b830182620005f2565b50505b505050565b5f82821c905092915050565b5f620006855f198460080262000668565b1980831691505092915050565b5f6200069f838362000674565b9150826002028217905092915050565b620006ba8262000478565b67ffffffffffffffff811115620006d657620006d562000266565b5b620006e28254620004af565b620006ef82828562000618565b5f60209050601f83116001811462000725575f841562000710578287015190505b6200071c858262000692565b8655506200078b565b601f1984166200073586620004e3565b5f5b828110156200075e5784890151825560018201915060208501945060208101905062000737565b868310156200077e57848901516200077a601f89168262000674565b8355505b6001600288020188555050505b505050505050565b5f819050919050565b620007a78162000793565b82525050565b620007b88162000565565b82525050565b5f73ffffffffffffffffffffffffffffffffffffffff82169050919050565b5f620007e982620007be565b9050919050565b620007fb81620007dd565b82525050565b5f60a082019050620008165f8301886200079c565b6200082560208301876200079c565b6200083460408301866200079c565b620008436060830185620007ad565b620008526080830184620007f0565b9695505050505050565b5f82825260208201905092915050565b5f620008788262000478565b6200088481856200085c565b9350620008968185602086016200031c565b620008a18162000256565b840191505092915050565b5f6020820190508181035f830152620008c681846200086c565b905092915050565b5f81519050919050565b5f819050602082019050919050565b5f620008f4825162000793565b80915050919050565b5f6200090982620008ce565b826200091584620008d8565b90506200092281620008e7565b925060208210156200096557620009607fffffffffffffffffffffffffffffffffffffffffffffffffffffffffffffffff8360200360080262000504565b831692505b5050919050565b60805160a05160c05160e051610100516101205161014051612c0b620009be5f395f61130601525f6112cb01525f61191301525f6118f201525f610fb001525f61100601525f61102f0152612c0b5ff3fe608060405234801561000f575f80fd5b5060043610610114575f3560e01c80636352211e116100a057806395d89b411161006f57806395d89b41146102f6578063a22cb46514610314578063b88d4fde14610330578063c87b56dd1461034c578063e985e9c51461037c57610114565b80636352211e1461025657806370a08231146102865780637ac2ff7b146102b657806384b0196e146102d257610114565b8063141a468c116100e7578063141a468c146101b257806323b872dd146101e257806330adf81f146101fe5780633644e5151461021c57806342842e0e1461023a57610114565b806301ffc9a71461011857806306fdde0314610148578063081812fc14610166578063095ea7b314610196575b5f80fd5b610132600480360381019061012d9190611fd0565b6103ac565b60405161013f9190612015565b60405180910390f35b610150610425565b60405161015d91906120b8565b60405180910390f35b610180600480360381019061017b919061210b565b6104b4565b60405161018d9190612175565b60405180910390f35b6101b060048036038101906101ab91906121b8565b6104cf565b005b6101cc60048036038101906101c7919061210b565b6104e5565b6040516101d99190612205565b60405180910390f35b6101fc60048036038101906101f7919061221e565b610503565b005b610206610602565b6040516102139190612286565b60405180910390f35b610224610628565b6040516102319190612286565b60405180910390f35b610254600480360381019061024f919061221e565b610636565b005b610270600480360381019061026b919061210b565b610655565b60405161027d9190612175565b60405180910390f35b6102a0600480360381019061029b919061229f565b610666565b6040516102ad9190612205565b60405180910390f35b6102d060048036038101906102cb919061232a565b61071c565b005b6102da6109d2565b6040516102ed97969594939291906124a4565b60405180910390f35b6102fe610a77565b60405161030b91906120b8565b60405180910390f35b61032e60048036038101906103299190612550565b610b07565b005b61034a600480360381019061034591906126ba565b610b1d565b005b6103666004803603810190610361919061210b565b610b3a565b60405161037391906120b8565b60405180910390f35b6103966004803603810190610391919061273a565b610ba0565b6040516103a39190612015565b60405180910390f35b5f7f6831a4fd000000000000000000000000000000000000000000000000000000007bffffffffffffffffffffffffffffffffffffffffffffffffffffffff1916827bffffffffffffffffffffffffffffffffffffffffffffffffffffffff1916148061041e575061041d82610c2e565b5b9050919050565b60605f8054610433906127a5565b80601f016020809104026020016040519081016040528092919081815260200182805461045f906127a5565b80156104aa5780601f10610481576101008083540402835291602001916104aa565b820191905f5260205f20905b81548152906001019060200180831161048d57829003601f168201915b5050505050905090565b5f6104be82610d0f565b506104c882610d95565b9050919050565b6104e182826104dc610dce565b610dd5565b5050565b5f60a060075f8481526020019081526020015f2054901c9050919050565b5f73ffffffffffffffffffffffffffffffffffffffff168273ffffffffffffffffffffffffffffffffffffffff1603610573575f6040517f64a0ae9200000000000000000000000000000000000000000000000000000000815260040161056a9190612175565b60405180910390fd5b5f6105868383610581610dce565b610de7565b90508373ffffffffffffffffffffffffffffffffffffffff168173ffffffffffffffffffffffffffffffffffffffff16146105fc578382826040517f64283d7b0000000000000000000000000000000000000000000000000000000081526004016105f3939291906127d5565b60405180910390fd5b50505050565b7f49ecf333e5b8c95c40fdafc95c1ad136e8914a8fb55e9dc8bb01eaa83a2df9ad5f1b81565b5f610631610fad565b905090565b61065083838360405180602001604052805f815250610b1d565b505050565b5f61065f82610d0f565b9050919050565b5f8073ffffffffffffffffffffffffffffffffffffffff168273ffffffffffffffffffffffffffffffffffffffff16036106d7575f6040517f89c62b640000000000000000000000000000000000000000000000000000000081526004016106ce9190612175565b60405180910390fd5b60025f8373ffffffffffffffffffffffffffffffffffffffff1673ffffffffffffffffffffffffffffffffffffffff1681526020019081526020015f20549050919050565b83421115610756576040517f1a15a3cc00000000000000000000000000000000000000000000000000000000815260040160405180910390fd5b5f6107b87f49ecf333e5b8c95c40fdafc95c1ad136e8914a8fb55e9dc8bb01eaa83a2df9ad5f1b88886107888a611063565b8960405160200161079d95949392919061280a565b604051602081830303815290604052805190602001206110bc565b90505f6107c487610655565b90508073ffffffffffffffffffffffffffffffffffffffff168873ffffffffffffffffffffffffffffffffffffffff160361082b576040517f8baa579f00000000000000000000000000000000000000000000000000000000815260040160405180910390fd5b5f8173ffffffffffffffffffffffffffffffffffffffff163b111561094a57631626ba7e60e01b8173ffffffffffffffffffffffffffffffffffffffff16631626ba7e8487878a604051602001610884939291906128af565b6040516020818303038152906040526040518363ffffffff1660e01b81526004016108b092919061293d565b602060405180830381865afa1580156108cb573d5f803e3d5ffd5b505050506040513d601f19601f820116820180604052508101906108ef919061297f565b7bffffffffffffffffffffffffffffffffffffffffffffffffffffffff191614610945576040517f8baa579f00000000000000000000000000000000000000000000000000000000815260040160405180910390fd5b6109bb565b8073ffffffffffffffffffffffffffffffffffffffff1661096d838787876110d5565b73ffffffffffffffffffffffffffffffffffffffff16146109ba576040517f8baa579f00000000000000000000000000000000000000000000000000000000815260040160405180910390fd5b5b6109c88888836001611103565b5050505050505050565b5f6060805f805f60606109e36112c2565b6109eb6112fd565b46305f801b5f67ffffffffffffffff811115610a0a57610a09612596565b5b604051908082528060200260200182016040528015610a385781602001602082028036833780820191505090505b507f0f00000000000000000000000000000000000000000000000000000000000000959493929190965096509650965096509650965090919293949596565b606060018054610a86906127a5565b80601f0160208091040260200160405190810160405280929190818152602001828054610ab2906127a5565b8015610afd5780601f10610ad457610100808354040283529160200191610afd565b820191905f5260205f20905b815481529060010190602001808311610ae057829003601f168201915b5050505050905090565b610b19610b12610dce565b8383611338565b5050565b610b28848484610503565b610b34848484846114a1565b50505050565b6060610b4582610d0f565b505f610b4f611653565b90505f815111610b6d5760405180602001604052805f815250610b98565b80610b7784611669565b604051602001610b889291906129e4565b6040516020818303038152906040525b915050919050565b5f60045f8473ffffffffffffffffffffffffffffffffffffffff1673ffffffffffffffffffffffffffffffffffffffff1681526020019081526020015f205f8373ffffffffffffffffffffffffffffffffffffffff1673ffffffffffffffffffffffffffffffffffffffff1681526020019081526020015f205f9054906101000a900460ff16905092915050565b5f7f80ac58cd000000000000000000000000000000000000000000000000000000007bffffffffffffffffffffffffffffffffffffffffffffffffffffffff1916827bffffffffffffffffffffffffffffffffffffffffffffffffffffffff19161480610cf857507f5b5e139f000000000000000000000000000000000000000000000000000000007bffffffffffffffffffffffffffffffffffffffffffffffffffffffff1916827bffffffffffffffffffffffffffffffffffffffffffffffffffffffff1916145b80610d085750610d0782611733565b5b9050919050565b5f80610d1a8361179c565b90505f73ffffffffffffffffffffffffffffffffffffffff168173ffffffffffffffffffffffffffffffffffffffff1603610d8c57826040517f7e273289000000000000000000000000000000000000000000000000000000008152600401610d839190612205565b60405180910390fd5b80915050919050565b5f60035f8381526020019081526020015f205f9054906101000a900473ffffffffffffffffffffffffffffffffffffffff169050919050565b5f33905090565b610de28383836001611103565b505050565b5f80610df28461179c565b90505f73ffffffffffffffffffffffffffffffffffffffff168373ffffffffffffffffffffffffffffffffffffffff1614610e3357610e328184866117b6565b5b5f73ffffffffffffffffffffffffffffffffffffffff168173ffffffffffffffffffffffffffffffffffffffff1614610ebe57610e725f855f80611103565b600160025f8373ffffffffffffffffffffffffffffffffffffffff1673ffffffffffffffffffffffffffffffffffffffff1681526020019081526020015f205f82825403925050819055505b5f73ffffffffffffffffffffffffffffffffffffffff168573ffffffffffffffffffffffffffffffffffffffff1614610f3d57600160025f8773ffffffffffffffffffffffffffffffffffffffff1673ffffffffffffffffffffffffffffffffffffffff1681526020019081526020015f205f82825401925050819055505b610f478486611879565b838573ffffffffffffffffffffffffffffffffffffffff168273ffffffffffffffffffffffffffffffffffffffff167fddf252ad1be2c89b69c2b068fc378daa952ba7f163c4a11628f55a4df523b3ef60405160405180910390a4809150509392505050565b5f7f000000000000000000000000000000000000000000000000000000000000000073ffffffffffffffffffffffffffffffffffffffff163073ffffffffffffffffffffffffffffffffffffffff1614801561102857507f000000000000000000000000000000000000000000000000000000000000000046145b15611055577f00000000000000000000000000000000000000000000000000000000000000009050611060565b61105d6118ce565b90505b90565b5f8060075f8481526020019081526020015f2054905060a081901c915074010000000000000000000000000000000000000000816110a19190612a34565b60075f8581526020019081526020015f208190555050919050565b5f6110ce6110c8610fad565b83611963565b9050919050565b5f805f806110e5888888886119a3565b9250925092506110f58282611a8a565b829350505050949350505050565b808061113b57505f73ffffffffffffffffffffffffffffffffffffffff168273ffffffffffffffffffffffffffffffffffffffff1614155b1561126d575f61114a84610d0f565b90505f73ffffffffffffffffffffffffffffffffffffffff168373ffffffffffffffffffffffffffffffffffffffff16141580156111b457508273ffffffffffffffffffffffffffffffffffffffff168173ffffffffffffffffffffffffffffffffffffffff1614155b80156111c757506111c58184610ba0565b155b1561120957826040517fa9fbf51f0000000000000000000000000000000000000000000000000000000081526004016112009190612175565b60405180910390fd5b811561126b57838573ffffffffffffffffffffffffffffffffffffffff168273ffffffffffffffffffffffffffffffffffffffff167f8c5be1e5ebec7d5bd14f71427d1e84f3dd0314c0f7b2291e5b200ac8c7c3b92560405160405180910390a45b505b8360035f8581526020019081526020015f205f6101000a81548173ffffffffffffffffffffffffffffffffffffffff021916908373ffffffffffffffffffffffffffffffffffffffff16021790555050505050565b60606112f860057f0000000000000000000000000000000000000000000000000000000000000000611bec90919063ffffffff16565b905090565b606061133360067f0000000000000000000000000000000000000000000000000000000000000000611bec90919063ffffffff16565b905090565b5f73ffffffffffffffffffffffffffffffffffffffff168273ffffffffffffffffffffffffffffffffffffffff16036113a857816040517f5b08ba1800000000000000000000000000000000000000000000000000000000815260040161139f9190612175565b60405180910390fd5b8060045f8573ffffffffffffffffffffffffffffffffffffffff1673ffffffffffffffffffffffffffffffffffffffff1681526020019081526020015f205f8473ffffffffffffffffffffffffffffffffffffffff1673ffffffffffffffffffffffffffffffffffffffff1681526020019081526020015f205f6101000a81548160ff0219169083151502179055508173ffffffffffffffffffffffffffffffffffffffff168373ffffffffffffffffffffffffffffffffffffffff167f17307eab39ab6107e8899845ad3d59bd9653f200f220920489ca2b5937696c31836040516114949190612015565b60405180910390a3505050565b5f8373ffffffffffffffffffffffffffffffffffffffff163b111561164d578273ffffffffffffffffffffffffffffffffffffffff1663150b7a026114e4610dce565b8685856040518563ffffffff1660e01b81526004016115069493929190612a67565b6020604051808303815f875af192505050801561154157506040513d601f19601f8201168201806040525081019061153e919061297f565b60015b6115c2573d805f811461156f576040519150601f19603f3d011682016040523d82523d5f602084013e611574565b606091505b505f8151036115ba57836040517f64a0ae920000000000000000000000000000000000000000000000000000000081526004016115b19190612175565b60405180910390fd5b805181602001fd5b63150b7a0260e01b7bffffffffffffffffffffffffffffffffffffffffffffffffffffffff1916817bffffffffffffffffffffffffffffffffffffffffffffffffffffffff19161461164b57836040517f64a0ae920000000000000000000000000000000000000000000000000000000081526004016116429190612175565b60405180910390fd5b505b50505050565b606060405180602001604052805f815250905090565b60605f600161167784611c99565b0190505f8167ffffffffffffffff81111561169557611694612596565b5b6040519080825280601f01601f1916602001820160405280156116c75781602001600182028036833780820191505090505b5090505f82602083010190505b600115611728578080600190039150507f3031323334353637383961626364656600000000000000000000000000000000600a86061a8153600a858161171d5761171c612ab1565b5b0494505f85036116d4575b819350505050919050565b5f7f01ffc9a7000000000000000000000000000000000000000000000000000000007bffffffffffffffffffffffffffffffffffffffffffffffffffffffff1916827bffffffffffffffffffffffffffffffffffffffffffffffffffffffff1916149050919050565b5f60075f8381526020019081526020015f20549050919050565b6117c1838383611dea565b611874575f73ffffffffffffffffffffffffffffffffffffffff168373ffffffffffffffffffffffffffffffffffffffff160361183557806040517f7e27328900000000000000000000000000000000000000000000000000000000815260040161182c9190612205565b60405180910390fd5b81816040517f177e802f00000000000000000000000000000000000000000000000000000000815260040161186b929190612ade565b60405180910390fd5b505050565b8073ffffffffffffffffffffffffffffffffffffffff1660a06bffffffffffffffffffffffff901b60075f8581526020019081526020015f2054161760075f8481526020019081526020015f20819055505050565b5f7f8b73c3c69bb8fe3d512ecc4cf759cc79239f7b179b0ffacaa9a75d522b39400f7f00000000000000000000000000000000000000000000000000000000000000007f00000000000000000000000000000000000000000000000000000000000000004630604051602001611948959493929190612b05565b60405160208183030381529060405280519060200120905090565b5f6040517f190100000000000000000000000000000000000000000000000000000000000081528360028201528260228201526042812091505092915050565b5f805f7f7fffffffffffffffffffffffffffffff5d576e7357a4501ddfe92f46681b20a0845f1c11156119df575f600385925092509250611a80565b5f6001888888886040515f8152602001604052604051611a029493929190612b65565b6020604051602081039080840390855afa158015611a22573d5f803e3d5ffd5b5050506020604051035190505f73ffffffffffffffffffffffffffffffffffffffff168173ffffffffffffffffffffffffffffffffffffffff1603611a73575f60015f801b93509350935050611a80565b805f805f1b935093509350505b9450945094915050565b5f6003811115611a9d57611a9c612ba8565b5b826003811115611ab057611aaf612ba8565b5b0315611be85760016003811115611aca57611ac9612ba8565b5b826003811115611add57611adc612ba8565b5b03611b14576040517ff645eedf00000000000000000000000000000000000000000000000000000000815260040160405180910390fd5b60026003811115611b2857611b27612ba8565b5b826003811115611b3b57611b3a612ba8565b5b03611b7f57805f1c6040517ffce698f7000000000000000000000000000000000000000000000000000000008152600401611b769190612205565b60405180910390fd5b600380811115611b9257611b91612ba8565b5b826003811115611ba557611ba4612ba8565b5b03611be757806040517fd78bce0c000000000000000000000000000000000000000000000000000000008152600401611bde9190612286565b60405180910390fd5b5b5050565b606060ff5f1b8314611c0857611c0183611eaa565b9050611c93565b818054611c14906127a5565b80601f0160208091040260200160405190810160405280929190818152602001828054611c40906127a5565b8015611c8b5780601f10611c6257610100808354040283529160200191611c8b565b820191905f5260205f20905b815481529060010190602001808311611c6e57829003601f168201915b505050505090505b92915050565b5f805f90507a184f03e93ff9f4daa797ed6e38ed64bf6a1f0100000000000000008310611cf5577a184f03e93ff9f4daa797ed6e38ed64bf6a1f0100000000000000008381611ceb57611cea612ab1565b5b0492506040810190505b6d04ee2d6d415b85acef81000000008310611d32576d04ee2d6d415b85acef81000000008381611d2857611d27612ab1565b5b0492506020810190505b662386f26fc100008310611d6157662386f26fc100008381611d5757611d56612ab1565b5b0492506010810190505b6305f5e1008310611d8a576305f5e1008381611d8057611d7f612ab1565b5b0492506008810190505b6127108310611daf576127108381611da557611da4612ab1565b5b0492506004810190505b60648310611dd25760648381611dc857611dc7612ab1565b5b0492506002810190505b600a8310611de1576001810190505b80915050919050565b5f8073ffffffffffffffffffffffffffffffffffffffff168373ffffffffffffffffffffffffffffffffffffffff1614158015611ea157508273ffffffffffffffffffffffffffffffffffffffff168473ffffffffffffffffffffffffffffffffffffffff161480611e625750611e618484610ba0565b5b80611ea057508273ffffffffffffffffffffffffffffffffffffffff16611e8883610d95565b73ffffffffffffffffffffffffffffffffffffffff16145b5b90509392505050565b60605f611eb683611f1c565b90505f602067ffffffffffffffff811115611ed457611ed3612596565b5b6040519080825280601f01601f191660200182016040528015611f065781602001600182028036833780820191505090505b5090508181528360208201528092505050919050565b5f8060ff835f1c169050601f811115611f61576040517fb3512b0c00000000000000000000000000000000000000000000000000000000815260040160405180910390fd5b80915050919050565b5f604051905090565b5f80fd5b5f80fd5b5f7fffffffff0000000000000000000000000000000000000000000000000000000082169050919050565b611faf81611f7b565b8114611fb9575f80fd5b50565b5f81359050611fca81611fa6565b92915050565b5f60208284031215611fe557611fe4611f73565b5b5f611ff284828501611fbc565b91505092915050565b5f8115159050919050565b61200f81611ffb565b82525050565b5f6020820190506120285f830184612006565b92915050565b5f81519050919050565b5f82825260208201905092915050565b5f5b8381101561206557808201518184015260208101905061204a565b5f8484015250505050565b5f601f19601f8301169050919050565b5f61208a8261202e565b6120948185612038565b93506120a4818560208601612048565b6120ad81612070565b840191505092915050565b5f6020820190508181035f8301526120d08184612080565b905092915050565b5f819050919050565b6120ea816120d8565b81146120f4575f80fd5b50565b5f81359050612105816120e1565b92915050565b5f602082840312156121205761211f611f73565b5b5f61212d848285016120f7565b91505092915050565b5f73ffffffffffffffffffffffffffffffffffffffff82169050919050565b5f61215f82612136565b9050919050565b61216f81612155565b82525050565b5f6020820190506121885f830184612166565b92915050565b61219781612155565b81146121a1575f80fd5b50565b5f813590506121b28161218e565b92915050565b5f80604083850312156121ce576121cd611f73565b5b5f6121db858286016121a4565b92505060206121ec858286016120f7565b9150509250929050565b6121ff816120d8565b82525050565b5f6020820190506122185f8301846121f6565b92915050565b5f805f6060848603121561223557612234611f73565b5b5f612242868287016121a4565b9350506020612253868287016121a4565b9250506040612264868287016120f7565b9150509250925092565b5f819050919050565b6122808161226e565b82525050565b5f6020820190506122995f830184612277565b92915050565b5f602082840312156122b4576122b3611f73565b5b5f6122c1848285016121a4565b91505092915050565b5f60ff82169050919050565b6122df816122ca565b81146122e9575f80fd5b50565b5f813590506122fa816122d6565b92915050565b6123098161226e565b8114612313575f80fd5b50565b5f8135905061232481612300565b92915050565b5f805f805f8060c0878903121561234457612343611f73565b5b5f61235189828a016121a4565b965050602061236289828a016120f7565b955050604061237389828a016120f7565b945050606061238489828a016122ec565b935050608061239589828a01612316565b92505060a06123a689828a01612316565b9150509295509295509295565b5f7fff0000000000000000000000000000000000000000000000000000000000000082169050919050565b6123e7816123b3565b82525050565b5f81519050919050565b5f82825260208201905092915050565b5f819050602082019050919050565b61241f816120d8565b82525050565b5f6124308383612416565b60208301905092915050565b5f602082019050919050565b5f612452826123ed565b61245c81856123f7565b935061246783612407565b805f5b8381101561249757815161247e8882612425565b97506124898361243c565b92505060018101905061246a565b5085935050505092915050565b5f60e0820190506124b75f83018a6123de565b81810360208301526124c98189612080565b905081810360408301526124dd8188612080565b90506124ec60608301876121f6565b6124f96080830186612166565b61250660a0830185612277565b81810360c08301526125188184612448565b905098975050505050505050565b61252f81611ffb565b8114612539575f80fd5b50565b5f8135905061254a81612526565b92915050565b5f806040838503121561256657612565611f73565b5b5f612573858286016121a4565b92505060206125848582860161253c565b9150509250929050565b5f80fd5b5f80fd5b7f4e487b71000000000000000000000000000000000000000000000000000000005f52604160045260245ffd5b6125cc82612070565b810181811067ffffffffffffffff821117156125eb576125ea612596565b5b80604052505050565b5f6125fd611f6a565b905061260982826125c3565b919050565b5f67ffffffffffffffff82111561262857612627612596565b5b61263182612070565b9050602081019050919050565b828183375f83830152505050565b5f61265e6126598461260e565b6125f4565b90508281526020810184848401111561267a57612679612592565b5b61268584828561263e565b509392505050565b5f82601f8301126126a1576126a061258e565b5b81356126b184826020860161264c565b91505092915050565b5f805f80608085870312156126d2576126d1611f73565b5b5f6126df878288016121a4565b94505060206126f0878288016121a4565b9350506040612701878288016120f7565b925050606085013567ffffffffffffffff81111561272257612721611f77565b5b61272e8782880161268d565b91505092959194509250565b5f80604083850312156127505761274f611f73565b5b5f61275d858286016121a4565b925050602061276e858286016121a4565b9150509250929050565b7f4e487b71000000000000000000000000000000000000000000000000000000005f52602260045260245ffd5b5f60028204905060018216806127bc57607f821691505b6020821081036127cf576127ce612778565b5b50919050565b5f6060820190506127e85f830186612166565b6127f560208301856121f6565b6128026040830184612166565b949350505050565b5f60a08201905061281d5f830188612277565b61282a6020830187612166565b61283760408301866121f6565b61284460608301856121f6565b61285160808301846121f6565b9695505050505050565b5f819050919050565b6128756128708261226e565b61285b565b82525050565b5f8160f81b9050919050565b5f6128918261287b565b9050919050565b6128a96128a4826122ca565b612887565b82525050565b5f6128ba8286612864565b6020820191506128ca8285612864565b6020820191506128da8284612898565b600182019150819050949350505050565b5f81519050919050565b5f82825260208201905092915050565b5f61290f826128eb565b61291981856128f5565b9350612929818560208601612048565b61293281612070565b840191505092915050565b5f6040820190506129505f830185612277565b81810360208301526129628184612905565b90509392505050565b5f8151905061297981611fa6565b92915050565b5f6020828403121561299457612993611f73565b5b5f6129a18482850161296b565b91505092915050565b5f81905092915050565b5f6129be8261202e565b6129c881856129aa565b93506129d8818560208601612048565b80840191505092915050565b5f6129ef82856129b4565b91506129fb82846129b4565b91508190509392505050565b7f4e487b71000000000000000000000000000000000000000000000000000000005f52601160045260245ffd5b5f612a3e826120d8565b9150612a49836120d8565b9250828201905080821115612a6157612a60612a07565b5b92915050565b5f608082019050612a7a5f830187612166565b612a876020830186612166565b612a9460408301856121f6565b8181036060830152612aa68184612905565b905095945050505050565b7f4e487b71000000000000000000000000000000000000000000000000000000005f52601260045260245ffd5b5f604082019050612af15f830185612166565b612afe60208301846121f6565b9392505050565b5f60a082019050612b185f830188612277565b612b256020830187612277565b612b326040830186612277565b612b3f60608301856121f6565b612b4c6080830184612166565b9695505050505050565b612b5f816122ca565b82525050565b5f608082019050612b785f830187612277565b612b856020830186612b56565b612b926040830185612277565b612b9f6060830184612277565b95945050505050565b7f4e487b71000000000000000000000000000000000000000000000000000000005f52602160045260245ffdfea26469706673582212209836d32cbba3cd52c136189cae6b380b3003ab5be90777317944145aba7c631664736f6c63430008180033",
  "linkReferences": {},
  "deployedLinkReferences": {}
}